{
  "contractName": "AttributeStore",
  "abi": [
    {
      "constant": true,
      "inputs": [
        {
          "name": "self",
          "type": "AttributeStore.Data storage"
        },
        {
          "name": "_UUID",
          "type": "bytes32"
        },
        {
          "name": "_attrName",
          "type": "string"
        }
      ],
      "name": "getAttribute",
      "outputs": [
        {
          "name": "",
          "type": "uint256"
        }
      ],
      "payable": false,
      "stateMutability": "view",
      "type": "function"
    },
    {
      "constant": false,
      "inputs": [
        {
          "name": "self",
          "type": "AttributeStore.Data storage"
        },
        {
          "name": "_UUID",
          "type": "bytes32"
        },
        {
          "name": "_attrName",
          "type": "string"
        },
        {
          "name": "_attrVal",
          "type": "uint256"
        }
      ],
      "name": "setAttribute",
      "outputs": [],
      "payable": false,
      "stateMutability": "nonpayable",
      "type": "function"
    }
  ],
  "bytecode": "0x6103bf610030600b82828239805160001a6073146000811461002057610022565bfe5b5030600052607381538281f3007300000000000000000000000000000000000000003014608060405260043610610063576000357c0100000000000000000000000000000000000000000000000000000000900463ffffffff16806350389f5c14610068578063977aa031146100f0575b600080fd5b6100da600480360381019080803590602001909291908035600019169060200190929190803590602001908201803590602001908080601f016020809104026020016040519081016040528093929190818152602001838380828437820191505050505050919291929050505061017b565b6040518082815260200191505060405180910390f35b8180156100fc57600080fd5b50610179600480360381019080803590602001909291908035600019169060200190929190803590602001908201803590602001908080601f016020809104026020016040519081016040528093929190818152602001838380828437820191505050505050919291929080359060200190929190505050610287565b005b600080838360405160200180836000191660001916815260200182805190602001908083835b6020831015156101c657805182526020820191506020810190506020830392506101a1565b6001836020036101000a038019825116818451168082178552505050505050905001925050506040516020818303038152906040526040518082805190602001908083835b602083101515610230578051825260208201915060208101905060208303925061020b565b6001836020036101000a038019825116818451168082178552505050505050905001915050604051809103902090508460000160008260001916600019168152602001908152602001600020549150509392505050565b6000838360405160200180836000191660001916815260200182805190602001908083835b6020831015156102d157805182526020820191506020810190506020830392506102ac565b6001836020036101000a038019825116818451168082178552505050505050905001925050506040516020818303038152906040526040518082805190602001908083835b60208310151561033b5780518252602082019150602081019050602083039250610316565b6001836020036101000a038019825116818451168082178552505050505050905001915050604051809103902090508185600001600083600019166000191681526020019081526020016000208190555050505050505600a165627a7a723058201b6a0875841d55216c0d7d8a44e8998525903bc3e10615ec4d541b8f1f10c3490029",
  "source": "pragma solidity 0.4.24;\r\n\r\n\r\nlibrary AttributeStore {\r\n  struct Data {\r\n    mapping(bytes32 => uint) store;\r\n  }\r\n\r\n  function getAttribute(Data storage self, bytes32 _UUID, string _attrName)\r\n  public view returns (uint)\r\n  {\r\n    bytes32 key = keccak256(abi.encodePacked(_UUID, _attrName));\r\n    return self.store[key];\r\n  }\r\n\r\n  function setAttribute(\r\n    Data storage self,\r\n    bytes32 _UUID,\r\n    string _attrName,\r\n    uint _attrVal) public\r\n  {\r\n    bytes32 key = keccak256(abi.encodePacked(_UUID, _attrName));\r\n    self.store[key] = _attrVal;\r\n  }\r\n}\r\n",
  "sourcePath": "C:\\Users\\Artur\\computable\\computable\\contracts\\AttributeStore.sol",
  "compiler": {
    "name": "solc",
    "version": "0.4.24+commit.e67f0147.Emscripten.clang"
  },
  "schemaVersion": "2.0.1",
  "updatedAt": "2018-08-01T17:47:57.819Z"
}