{
  "contractName": "DLL",
  "abi": [
    {
      "constant": true,
      "inputs": [
        {
          "name": "self",
          "type": "DLL.Data storage"
        }
      ],
      "name": "isEmpty",
      "outputs": [
        {
          "name": "",
          "type": "bool"
        }
      ],
      "payable": false,
      "stateMutability": "view",
      "type": "function"
    },
    {
      "constant": true,
      "inputs": [
        {
          "name": "self",
          "type": "DLL.Data storage"
        },
        {
          "name": "_curr",
          "type": "uint256"
        }
      ],
      "name": "contains",
      "outputs": [
        {
          "name": "",
          "type": "bool"
        }
      ],
      "payable": false,
      "stateMutability": "view",
      "type": "function"
    },
    {
      "constant": true,
      "inputs": [
        {
          "name": "self",
          "type": "DLL.Data storage"
        },
        {
          "name": "_curr",
          "type": "uint256"
        }
      ],
      "name": "getNext",
      "outputs": [
        {
          "name": "",
          "type": "uint256"
        }
      ],
      "payable": false,
      "stateMutability": "view",
      "type": "function"
    },
    {
      "constant": true,
      "inputs": [
        {
          "name": "self",
          "type": "DLL.Data storage"
        },
        {
          "name": "_curr",
          "type": "uint256"
        }
      ],
      "name": "getPrev",
      "outputs": [
        {
          "name": "",
          "type": "uint256"
        }
      ],
      "payable": false,
      "stateMutability": "view",
      "type": "function"
    },
    {
      "constant": true,
      "inputs": [
        {
          "name": "self",
          "type": "DLL.Data storage"
        }
      ],
      "name": "getStart",
      "outputs": [
        {
          "name": "",
          "type": "uint256"
        }
      ],
      "payable": false,
      "stateMutability": "view",
      "type": "function"
    },
    {
      "constant": true,
      "inputs": [
        {
          "name": "self",
          "type": "DLL.Data storage"
        }
      ],
      "name": "getEnd",
      "outputs": [
        {
          "name": "",
          "type": "uint256"
        }
      ],
      "payable": false,
      "stateMutability": "view",
      "type": "function"
    },
    {
      "constant": false,
      "inputs": [
        {
          "name": "self",
          "type": "DLL.Data storage"
        },
        {
          "name": "_prev",
          "type": "uint256"
        },
        {
          "name": "_curr",
          "type": "uint256"
        },
        {
          "name": "_next",
          "type": "uint256"
        }
      ],
      "name": "insert",
      "outputs": [],
      "payable": false,
      "stateMutability": "nonpayable",
      "type": "function"
    },
    {
      "constant": false,
      "inputs": [
        {
          "name": "self",
          "type": "DLL.Data storage"
        },
        {
          "name": "_curr",
          "type": "uint256"
        }
      ],
      "name": "remove",
      "outputs": [],
      "payable": false,
      "stateMutability": "nonpayable",
      "type": "function"
    }
  ],
  "bytecode": "0x610508610030600b82828239805160001a6073146000811461002057610022565bfe5b5030600052607381538281f30073000000000000000000000000000000000000000030146060604052600436106100a5576000357c0100000000000000000000000000000000000000000000000000000000900463ffffffff16806307d29ac9146100aa57806330fe0a0a146100df578063366a5ba2146101145780636d900ed01461014d5780637c11cf64146101795780639735c51b146101a5578063c426b006146101e3578063ee4f1ac414610213575b600080fd5b6100c9600480803590602001909190803590602001909190505061023f565b6040518082815260200191505060405180910390f35b6100fe6004808035906020019091908035906020019091905050610262565b6040518082815260200191505060405180910390f35b6101336004808035906020019091908035906020019091905050610285565b604051808215151515815260200191505060405180910390f35b811561015857600080fd5b6101776004808035906020019091908035906020019091905050610305565b005b61018f600480803590602001909190505061039e565b6040518082815260200191505060405180910390f35b81156101b057600080fd5b6101e160048080359060200190919080359060200190919080359060200190919080359060200190919050506103b2565b005b6101f960048080359060200190919050506104b4565b604051808215151515815260200191505060405180910390f35b61022960048080359060200190919050506104c8565b6040518082815260200191505060405180910390f35b600082600001600083815260200190815260200160002060000154905092915050565b600082600001600083815260200190815260200160002060010154905092915050565b6000806000610293856104b4565b8061029e5750600084145b156102ac57600092506102fd565b836102b6866104c8565b1480156102ca5750836102c88661039e565b145b915060006102d8868661023f565b1480156102ee575060006102ec8686610262565b145b905081806102fa575080155b92505b505092915050565b6000806103128484610285565b151561031d57610398565b610327848461023f565b91506103338484610262565b905080846000016000848152602001908152602001600020600101819055508184600001600083815260200190815260200160002060000181905550836000016000848152602001908152602001600020600080820160009055600182016000905550505b50505050565b60006103ab826000610262565b9050919050565b600082141515156103c257600080fd5b6103cc8483610305565b60008314806103e157506103e08484610285565b5b15156103ec57600080fd5b600081148061040157506104008482610285565b5b151561040c57600080fd5b80610417858561023f565b14151561042357600080fd5b8261042e8583610262565b14151561043a57600080fd5b828460000160008481526020019081526020016000206001018190555080846000016000848152602001908152602001600020600001819055508184600001600085815260200190815260200160002060000181905550818460000160008381526020019081526020016000206001018190555050505050565b6000806104c0836104c8565b149050919050565b60006104d582600061023f565b90509190505600a165627a7a72305820408b000b008207b969b51f578e2dcbd5e9f0be461e37e48b264427f9ecee42ae0029",
  "source": "pragma solidity^0.4.11;\n\nlibrary DLL {\n\n  uint constant NULL_NODE_ID = 0;\n\n  struct Node {\n    uint next;\n    uint prev;\n  }\n\n  struct Data {\n    mapping(uint => Node) dll;\n  }\n\n  function isEmpty(Data storage self) public view returns (bool) {\n    return getStart(self) == NULL_NODE_ID;\n  }\n\n  function contains(Data storage self, uint _curr) public view returns (bool) {\n    if (isEmpty(self) || _curr == NULL_NODE_ID) {\n      return false;\n    } \n\n    bool isSingleNode = (getStart(self) == _curr) && (getEnd(self) == _curr);\n    bool isNullNode = (getNext(self, _curr) == NULL_NODE_ID) && (getPrev(self, _curr) == NULL_NODE_ID);\n    return isSingleNode || !isNullNode;\n  }\n\n  function getNext(Data storage self, uint _curr) public view returns (uint) {\n    return self.dll[_curr].next;\n  }\n\n  function getPrev(Data storage self, uint _curr) public view returns (uint) {\n    return self.dll[_curr].prev;\n  }\n\n  function getStart(Data storage self) public view returns (uint) {\n    return getNext(self, NULL_NODE_ID);\n  }\n\n  function getEnd(Data storage self) public view returns (uint) {\n    return getPrev(self, NULL_NODE_ID);\n  }\n\n  /**\n  @dev Inserts a new node between _prev and _next. When inserting a node already existing in \n  the list it will be automatically removed from the old position.\n  @param _prev the node which _new will be inserted after\n  @param _curr the id of the new node being inserted\n  @param _next the node which _new will be inserted before\n  */\n  function insert(Data storage self, uint _prev, uint _curr, uint _next) public {\n    require(_curr != NULL_NODE_ID);\n\n    remove(self, _curr);\n\n    require(_prev == NULL_NODE_ID || contains(self, _prev));\n    require(_next == NULL_NODE_ID || contains(self, _next));\n\n    require(getNext(self, _prev) == _next);\n    require(getPrev(self, _next) == _prev);\n\n    self.dll[_curr].prev = _prev;\n    self.dll[_curr].next = _next;\n\n    self.dll[_prev].next = _curr;\n    self.dll[_next].prev = _curr;\n  }\n\n  function remove(Data storage self, uint _curr) public {\n    if (!contains(self, _curr)) {\n      return;\n    }\n\n    uint next = getNext(self, _curr);\n    uint prev = getPrev(self, _curr);\n\n    self.dll[next].prev = prev;\n    self.dll[prev].next = next;\n\n    delete self.dll[_curr];\n  }\n}\n",
  "sourcePath": "dll/DLL.sol",
  "compiler": {
    "name": "solc",
    "version": "0.4.21+commit.dfe3193c.Emscripten.clang"
  },
  "schemaVersion": "2.0.0",
  "updatedAt": "2018-04-20T00:29:27.586Z"
}