{
  "contractName": "DLL",
  "abi": [
    {
      "constant": true,
      "inputs": [
        {
          "name": "self",
          "type": "DLL.Data storage"
        }
      ],
      "name": "isEmpty",
      "outputs": [
        {
          "name": "",
          "type": "bool"
        }
      ],
      "payable": false,
      "stateMutability": "view",
      "type": "function"
    },
    {
      "constant": true,
      "inputs": [
        {
          "name": "self",
          "type": "DLL.Data storage"
        },
        {
          "name": "_curr",
          "type": "uint256"
        }
      ],
      "name": "contains",
      "outputs": [
        {
          "name": "",
          "type": "bool"
        }
      ],
      "payable": false,
      "stateMutability": "view",
      "type": "function"
    },
    {
      "constant": true,
      "inputs": [
        {
          "name": "self",
          "type": "DLL.Data storage"
        },
        {
          "name": "_curr",
          "type": "uint256"
        }
      ],
      "name": "getNext",
      "outputs": [
        {
          "name": "",
          "type": "uint256"
        }
      ],
      "payable": false,
      "stateMutability": "view",
      "type": "function"
    },
    {
      "constant": true,
      "inputs": [
        {
          "name": "self",
          "type": "DLL.Data storage"
        },
        {
          "name": "_curr",
          "type": "uint256"
        }
      ],
      "name": "getPrev",
      "outputs": [
        {
          "name": "",
          "type": "uint256"
        }
      ],
      "payable": false,
      "stateMutability": "view",
      "type": "function"
    },
    {
      "constant": true,
      "inputs": [
        {
          "name": "self",
          "type": "DLL.Data storage"
        }
      ],
      "name": "getStart",
      "outputs": [
        {
          "name": "",
          "type": "uint256"
        }
      ],
      "payable": false,
      "stateMutability": "view",
      "type": "function"
    },
    {
      "constant": true,
      "inputs": [
        {
          "name": "self",
          "type": "DLL.Data storage"
        }
      ],
      "name": "getEnd",
      "outputs": [
        {
          "name": "",
          "type": "uint256"
        }
      ],
      "payable": false,
      "stateMutability": "view",
      "type": "function"
    },
    {
      "constant": false,
      "inputs": [
        {
          "name": "self",
          "type": "DLL.Data storage"
        },
        {
          "name": "_prev",
          "type": "uint256"
        },
        {
          "name": "_curr",
          "type": "uint256"
        },
        {
          "name": "_next",
          "type": "uint256"
        }
      ],
      "name": "insert",
      "outputs": [],
      "payable": false,
      "stateMutability": "nonpayable",
      "type": "function"
    },
    {
      "constant": false,
      "inputs": [
        {
          "name": "self",
          "type": "DLL.Data storage"
        },
        {
          "name": "_curr",
          "type": "uint256"
        }
      ],
      "name": "remove",
      "outputs": [],
      "payable": false,
      "stateMutability": "nonpayable",
      "type": "function"
    }
  ],
  "bytecode": "0x610553610030600b82828239805160001a6073146000811461002057610022565bfe5b5030600052607381538281f30073000000000000000000000000000000000000000030146080604052600436106100a5576000357c0100000000000000000000000000000000000000000000000000000000900463ffffffff16806307d29ac9146100aa57806330fe0a0a146100e8578063366a5ba2146101265780636d900ed0146101685780637c11cf641461019f5780639735c51b146101d3578063c426b0061461021e578063ee4f1ac414610256575b600080fd5b6100d2600480360381019080803590602001909291908035906020019092919050505061028a565b6040518082815260200191505060405180910390f35b61011060048036038101908080359060200190929190803590602001909291905050506102ad565b6040518082815260200191505060405180910390f35b61014e60048036038101908080359060200190929190803590602001909291905050506102d0565b604051808215151515815260200191505060405180910390f35b81801561017457600080fd5b5061019d6004803603810190808035906020019092919080359060200190929190505050610350565b005b6101bd600480360381019080803590602001909291905050506103e9565b6040518082815260200191505060405180910390f35b8180156101df57600080fd5b5061021c600480360381019080803590602001909291908035906020019092919080359060200190929190803590602001909291905050506103fd565b005b61023c600480360381019080803590602001909291905050506104ff565b604051808215151515815260200191505060405180910390f35b61027460048036038101908080359060200190929190505050610513565b6040518082815260200191505060405180910390f35b600082600001600083815260200190815260200160002060000154905092915050565b600082600001600083815260200190815260200160002060010154905092915050565b60008060006102de856104ff565b806102e95750600084145b156102f75760009250610348565b8361030186610513565b148015610315575083610313866103e9565b145b91506000610323868661028a565b1480156103395750600061033786866102ad565b145b90508180610345575080155b92505b505092915050565b60008061035d84846102d0565b1515610368576103e3565b610372848461028a565b915061037e84846102ad565b905080846000016000848152602001908152602001600020600101819055508184600001600083815260200190815260200160002060000181905550836000016000848152602001908152602001600020600080820160009055600182016000905550505b50505050565b60006103f68260006102ad565b9050919050565b6000821415151561040d57600080fd5b6104178483610350565b600083148061042c575061042b84846102d0565b5b151561043757600080fd5b600081148061044c575061044b84826102d0565b5b151561045757600080fd5b80610462858561028a565b14151561046e57600080fd5b8261047985836102ad565b14151561048557600080fd5b828460000160008481526020019081526020016000206001018190555080846000016000848152602001908152602001600020600001819055508184600001600085815260200190815260200160002060000181905550818460000160008381526020019081526020016000206001018190555050505050565b60008061050b83610513565b149050919050565b600061052082600061028a565b90509190505600a165627a7a72305820d80a6464c75b14e24b9473e21624637f7f2f0f052a893922ebbf23c1e1b748190029",
  "source": "pragma solidity 0.4.24;\r\n\r\n\r\nlibrary DLL {\r\n\r\n  uint constant NULL_NODE_ID = 0;\r\n\r\n  struct Node {\r\n    uint next;\r\n    uint prev;\r\n  }\r\n\r\n  struct Data {\r\n    mapping(uint => Node) dll;\r\n  }\r\n\r\n  function isEmpty(Data storage self) public view returns (bool) {\r\n    return getStart(self) == NULL_NODE_ID;\r\n  }\r\n\r\n  function contains(Data storage self, uint _curr) public view returns (bool) {\r\n    if (isEmpty(self) || _curr == NULL_NODE_ID) {\r\n      return false;\r\n    }\r\n\r\n    bool isSingleNode = (getStart(self) == _curr) && (getEnd(self) == _curr);\r\n    bool isNullNode = (getNext(self, _curr) == NULL_NODE_ID) && (getPrev(self, _curr) == NULL_NODE_ID);\r\n    return isSingleNode || !isNullNode;\r\n  }\r\n\r\n  function getNext(Data storage self, uint _curr) public view returns (uint) {\r\n    return self.dll[_curr].next;\r\n  }\r\n\r\n  function getPrev(Data storage self, uint _curr) public view returns (uint) {\r\n    return self.dll[_curr].prev;\r\n  }\r\n\r\n  function getStart(Data storage self) public view returns (uint) {\r\n    return getNext(self, NULL_NODE_ID);\r\n  }\r\n\r\n  function getEnd(Data storage self) public view returns (uint) {\r\n    return getPrev(self, NULL_NODE_ID);\r\n  }\r\n\r\n  /**\r\n  @dev Inserts a new node between _prev and _next. When inserting a node already existing in\r\n  the list it will be automatically removed from the old position.\r\n  @param _prev the node which _new will be inserted after\r\n  @param _curr the id of the new node being inserted\r\n  @param _next the node which _new will be inserted before\r\n  */\r\n  function insert(\r\n    Data storage self,\r\n    uint _prev,\r\n    uint _curr,\r\n    uint _next\r\n  ) public\r\n  {\r\n    require(_curr != NULL_NODE_ID);\r\n\r\n    remove(self, _curr);\r\n\r\n    require(_prev == NULL_NODE_ID || contains(self, _prev));\r\n    require(_next == NULL_NODE_ID || contains(self, _next));\r\n\r\n    require(getNext(self, _prev) == _next);\r\n    require(getPrev(self, _next) == _prev);\r\n\r\n    self.dll[_curr].prev = _prev;\r\n    self.dll[_curr].next = _next;\r\n\r\n    self.dll[_prev].next = _curr;\r\n    self.dll[_next].prev = _curr;\r\n  }\r\n\r\n  function remove(Data storage self, uint _curr) public {\r\n    if (!contains(self, _curr)) {\r\n      return;\r\n    }\r\n\r\n    uint next = getNext(self, _curr);\r\n    uint prev = getPrev(self, _curr);\r\n\r\n    self.dll[next].prev = prev;\r\n    self.dll[prev].next = next;\r\n\r\n    delete self.dll[_curr];\r\n  }\r\n}\r\n",
  "sourcePath": "C:\\Users\\Artur\\computable\\computable\\contracts\\DLL.sol",
  "compiler": {
    "name": "solc",
    "version": "0.4.24+commit.e67f0147.Emscripten.clang"
  },
  "schemaVersion": "2.0.1",
  "updatedAt": "2018-08-01T17:47:57.816Z"
}