{
  "contractName": "Parameterizer",
  "abi": [
    {
      "constant": true,
      "inputs": [],
      "name": "PROCESSBY",
      "outputs": [
        {
          "name": "",
          "type": "uint256"
        }
      ],
      "payable": false,
      "stateMutability": "view",
      "type": "function"
    },
    {
      "constant": true,
      "inputs": [
        {
          "name": "",
          "type": "bytes32"
        }
      ],
      "name": "proposals",
      "outputs": [
        {
          "name": "appExpiry",
          "type": "uint256"
        },
        {
          "name": "challengeID",
          "type": "uint256"
        },
        {
          "name": "deposit",
          "type": "uint256"
        },
        {
          "name": "name",
          "type": "string"
        },
        {
          "name": "owner",
          "type": "address"
        },
        {
          "name": "processBy",
          "type": "uint256"
        },
        {
          "name": "value",
          "type": "uint256"
        }
      ],
      "payable": false,
      "stateMutability": "view",
      "type": "function"
    },
    {
      "constant": true,
      "inputs": [
        {
          "name": "",
          "type": "uint256"
        }
      ],
      "name": "challenges",
      "outputs": [
        {
          "name": "rewardPool",
          "type": "uint256"
        },
        {
          "name": "challenger",
          "type": "address"
        },
        {
          "name": "resolved",
          "type": "bool"
        },
        {
          "name": "stake",
          "type": "uint256"
        },
        {
          "name": "winningTokens",
          "type": "uint256"
        }
      ],
      "payable": false,
      "stateMutability": "view",
      "type": "function"
    },
    {
      "constant": true,
      "inputs": [
        {
          "name": "",
          "type": "bytes32"
        }
      ],
      "name": "params",
      "outputs": [
        {
          "name": "",
          "type": "uint256"
        }
      ],
      "payable": false,
      "stateMutability": "view",
      "type": "function"
    },
    {
      "constant": true,
      "inputs": [],
      "name": "token",
      "outputs": [
        {
          "name": "",
          "type": "address"
        }
      ],
      "payable": false,
      "stateMutability": "view",
      "type": "function"
    },
    {
      "constant": true,
      "inputs": [],
      "name": "voting",
      "outputs": [
        {
          "name": "",
          "type": "address"
        }
      ],
      "payable": false,
      "stateMutability": "view",
      "type": "function"
    },
    {
      "inputs": [
        {
          "name": "_tokenAddr",
          "type": "address"
        },
        {
          "name": "_plcrAddr",
          "type": "address"
        },
        {
          "name": "_minDeposit",
          "type": "uint256"
        },
        {
          "name": "_pMinDeposit",
          "type": "uint256"
        },
        {
          "name": "_applyStageLen",
          "type": "uint256"
        },
        {
          "name": "_pApplyStageLen",
          "type": "uint256"
        },
        {
          "name": "_commitStageLen",
          "type": "uint256"
        },
        {
          "name": "_pCommitStageLen",
          "type": "uint256"
        },
        {
          "name": "_revealStageLen",
          "type": "uint256"
        },
        {
          "name": "_pRevealStageLen",
          "type": "uint256"
        },
        {
          "name": "_dispensationPct",
          "type": "uint256"
        },
        {
          "name": "_pDispensationPct",
          "type": "uint256"
        },
        {
          "name": "_voteQuorum",
          "type": "uint256"
        },
        {
          "name": "_pVoteQuorum",
          "type": "uint256"
        }
      ],
      "payable": false,
      "stateMutability": "nonpayable",
      "type": "constructor"
    },
    {
      "anonymous": false,
      "inputs": [
        {
          "indexed": false,
          "name": "name",
          "type": "string"
        },
        {
          "indexed": false,
          "name": "value",
          "type": "uint256"
        },
        {
          "indexed": false,
          "name": "propID",
          "type": "bytes32"
        },
        {
          "indexed": false,
          "name": "deposit",
          "type": "uint256"
        },
        {
          "indexed": false,
          "name": "appEndDate",
          "type": "uint256"
        },
        {
          "indexed": true,
          "name": "proposer",
          "type": "address"
        }
      ],
      "name": "_ReparameterizationProposal",
      "type": "event"
    },
    {
      "anonymous": false,
      "inputs": [
        {
          "indexed": true,
          "name": "propID",
          "type": "bytes32"
        },
        {
          "indexed": false,
          "name": "challengeID",
          "type": "uint256"
        },
        {
          "indexed": false,
          "name": "commitEndDate",
          "type": "uint256"
        },
        {
          "indexed": false,
          "name": "revealEndDate",
          "type": "uint256"
        },
        {
          "indexed": true,
          "name": "challenger",
          "type": "address"
        }
      ],
      "name": "_NewChallenge",
      "type": "event"
    },
    {
      "anonymous": false,
      "inputs": [
        {
          "indexed": true,
          "name": "propID",
          "type": "bytes32"
        },
        {
          "indexed": false,
          "name": "name",
          "type": "string"
        },
        {
          "indexed": false,
          "name": "value",
          "type": "uint256"
        }
      ],
      "name": "_ProposalAccepted",
      "type": "event"
    },
    {
      "anonymous": false,
      "inputs": [
        {
          "indexed": true,
          "name": "propID",
          "type": "bytes32"
        }
      ],
      "name": "_ProposalExpired",
      "type": "event"
    },
    {
      "anonymous": false,
      "inputs": [
        {
          "indexed": true,
          "name": "propID",
          "type": "bytes32"
        },
        {
          "indexed": true,
          "name": "challengeID",
          "type": "uint256"
        },
        {
          "indexed": false,
          "name": "rewardPool",
          "type": "uint256"
        },
        {
          "indexed": false,
          "name": "totalTokens",
          "type": "uint256"
        }
      ],
      "name": "_ChallengeSucceeded",
      "type": "event"
    },
    {
      "anonymous": false,
      "inputs": [
        {
          "indexed": true,
          "name": "propID",
          "type": "bytes32"
        },
        {
          "indexed": true,
          "name": "challengeID",
          "type": "uint256"
        },
        {
          "indexed": false,
          "name": "rewardPool",
          "type": "uint256"
        },
        {
          "indexed": false,
          "name": "totalTokens",
          "type": "uint256"
        }
      ],
      "name": "_ChallengeFailed",
      "type": "event"
    },
    {
      "anonymous": false,
      "inputs": [
        {
          "indexed": true,
          "name": "challengeID",
          "type": "uint256"
        },
        {
          "indexed": false,
          "name": "reward",
          "type": "uint256"
        },
        {
          "indexed": true,
          "name": "voter",
          "type": "address"
        }
      ],
      "name": "_RewardClaimed",
      "type": "event"
    },
    {
      "constant": false,
      "inputs": [
        {
          "name": "_name",
          "type": "string"
        },
        {
          "name": "_value",
          "type": "uint256"
        }
      ],
      "name": "proposeReparameterization",
      "outputs": [
        {
          "name": "",
          "type": "bytes32"
        }
      ],
      "payable": false,
      "stateMutability": "nonpayable",
      "type": "function"
    },
    {
      "constant": false,
      "inputs": [
        {
          "name": "_propID",
          "type": "bytes32"
        }
      ],
      "name": "challengeReparameterization",
      "outputs": [
        {
          "name": "challengeID",
          "type": "uint256"
        }
      ],
      "payable": false,
      "stateMutability": "nonpayable",
      "type": "function"
    },
    {
      "constant": false,
      "inputs": [
        {
          "name": "_propID",
          "type": "bytes32"
        }
      ],
      "name": "processProposal",
      "outputs": [],
      "payable": false,
      "stateMutability": "nonpayable",
      "type": "function"
    },
    {
      "constant": false,
      "inputs": [
        {
          "name": "_challengeID",
          "type": "uint256"
        },
        {
          "name": "_salt",
          "type": "uint256"
        }
      ],
      "name": "claimReward",
      "outputs": [],
      "payable": false,
      "stateMutability": "nonpayable",
      "type": "function"
    },
    {
      "constant": true,
      "inputs": [
        {
          "name": "_voter",
          "type": "address"
        },
        {
          "name": "_challengeID",
          "type": "uint256"
        },
        {
          "name": "_salt",
          "type": "uint256"
        }
      ],
      "name": "voterReward",
      "outputs": [
        {
          "name": "",
          "type": "uint256"
        }
      ],
      "payable": false,
      "stateMutability": "view",
      "type": "function"
    },
    {
      "constant": true,
      "inputs": [
        {
          "name": "_propID",
          "type": "bytes32"
        }
      ],
      "name": "canBeSet",
      "outputs": [
        {
          "name": "",
          "type": "bool"
        }
      ],
      "payable": false,
      "stateMutability": "view",
      "type": "function"
    },
    {
      "constant": true,
      "inputs": [
        {
          "name": "_propID",
          "type": "bytes32"
        }
      ],
      "name": "propExists",
      "outputs": [
        {
          "name": "",
          "type": "bool"
        }
      ],
      "payable": false,
      "stateMutability": "view",
      "type": "function"
    },
    {
      "constant": true,
      "inputs": [
        {
          "name": "_propID",
          "type": "bytes32"
        }
      ],
      "name": "challengeCanBeResolved",
      "outputs": [
        {
          "name": "",
          "type": "bool"
        }
      ],
      "payable": false,
      "stateMutability": "view",
      "type": "function"
    },
    {
      "constant": true,
      "inputs": [
        {
          "name": "_challengeID",
          "type": "uint256"
        }
      ],
      "name": "challengeWinnerReward",
      "outputs": [
        {
          "name": "",
          "type": "uint256"
        }
      ],
      "payable": false,
      "stateMutability": "view",
      "type": "function"
    },
    {
      "constant": true,
      "inputs": [
        {
          "name": "_name",
          "type": "string"
        }
      ],
      "name": "get",
      "outputs": [
        {
          "name": "value",
          "type": "uint256"
        }
      ],
      "payable": false,
      "stateMutability": "view",
      "type": "function"
    },
    {
      "constant": true,
      "inputs": [
        {
          "name": "_challengeID",
          "type": "uint256"
        },
        {
          "name": "_voter",
          "type": "address"
        }
      ],
      "name": "tokenClaims",
      "outputs": [
        {
          "name": "",
          "type": "bool"
        }
      ],
      "payable": false,
      "stateMutability": "view",
      "type": "function"
    }
  ],
  "bytecode": "0x608060405262093a806005553480156200001857600080fd5b506040516101c08062003d6583398101806040528101908080519060200190929190805190602001909291908051906020019092919080519060200190929190805190602001909291908051906020019092919080519060200190929190805190602001909291908051906020019092919080519060200190929190805190602001909291908051906020019092919080519060200190929190805190602001909291905050508d600360006101000a81548173ffffffffffffffffffffffffffffffffffffffff021916908373ffffffffffffffffffffffffffffffffffffffff1602179055508c600460006101000a81548173ffffffffffffffffffffffffffffffffffffffff021916908373ffffffffffffffffffffffffffffffffffffffff160217905550620001916040805190810160405280600a81526020017f6d696e4465706f736974000000000000000000000000000000000000000000008152508d62000515640100000000026401000000009004565b620001e16040805190810160405280600b81526020017f704d696e4465706f7369740000000000000000000000000000000000000000008152508c62000515640100000000026401000000009004565b620002316040805190810160405280600d81526020017f6170706c7953746167654c656e000000000000000000000000000000000000008152508b62000515640100000000026401000000009004565b620002816040805190810160405280600e81526020017f704170706c7953746167654c656e0000000000000000000000000000000000008152508a62000515640100000000026401000000009004565b620002d16040805190810160405280600e81526020017f636f6d6d697453746167654c656e0000000000000000000000000000000000008152508962000515640100000000026401000000009004565b620003216040805190810160405280600f81526020017f70436f6d6d697453746167654c656e00000000000000000000000000000000008152508862000515640100000000026401000000009004565b620003716040805190810160405280600e81526020017f72657665616c53746167654c656e0000000000000000000000000000000000008152508762000515640100000000026401000000009004565b620003c16040805190810160405280600f81526020017f7052657665616c53746167654c656e00000000000000000000000000000000008152508662000515640100000000026401000000009004565b620004116040805190810160405280600f81526020017f64697370656e736174696f6e50637400000000000000000000000000000000008152508562000515640100000000026401000000009004565b620004616040805190810160405280601081526020017f7044697370656e736174696f6e506374000000000000000000000000000000008152508462000515640100000000026401000000009004565b620004b16040805190810160405280600a81526020017f766f746551756f72756d000000000000000000000000000000000000000000008152508362000515640100000000026401000000009004565b620005016040805190810160405280600b81526020017f70566f746551756f72756d0000000000000000000000000000000000000000008152508262000515640100000000026401000000009004565b50505050505050505050505050506200060a565b80600080846040516020018082805190602001908083835b6020831015156200055457805182526020820191506020810190506020830392506200052d565b6001836020036101000a0380198251168184511680821785525050505050509050019150506040516020818303038152906040526040518082805190602001908083835b602083101515620005bf578051825260208201915060208101905060208303925062000598565b6001836020036101000a038019825116818451168082178552505050505050905001915050604051809103902060001916600019168152602001908152602001600020819055505050565b61374b806200061a6000396000f3006080604052600436106100f0576000357c0100000000000000000000000000000000000000000000000000000000900463ffffffff16806229514f146100f557806330490e911461012057806332ed5b12146101515780633530099014610251578063504115521461029a578063693ec85e146102db57806377609a41146103585780638240ae4b146103a157806386bb8f37146103e65780638f1d37761461041d578063a5ba3b1e146104aa578063a7aad3db1461050f578063bade1c541461057a578063c51131fb14610609578063dc6ab52714610652578063fc0c546a14610697578063fce1ccca146106ee575b600080fd5b34801561010157600080fd5b5061010a610745565b6040518082815260200191505060405180910390f35b34801561012c57600080fd5b5061014f600480360381019080803560001916906020019092919050505061074b565b005b34801561015d57600080fd5b506101806004803603810190808035600019169060200190929190505050610eb4565b60405180888152602001878152602001868152602001806020018573ffffffffffffffffffffffffffffffffffffffff1673ffffffffffffffffffffffffffffffffffffffff168152602001848152602001838152602001828103825286818151815260200191508051906020019080838360005b838110156102105780820151818401526020810190506101f5565b50505050905090810190601f16801561023d5780820380516001836020036101000a031916815260200191505b509850505050505050505060405180910390f35b34801561025d57600080fd5b506102806004803603810190808035600019169060200190929190505050610fae565b604051808215151515815260200191505060405180910390f35b3480156102a657600080fd5b506102c560048036038101908080359060200190929190505050610fd8565b6040518082815260200191505060405180910390f35b3480156102e757600080fd5b50610342600480360381019080803590602001908201803590602001908080601f0160208091040260200160405190810160405280939291908181526020018383808284378201915050505050509192919290505050611138565b6040518082815260200191505060405180910390f35b34801561036457600080fd5b50610387600480360381019080803560001916906020019092919050505061122a565b604051808215151515815260200191505060405180910390f35b3480156103ad57600080fd5b506103d06004803603810190808035600019169060200190929190505050611540565b6040518082815260200191505060405180910390f35b3480156103f257600080fd5b5061041b6004803603810190808035906020019092919080359060200190929190505050611c80565b005b34801561042957600080fd5b5061044860048036038101908080359060200190929190505050612094565b604051808681526020018573ffffffffffffffffffffffffffffffffffffffff1673ffffffffffffffffffffffffffffffffffffffff168152602001841515151581526020018381526020018281526020019550505050505060405180910390f35b3480156104b657600080fd5b506104f560048036038101908080359060200190929190803573ffffffffffffffffffffffffffffffffffffffff1690602001909291905050506120f7565b604051808215151515815260200191505060405180910390f35b34801561051b57600080fd5b50610564600480360381019080803573ffffffffffffffffffffffffffffffffffffffff1690602001909291908035906020019092919080359060200190929190505050612162565b6040518082815260200191505060405180910390f35b34801561058657600080fd5b506105eb600480360381019080803590602001908201803590602001908080601f0160208091040260200160405190810160405280939291908181526020018383808284378201915050505050509192919290803590602001909291905050506122d5565b60405180826000191660001916815260200191505060405180910390f35b34801561061557600080fd5b506106386004803603810190808035600019169060200190929190505050612bc2565b604051808215151515815260200191505060405180910390f35b34801561065e57600080fd5b506106816004803603810190808035600019169060200190929190505050612d4d565b6040518082815260200191505060405180910390f35b3480156106a357600080fd5b506106ac612d65565b604051808273ffffffffffffffffffffffffffffffffffffffff1673ffffffffffffffffffffffffffffffffffffffff16815260200191505060405180910390f35b3480156106fa57600080fd5b50610703612d8b565b604051808273ffffffffffffffffffffffffffffffffffffffff1673ffffffffffffffffffffffffffffffffffffffff16815260200191505060405180910390f35b60055481565b600080600060026000856000191660001916815260200190815260200160002092508260040160009054906101000a900473ffffffffffffffffffffffffffffffffffffffff169150826002015490506107a484612bc2565b15610aad57610853836003018054600181600116156101000203166002900480601f0160208091040260200160405190810160405280929190818152602001828054600181600116156101000203166002900480156108445780601f1061081957610100808354040283529160200191610844565b820191906000526020600020905b81548152906001019060200180831161082757829003601f168201915b50505050508460060154612db1565b83600019167f37f3986c71e1aa2c470cfc4a92af70820610c3065589d35ef1664ea27f3e73a584600301856006015460405180806020018381526020018281038252848181546001816001161561010002031660029004815260200191508054600181600116156101000203166002900480156109115780601f106108e657610100808354040283529160200191610911565b820191906000526020600020905b8154815290600101906020018083116108f457829003601f168201915b5050935050505060405180910390a2600260008560001916600019168152602001908152602001600020600080820160009055600182016000905560028201600090556003820160006109649190613596565b6004820160006101000a81549073ffffffffffffffffffffffffffffffffffffffff0219169055600582016000905560068201600090555050600360009054906101000a900473ffffffffffffffffffffffffffffffffffffffff1673ffffffffffffffffffffffffffffffffffffffff1663a9059cbb83836040518363ffffffff167c0100000000000000000000000000000000000000000000000000000000028152600401808373ffffffffffffffffffffffffffffffffffffffff1673ffffffffffffffffffffffffffffffffffffffff16815260200182815260200192505050602060405180830381600087803b158015610a6257600080fd5b505af1158015610a76573d6000803e3d6000fd5b505050506040513d6020811015610a8c57600080fd5b81019080805190602001909291905050501515610aa857600080fd5b610c9a565b610ab68461122a565b15610ac957610ac484612ea2565b610c99565b8260050154421115610c935783600019167f29026cb2acebe6d0a4b6d593ccadf76e3fc6d0a02254e078b0c4a619608089d760405160405180910390a260026000856000191660001916815260200190815260200160002060008082016000905560018201600090556002820160009055600382016000610b4a9190613596565b6004820160006101000a81549073ffffffffffffffffffffffffffffffffffffffff0219169055600582016000905560068201600090555050600360009054906101000a900473ffffffffffffffffffffffffffffffffffffffff1673ffffffffffffffffffffffffffffffffffffffff1663a9059cbb83836040518363ffffffff167c0100000000000000000000000000000000000000000000000000000000028152600401808373ffffffffffffffffffffffffffffffffffffffff1673ffffffffffffffffffffffffffffffffffffffff16815260200182815260200192505050602060405180830381600087803b158015610c4857600080fd5b505af1158015610c5c573d6000803e3d6000fd5b505050506040513d6020811015610c7257600080fd5b81019080805190602001909291905050501515610c8e57600080fd5b610c98565b600080fd5b5b5b6064610cda6040805190810160405280600f81526020017f64697370656e736174696f6e5063740000000000000000000000000000000000815250611138565b11151515610ce457fe5b6064610d246040805190810160405280601081526020017f7044697370656e736174696f6e50637400000000000000000000000000000000815250611138565b11151515610d2e57fe5b610e30600554610e22610d756040805190810160405280600f81526020017f7052657665616c53746167654c656e0000000000000000000000000000000000815250611138565b610e14610db66040805190810160405280600f81526020017f70436f6d6d697453746167654c656e0000000000000000000000000000000000815250611138565b610e06610df76040805190810160405280600e81526020017f704170706c7953746167654c656e000000000000000000000000000000000000815250611138565b4261351390919063ffffffff16565b61351390919063ffffffff16565b61351390919063ffffffff16565b61351390919063ffffffff16565b5060026000856000191660001916815260200190815260200160002060008082016000905560018201600090556002820160009055600382016000610e759190613596565b6004820160006101000a81549073ffffffffffffffffffffffffffffffffffffffff021916905560058201600090556006820160009055505050505050565b6002602052806000526040600020600091509050806000015490806001015490806002015490806003018054600181600116156101000203166002900480601f016020809104026020016040519081016040528092919081815260200182805460018160011615610100020316600290048015610f725780601f10610f4757610100808354040283529160200191610f72565b820191906000526020600020905b815481529060010190602001808311610f5557829003601f168201915b5050505050908060040160009054906101000a900473ffffffffffffffffffffffffffffffffffffffff16908060050154908060060154905087565b60008060026000846000191660001916815260200190815260200160002060050154119050919050565b600080600460009054906101000a900473ffffffffffffffffffffffffffffffffffffffff1673ffffffffffffffffffffffffffffffffffffffff1663053e71a6846040518263ffffffff167c010000000000000000000000000000000000000000000000000000000002815260040180828152602001915050602060405180830381600087803b15801561106c57600080fd5b505af1158015611080573d6000803e3d6000fd5b505050506040513d602081101561109657600080fd5b810190808051906020019092919050505014156110de576110d76002600160008581526020019081526020016000206002015461352f90919063ffffffff16565b9050611133565b61113060016000848152602001908152602001600020600001546111226002600160008781526020019081526020016000206002015461352f90919063ffffffff16565b61356790919063ffffffff16565b90505b919050565b6000806000836040516020018082805190602001908083835b6020831015156111765780518252602082019150602081019050602083039250611151565b6001836020036101000a0380198251168184511680821785525050505050509050019150506040516020818303038152906040526040518082805190602001908083835b6020831015156111df57805182526020820191506020810190506020830392506111ba565b6001836020036101000a038019825116818451168082178552505050505050905001915050604051809103902060001916600019168152602001908152602001600020549050919050565b60006112346135de565b61123c613632565b60026000856000191660001916815260200190815260200160002060e06040519081016040529081600082015481526020016001820154815260200160028201548152602001600382018054600181600116156101000203166002900480601f01602080910402602001604051908101604052809291908181526020018280546001816001161561010002031660029004801561131a5780601f106112ef5761010080835404028352916020019161131a565b820191906000526020600020905b8154815290600101906020018083116112fd57829003601f168201915b505050505081526020016004820160009054906101000a900473ffffffffffffffffffffffffffffffffffffffff1673ffffffffffffffffffffffffffffffffffffffff1673ffffffffffffffffffffffffffffffffffffffff168152602001600582015481526020016006820154815250509150600160008360200151815260200190815260200160002060a06040519081016040529081600082015481526020016001820160009054906101000a900473ffffffffffffffffffffffffffffffffffffffff1673ffffffffffffffffffffffffffffffffffffffff1673ffffffffffffffffffffffffffffffffffffffff1681526020016001820160149054906101000a900460ff161515151581526020016002820154815260200160038201548152505090506000826020015111801561145f57506000151581604001511515145b80156115375750600460009054906101000a900473ffffffffffffffffffffffffffffffffffffffff1673ffffffffffffffffffffffffffffffffffffffff1663ee68483083602001516040518263ffffffff167c010000000000000000000000000000000000000000000000000000000002815260040180828152602001915050602060405180830381600087803b1580156114fb57600080fd5b505af115801561150f573d6000803e3d6000fd5b505050506040513d602081101561152557600080fd5b81019080805190602001909291905050505b92505050919050565b600061154a6135de565b60008060008060026000886000191660001916815260200190815260200160002060e06040519081016040529081600082015481526020016001820154815260200160028201548152602001600382018054600181600116156101000203166002900480601f01602080910402602001604051908101604052809291908181526020018280546001816001161561010002031660029004801561162e5780601f106116035761010080835404028352916020019161162e565b820191906000526020600020905b81548152906001019060200180831161161157829003601f168201915b505050505081526020016004820160009054906101000a900473ffffffffffffffffffffffffffffffffffffffff1673ffffffffffffffffffffffffffffffffffffffff1673ffffffffffffffffffffffffffffffffffffffff168152602001600582015481526020016006820154815250509450846040015193506116b387610fae565b80156116c3575060008560200151145b15156116ce57600080fd5b600460009054906101000a900473ffffffffffffffffffffffffffffffffffffffff1673ffffffffffffffffffffffffffffffffffffffff166332ed3d6061174a6040805190810160405280600b81526020017f70566f746551756f72756d000000000000000000000000000000000000000000815250611138565b6117886040805190810160405280600f81526020017f70436f6d6d697453746167654c656e0000000000000000000000000000000000815250611138565b6117c66040805190810160405280600f81526020017f7052657665616c53746167654c656e0000000000000000000000000000000000815250611138565b6040518463ffffffff167c0100000000000000000000000000000000000000000000000000000000028152600401808481526020018381526020018281526020019350505050602060405180830381600087803b15801561182657600080fd5b505af115801561183a573d6000803e3d6000fd5b505050506040513d602081101561185057600080fd5b8101908080519060200190929190505050925060a0604051908101604052806118dc60646118ce886118c060646118bb6040805190810160405280601081526020017f7044697370656e736174696f6e50637400000000000000000000000000000000815250611138565b613567565b61352f90919063ffffffff16565b61358090919063ffffffff16565b81526020013373ffffffffffffffffffffffffffffffffffffffff1681526020016000151581526020018581526020016000815250600160008581526020019081526020016000206000820151816000015560208201518160010160006101000a81548173ffffffffffffffffffffffffffffffffffffffff021916908373ffffffffffffffffffffffffffffffffffffffff16021790555060408201518160010160146101000a81548160ff02191690831515021790555060608201518160020155608082015181600301559050508260026000896000191660001916815260200190815260200160002060010181905550600360009054906101000a900473ffffffffffffffffffffffffffffffffffffffff1673ffffffffffffffffffffffffffffffffffffffff166323b872dd3330876040518463ffffffff167c0100000000000000000000000000000000000000000000000000000000028152600401808473ffffffffffffffffffffffffffffffffffffffff1673ffffffffffffffffffffffffffffffffffffffff1681526020018373ffffffffffffffffffffffffffffffffffffffff1673ffffffffffffffffffffffffffffffffffffffff1681526020018281526020019350505050602060405180830381600087803b158015611ac857600080fd5b505af1158015611adc573d6000803e3d6000fd5b505050506040513d6020811015611af257600080fd5b81019080805190602001909291905050501515611b0e57600080fd5b600460009054906101000a900473ffffffffffffffffffffffffffffffffffffffff1673ffffffffffffffffffffffffffffffffffffffff16636148fed5846040518263ffffffff167c01000000000000000000000000000000000000000000000000000000000281526004018082815260200191505060a060405180830381600087803b158015611b9f57600080fd5b505af1158015611bb3573d6000803e3d6000fd5b505050506040513d60a0811015611bc957600080fd5b81019080805190602001909291908051906020019092919080519060200190929190805190602001909291908051906020019092919050505090915090505080925081935050503373ffffffffffffffffffffffffffffffffffffffff1687600019167fe94e3086c4bfe84acba4437b85a80fca3721dfc419d1f7afe4fa4e470e670b4885858560405180848152602001838152602001828152602001935050505060405180910390a38295505050505050919050565b600080600015156001600086815260200190815260200160002060040160003373ffffffffffffffffffffffffffffffffffffffff1673ffffffffffffffffffffffffffffffffffffffff16815260200190815260200160002060009054906101000a900460ff161515141515611cf657600080fd5b600115156001600086815260200190815260200160002060010160149054906101000a900460ff161515141515611d2c57600080fd5b600460009054906101000a900473ffffffffffffffffffffffffffffffffffffffff1673ffffffffffffffffffffffffffffffffffffffff1663b43bd0693386866040518463ffffffff167c0100000000000000000000000000000000000000000000000000000000028152600401808473ffffffffffffffffffffffffffffffffffffffff1673ffffffffffffffffffffffffffffffffffffffff1681526020018381526020018281526020019350505050602060405180830381600087803b158015611df957600080fd5b505af1158015611e0d573d6000803e3d6000fd5b505050506040513d6020811015611e2357600080fd5b81019080805190602001909291905050509150611e41338585612162565b9050611e6c82600160008781526020019081526020016000206003015461356790919063ffffffff16565b6001600086815260200190815260200160002060030181905550611eaf81600160008781526020019081526020016000206000015461356790919063ffffffff16565b6001600086815260200190815260200160002060000181905550600180600086815260200190815260200160002060040160003373ffffffffffffffffffffffffffffffffffffffff1673ffffffffffffffffffffffffffffffffffffffff16815260200190815260200160002060006101000a81548160ff0219169083151502179055503373ffffffffffffffffffffffffffffffffffffffff16847f6f4c982acc31b0af2cf1dc1556f21c0325d893782d65e83c68a5534a33f59957836040518082815260200191505060405180910390a3600360009054906101000a900473ffffffffffffffffffffffffffffffffffffffff1673ffffffffffffffffffffffffffffffffffffffff1663a9059cbb33836040518363ffffffff167c0100000000000000000000000000000000000000000000000000000000028152600401808373ffffffffffffffffffffffffffffffffffffffff1673ffffffffffffffffffffffffffffffffffffffff16815260200182815260200192505050602060405180830381600087803b15801561204857600080fd5b505af115801561205c573d6000803e3d6000fd5b505050506040513d602081101561207257600080fd5b8101908080519060200190929190505050151561208e57600080fd5b50505050565b60016020528060005260406000206000915090508060000154908060010160009054906101000a900473ffffffffffffffffffffffffffffffffffffffff16908060010160149054906101000a900460ff16908060020154908060030154905085565b60006001600084815260200190815260200160002060040160008373ffffffffffffffffffffffffffffffffffffffff1673ffffffffffffffffffffffffffffffffffffffff16815260200190815260200160002060009054906101000a900460ff16905092915050565b6000806000806001600087815260200190815260200160002060030154925060016000878152602001908152602001600020600001549150600460009054906101000a900473ffffffffffffffffffffffffffffffffffffffff1673ffffffffffffffffffffffffffffffffffffffff1663b43bd0698888886040518463ffffffff167c0100000000000000000000000000000000000000000000000000000000028152600401808473ffffffffffffffffffffffffffffffffffffffff1673ffffffffffffffffffffffffffffffffffffffff1681526020018381526020018281526020019350505050602060405180830381600087803b15801561226757600080fd5b505af115801561227b573d6000803e3d6000fd5b505050506040513d602081101561229157600080fd5b810190808051906020019092919050505090506122c9836122bb848461352f90919063ffffffff16565b61358090919063ffffffff16565b93505050509392505050565b60008060006123186040805190810160405280600b81526020017f704d696e4465706f736974000000000000000000000000000000000000000000815250611138565b915084846040516020018083805190602001908083835b602083101515612354578051825260208201915060208101905060208303925061232f565b6001836020036101000a038019825116818451168082178552505050505050905001828152602001925050506040516020818303038152906040526040518082805190602001908083835b6020831015156123c4578051825260208201915060208101905060208303925061239f565b6001836020036101000a0380198251168184511680821785525050505050509050019150506040518091039020905060405160200180807f64697370656e736174696f6e5063740000000000000000000000000000000000815250600f0190506040516020818303038152906040526040518082805190602001908083835b6020831015156124685780518252602082019150602081019050602083039250612443565b6001836020036101000a038019825116818451168082178552505050505050905001915050604051809103902060001916856040516020018082805190602001908083835b6020831015156124d257805182526020820191506020810190506020830392506124ad565b6001836020036101000a0380198251168184511680821785525050505050509050019150506040516020818303038152906040526040518082805190602001908083835b60208310151561253b5780518252602082019150602081019050602083039250612516565b6001836020036101000a03801982511681845116808217855250505050505090500191505060405180910390206000191614806126ee575060405160200180807f7044697370656e736174696f6e5063740000000000000000000000000000000081525060100190506040516020818303038152906040526040518082805190602001908083835b6020831015156125e857805182526020820191506020810190506020830392506125c3565b6001836020036101000a038019825116818451168082178552505050505050905001915050604051809103902060001916856040516020018082805190602001908083835b602083101515612652578051825260208201915060208101905060208303925061262d565b6001836020036101000a0380198251168184511680821785525050505050509050019150506040516020818303038152906040526040518082805190602001908083835b6020831015156126bb5780518252602082019150602081019050602083039250612696565b6001836020036101000a038019825116818451168082178552505050505050905001915050604051809103902060001916145b15612704576064841115151561270357600080fd5b5b61270d81610fae565b15151561271957600080fd5b8361272386611138565b1415151561273057600080fd5b60e06040519081016040528061278c61277d6040805190810160405280600e81526020017f704170706c7953746167654c656e000000000000000000000000000000000000815250611138565b4261351390919063ffffffff16565b8152602001600081526020018381526020018681526020013373ffffffffffffffffffffffffffffffffffffffff1681526020016128c26005546128b46128076040805190810160405280600f81526020017f7052657665616c53746167654c656e0000000000000000000000000000000000815250611138565b6128a66128486040805190810160405280600f81526020017f70436f6d6d697453746167654c656e0000000000000000000000000000000000815250611138565b6128986128896040805190810160405280600e81526020017f704170706c7953746167654c656e000000000000000000000000000000000000815250611138565b4261351390919063ffffffff16565b61351390919063ffffffff16565b61351390919063ffffffff16565b61351390919063ffffffff16565b815260200185815250600260008360001916600019168152602001908152602001600020600082015181600001556020820151816001015560408201518160020155606082015181600301908051906020019061292092919061367a565b5060808201518160040160006101000a81548173ffffffffffffffffffffffffffffffffffffffff021916908373ffffffffffffffffffffffffffffffffffffffff16021790555060a0820151816005015560c08201518160060155905050600360009054906101000a900473ffffffffffffffffffffffffffffffffffffffff1673ffffffffffffffffffffffffffffffffffffffff166323b872dd3330856040518463ffffffff167c0100000000000000000000000000000000000000000000000000000000028152600401808473ffffffffffffffffffffffffffffffffffffffff1673ffffffffffffffffffffffffffffffffffffffff1681526020018373ffffffffffffffffffffffffffffffffffffffff1673ffffffffffffffffffffffffffffffffffffffff1681526020018281526020019350505050602060405180830381600087803b158015612a7857600080fd5b505af1158015612a8c573d6000803e3d6000fd5b505050506040513d6020811015612aa257600080fd5b81019080805190602001909291905050501515612abe57600080fd5b3373ffffffffffffffffffffffffffffffffffffffff167fb25bdef16105f099e5c185f9c7fd969571e8e0caa3f7bd75409512fe0a41a60b868684866002600088600019166000191681526020019081526020016000206000015460405180806020018681526020018560001916600019168152602001848152602001838152602001828103825287818151815260200191508051906020019080838360005b83811015612b79578082015181840152602081019050612b5e565b50505050905090810190601f168015612ba65780820380516001836020036101000a031916815260200191505b50965050505050505060405180910390a2809250505092915050565b6000612bcc6135de565b60026000846000191660001916815260200190815260200160002060e06040519081016040529081600082015481526020016001820154815260200160028201548152602001600382018054600181600116156101000203166002900480601f016020809104026020016040519081016040528092919081815260200182805460018160011615610100020316600290048015612caa5780601f10612c7f57610100808354040283529160200191612caa565b820191906000526020600020905b815481529060010190602001808311612c8d57829003601f168201915b505050505081526020016004820160009054906101000a900473ffffffffffffffffffffffffffffffffffffffff1673ffffffffffffffffffffffffffffffffffffffff1673ffffffffffffffffffffffffffffffffffffffff168152602001600582015481526020016006820154815250509050806000015142118015612d3557508060a0015142105b8015612d45575060008160200151145b915050919050565b60006020528060005260406000206000915090505481565b600360009054906101000a900473ffffffffffffffffffffffffffffffffffffffff1681565b600460009054906101000a900473ffffffffffffffffffffffffffffffffffffffff1681565b80600080846040516020018082805190602001908083835b602083101515612dee5780518252602082019150602081019050602083039250612dc9565b6001836020036101000a0380198251168184511680821785525050505050509050019150506040516020818303038152906040526040518082805190602001908083835b602083101515612e575780518252602082019150602081019050602083039250612e32565b6001836020036101000a038019825116818451168082178552505050505050905001915050604051809103902060001916600019168152602001908152602001600020819055505050565b612eaa6135de565b60008060026000856000191660001916815260200190815260200160002060e06040519081016040529081600082015481526020016001820154815260200160028201548152602001600382018054600181600116156101000203166002900480601f016020809104026020016040519081016040528092919081815260200182805460018160011615610100020316600290048015612f8b5780601f10612f6057610100808354040283529160200191612f8b565b820191906000526020600020905b815481529060010190602001808311612f6e57829003601f168201915b505050505081526020016004820160009054906101000a900473ffffffffffffffffffffffffffffffffffffffff1673ffffffffffffffffffffffffffffffffffffffff1673ffffffffffffffffffffffffffffffffffffffff168152602001600582015481526020016006820154815250509250600160008460200151815260200190815260200160002091506130268360200151610fd8565b9050600460009054906101000a900473ffffffffffffffffffffffffffffffffffffffff1673ffffffffffffffffffffffffffffffffffffffff1663053e71a684602001516040518263ffffffff167c010000000000000000000000000000000000000000000000000000000002815260040180828152602001915050602060405180830381600087803b1580156130bd57600080fd5b505af11580156130d1573d6000803e3d6000fd5b505050506040513d60208110156130e757600080fd5b8101908080519060200190929190505050826003018190555060018260010160146101000a81548160ff021916908315150217905550600460009054906101000a900473ffffffffffffffffffffffffffffffffffffffff1673ffffffffffffffffffffffffffffffffffffffff16634940318384602001516040518263ffffffff167c010000000000000000000000000000000000000000000000000000000002815260040180828152602001915050602060405180830381600087803b1580156131b257600080fd5b505af11580156131c6573d6000803e3d6000fd5b505050506040513d60208110156131dc57600080fd5b81019080805190602001909291905050501561337657428360a0015111156132115761321083606001518460c00151612db1565b5b826020015184600019167fc4497224aa78dd50c9b3e344aab02596201ca1e6dca4057a91a6c02f83f4f6c184600001548560030154604051808381526020018281526020019250505060405180910390a3600360009054906101000a900473ffffffffffffffffffffffffffffffffffffffff1673ffffffffffffffffffffffffffffffffffffffff1663a9059cbb8460800151836040518363ffffffff167c0100000000000000000000000000000000000000000000000000000000028152600401808373ffffffffffffffffffffffffffffffffffffffff1673ffffffffffffffffffffffffffffffffffffffff16815260200182815260200192505050602060405180830381600087803b15801561332b57600080fd5b505af115801561333f573d6000803e3d6000fd5b505050506040513d602081101561335557600080fd5b8101908080519060200190929190505050151561337157600080fd5b61350d565b826020015184600019167f362a12431f779a2baff4f77f75ba7960ae993a5c41b425df11f7fd0af2b9cbe684600001548560030154604051808381526020018281526020019250505060405180910390a3600360009054906101000a900473ffffffffffffffffffffffffffffffffffffffff1673ffffffffffffffffffffffffffffffffffffffff1663a9059cbb600160008660200151815260200190815260200160002060010160009054906101000a900473ffffffffffffffffffffffffffffffffffffffff16836040518363ffffffff167c0100000000000000000000000000000000000000000000000000000000028152600401808373ffffffffffffffffffffffffffffffffffffffff1673ffffffffffffffffffffffffffffffffffffffff16815260200182815260200192505050602060405180830381600087803b1580156134c657600080fd5b505af11580156134da573d6000803e3d6000fd5b505050506040513d60208110156134f057600080fd5b8101908080519060200190929190505050151561350c57600080fd5b5b50505050565b6000818301905082811015151561352657fe5b80905092915050565b6000808314156135425760009050613561565b818302905081838281151561355357fe5b0414151561355d57fe5b8090505b92915050565b600082821115151561357557fe5b818303905092915050565b6000818381151561358d57fe5b04905092915050565b50805460018160011615610100020316600290046000825580601f106135bc57506135db565b601f0160209004906000526020600020908101906135da91906136fa565b5b50565b60e06040519081016040528060008152602001600081526020016000815260200160608152602001600073ffffffffffffffffffffffffffffffffffffffff16815260200160008152602001600081525090565b60a06040519081016040528060008152602001600073ffffffffffffffffffffffffffffffffffffffff16815260200160001515815260200160008152602001600081525090565b828054600181600116156101000203166002900490600052602060002090601f016020900481019282601f106136bb57805160ff19168380011785556136e9565b828001600101855582156136e9579182015b828111156136e85782518255916020019190600101906136cd565b5b5090506136f691906136fa565b5090565b61371c91905b80821115613718576000816000905550600101613700565b5090565b905600a165627a7a723058202d4fa4d53c3cfbd02e6811edd669baa34da5b236c0ca3fb9b9a4107bc767e37d0029",
  "source": "pragma solidity 0.4.24;\n\nimport \"./PLCRVoting.sol\";\nimport \"./ERC20.sol\";\nimport \"./SafeMath.sol\";\n\n\ncontract Parameterizer {\n\n  // ------\n  // EVENTS\n  // ------\n\n  event _ReparameterizationProposal(string name, uint value, bytes32 propID, uint deposit, uint appEndDate, address indexed proposer);\n  event _NewChallenge(bytes32 indexed propID, uint challengeID, uint commitEndDate, uint revealEndDate, address indexed challenger);\n  event _ProposalAccepted(bytes32 indexed propID, string name, uint value);\n  event _ProposalExpired(bytes32 indexed propID);\n  event _ChallengeSucceeded(bytes32 indexed propID, uint indexed challengeID, uint rewardPool, uint totalTokens);\n  event _ChallengeFailed(bytes32 indexed propID, uint indexed challengeID, uint rewardPool, uint totalTokens);\n  event _RewardClaimed(uint indexed challengeID, uint reward, address indexed voter);\n\n\n  // ------\n  // DATA STRUCTURES\n  // ------\n\n  using SafeMath for uint;\n\n  struct ParamProposal {\n    uint appExpiry;\n    uint challengeID;\n    uint deposit;\n    string name;\n    address owner;\n    uint processBy;\n    uint value;\n  }\n\n  struct Challenge {\n    uint rewardPool;        // (remaining) pool of tokens distributed amongst winning voters\n    address challenger;     // owner of Challenge\n    bool resolved;          // indication of if challenge is resolved\n    uint stake;             // number of tokens at risk for either party during challenge\n    uint winningTokens;     // (remaining) amount of tokens used for voting by the winning side\n    mapping(address => bool) tokenClaims;\n  }\n\n  // ------\n  // STATE\n  // ------\n\n  mapping(bytes32 => uint) public params;\n\n  // maps challengeIDs to associated challenge data\n  mapping(uint => Challenge) public challenges;\n\n  // maps pollIDs to intended data change if poll passes\n  mapping(bytes32 => ParamProposal) public proposals;\n\n  // Global Variables\n  ERC20 public token;\n  PLCRVoting public voting;\n  uint public PROCESSBY = 604800; // 7 days\n\n  // ------------\n  // CONSTRUCTOR\n  // ------------\n\n  /**\n  @dev constructor\n  @param _tokenAddr        address of the token which parameterizes this system\n  @param _plcrAddr         address of a PLCR voting contract for the provided token\n  @param _minDeposit       minimum deposit for listing to be whitelisted\n  @param _pMinDeposit      minimum deposit to propose a reparameterization\n  @param _applyStageLen    period over which applicants wait to be whitelisted\n  @param _pApplyStageLen   period over which reparmeterization proposals wait to be processed\n  @param _dispensationPct  percentage of losing party's deposit distributed to winning party\n  @param _pDispensationPct percentage of losing party's deposit distributed to winning party in parameterizer\n  @param _commitStageLen  length of commit period for voting\n  @param _pCommitStageLen length of commit period for voting in parameterizer\n  @param _revealStageLen  length of reveal period for voting\n  @param _pRevealStageLen length of reveal period for voting in parameterizer\n  @param _voteQuorum       type of majority out of 100 necessary for vote success\n  @param _pVoteQuorum      type of majority out of 100 necessary for vote success in parameterizer\n  */\n  constructor(\n    address _tokenAddr,\n    address _plcrAddr,\n    uint _minDeposit,\n    uint _pMinDeposit,\n    uint _applyStageLen,\n    uint _pApplyStageLen,\n    uint _commitStageLen,\n    uint _pCommitStageLen,\n    uint _revealStageLen,\n    uint _pRevealStageLen,\n    uint _dispensationPct,\n    uint _pDispensationPct,\n    uint _voteQuorum,\n    uint _pVoteQuorum\n    ) public\n  {\n    token = ERC20(_tokenAddr);\n    voting = PLCRVoting(_plcrAddr);\n\n    set(\"minDeposit\", _minDeposit);\n    set(\"pMinDeposit\", _pMinDeposit);\n    set(\"applyStageLen\", _applyStageLen);\n    set(\"pApplyStageLen\", _pApplyStageLen);\n    set(\"commitStageLen\", _commitStageLen);\n    set(\"pCommitStageLen\", _pCommitStageLen);\n    set(\"revealStageLen\", _revealStageLen);\n    set(\"pRevealStageLen\", _pRevealStageLen);\n    set(\"dispensationPct\", _dispensationPct);\n    set(\"pDispensationPct\", _pDispensationPct);\n    set(\"voteQuorum\", _voteQuorum);\n    set(\"pVoteQuorum\", _pVoteQuorum);\n  }\n\n  // -----------------------\n  // TOKEN HOLDER INTERFACE\n  // -----------------------\n\n  /**\n  @notice propose a reparamaterization of the key _name's value to _value.\n  @param _name the name of the proposed param to be set\n  @param _value the proposed value to set the param to be set\n  */\n  function proposeReparameterization(string _name, uint _value) public returns (bytes32) {\n    uint deposit = get(\"pMinDeposit\");\n    bytes32 propID = keccak256(abi.encodePacked(_name, _value));\n\n    if (keccak256(abi.encodePacked(_name)) == keccak256(abi.encodePacked(\"dispensationPct\")) ||\n       keccak256(abi.encodePacked(_name)) == keccak256(abi.encodePacked(\"pDispensationPct\"))) {\n      require(_value <= 100);\n    }\n\n    require(!propExists(propID)); // Forbid duplicate proposals\n    require(get(_name) != _value); // Forbid NOOP reparameterizations\n\n    // attach name and value to pollID\n    proposals[propID] = ParamProposal({\n      appExpiry: now.add(get(\"pApplyStageLen\")),\n      challengeID: 0,\n      deposit: deposit,\n      name: _name,\n      owner: msg.sender,\n      processBy: now.add(get(\"pApplyStageLen\"))\n        .add(get(\"pCommitStageLen\"))\n        .add(get(\"pRevealStageLen\"))\n        .add(PROCESSBY),\n      value: _value\n    });\n\n    require(token.transferFrom(msg.sender, this, deposit)); // escrow tokens (deposit amt)\n\n    emit _ReparameterizationProposal(\n      _name,\n      _value,\n      propID,\n      deposit,\n      proposals[propID].appExpiry,\n      msg.sender\n    );\n\n    return propID;\n  }\n\n  /**\n  @notice challenge the provided proposal ID, and put tokens at stake to do so.\n  @param _propID the proposal ID to challenge\n  */\n  function challengeReparameterization(bytes32 _propID) public returns (uint challengeID) {\n    ParamProposal memory prop = proposals[_propID];\n    uint deposit = prop.deposit;\n\n    require(propExists(_propID) && prop.challengeID == 0);\n\n    //start poll\n    uint pollID = voting.startPoll(\n      get(\"pVoteQuorum\"),\n      get(\"pCommitStageLen\"),\n      get(\"pRevealStageLen\")\n    );\n\n    challenges[pollID] = Challenge({\n      challenger: msg.sender,\n      rewardPool: SafeMath.sub(100, get(\"pDispensationPct\")).mul(deposit).div(100),\n      stake: deposit,\n      resolved: false,\n      winningTokens: 0\n    });\n\n    proposals[_propID].challengeID = pollID;       // update listing to store most recent challenge\n\n    //take tokens from challenger\n    require(token.transferFrom(msg.sender, this, deposit));\n\n    uint commitEndDate;\n    uint revealEndDate;\n    (commitEndDate, revealEndDate,) = voting.pollMap(pollID);\n\n    emit _NewChallenge(\n      _propID,\n      pollID,\n      commitEndDate,\n      revealEndDate,\n      msg.sender\n    );\n\n    return pollID;\n  }\n\n  /**\n  @notice for the provided proposal ID, set it, resolve its challenge, or delete it depending on whether it can be set, has a challenge which can be resolved, or if its \"process by\" date has passed\n  @param _propID the proposal ID to make a determination and state transition for\n  */\n  function processProposal(bytes32 _propID) public {\n    ParamProposal storage prop = proposals[_propID];\n    address propOwner = prop.owner;\n    uint propDeposit = prop.deposit;\n\n    // Before any token transfers, deleting the proposal will ensure that if reentrancy occurs the\n    // prop.owner and prop.deposit will be 0, thereby preventing theft\n    if (canBeSet(_propID)) {\n      // There is no challenge against the proposal. The processBy date for the proposal has not\n      // passed, but the proposal's appExpirty date has passed.\n      set(prop.name, prop.value);\n      emit _ProposalAccepted(_propID, prop.name, prop.value);\n      delete proposals[_propID];\n      require(token.transfer(propOwner, propDeposit));\n    } else if (challengeCanBeResolved(_propID)) {\n      // There is a challenge against the proposal.\n      resolveChallenge(_propID);\n    } else if (now > prop.processBy) {\n      // There is no challenge against the proposal, but the processBy date has passed.\n      emit _ProposalExpired(_propID);\n      delete proposals[_propID];\n      require(token.transfer(propOwner, propDeposit));\n    } else {\n      // There is no challenge against the proposal, and neither the appExpiry date nor the\n      // processBy date has passed.\n      revert();\n    }\n\n    assert(get(\"dispensationPct\") <= 100);\n    assert(get(\"pDispensationPct\") <= 100);\n\n    // verify that future proposal appExpiry and processBy times will not overflow\n    now.add(get(\"pApplyStageLen\"))\n      .add(get(\"pCommitStageLen\"))\n      .add(get(\"pRevealStageLen\"))\n      .add(PROCESSBY);\n\n    delete proposals[_propID];\n  }\n\n  /**\n  @notice claim the tokens owed for the msg.sender in the provided challenge\n  @param _challengeID the challenge ID to claim tokens for\n  @param _salt the salt used to vote in the challenge being withdrawn for\n  */\n  function claimReward(uint _challengeID, uint _salt) public {\n    // ensure voter has not already claimed tokens and challenge results have been processed\n    require(challenges[_challengeID].tokenClaims[msg.sender] == false);\n    require(challenges[_challengeID].resolved == true);\n\n    uint voterTokens = voting.getNumPassingTokens(msg.sender, _challengeID, _salt);\n    uint reward = voterReward(msg.sender, _challengeID, _salt);\n\n    // subtract voter's information to preserve the participation ratios of other voters\n    // compared to the remaining pool of rewards\n    challenges[_challengeID].winningTokens = challenges[_challengeID].winningTokens.sub(voterTokens);\n    challenges[_challengeID].rewardPool = challenges[_challengeID].rewardPool.sub(reward);\n\n    // ensures a voter cannot claim tokens again\n    challenges[_challengeID].tokenClaims[msg.sender] = true;\n\n    emit _RewardClaimed(_challengeID, reward, msg.sender);\n    require(token.transfer(msg.sender, reward));\n  }\n\n  // --------\n  // GETTERS\n  // --------\n\n  /**\n  @dev                Calculates the provided voter's token reward for the given poll.\n  @param _voter       The address of the voter whose reward balance is to be returned\n  @param _challengeID The ID of the challenge the voter's reward is being calculated for\n  @param _salt        The salt of the voter's commit hash in the given poll\n  @return             The uint indicating the voter's reward\n  */\n  function voterReward(address _voter, uint _challengeID, uint _salt)\n  public view returns (uint)\n  {\n    uint winningTokens = challenges[_challengeID].winningTokens;\n    uint rewardPool = challenges[_challengeID].rewardPool;\n    uint voterTokens = voting.getNumPassingTokens(_voter, _challengeID, _salt);\n    return voterTokens.mul(rewardPool).div(winningTokens);\n  }\n\n  /**\n  @notice Determines whether a proposal passed its application stage without a challenge\n  @param _propID The proposal ID for which to determine whether its application stage passed without a challenge\n  */\n  function canBeSet(bytes32 _propID) view public returns (bool) {\n    ParamProposal memory prop = proposals[_propID];\n\n    return (now > prop.appExpiry && now < prop.processBy && prop.challengeID == 0);\n  }\n\n  /**\n  @notice Determines whether a proposal exists for the provided proposal ID\n  @param _propID The proposal ID whose existance is to be determined\n  */\n  function propExists(bytes32 _propID) view public returns (bool) {\n    return proposals[_propID].processBy > 0;\n  }\n\n  /**\n  @notice Determines whether the provided proposal ID has a challenge which can be resolved\n  @param _propID The proposal ID whose challenge to inspect\n  */\n  function challengeCanBeResolved(bytes32 _propID) view public returns (bool) {\n    ParamProposal memory prop = proposals[_propID];\n    Challenge memory challenge = challenges[prop.challengeID];\n\n    return (prop.challengeID > 0 && challenge.resolved == false && voting.pollEnded(prop.challengeID));\n  }\n\n  /**\n  @notice Determines the number of tokens to awarded to the winning party in a challenge\n  @param _challengeID The challengeID to determine a reward for\n  */\n  function challengeWinnerReward(uint _challengeID) public view returns (uint) {\n    if (voting.getTotalNumberOfTokensForWinningOption(_challengeID) == 0) {\n      // Edge case, nobody voted, give all tokens to the challenger.\n      return challenges[_challengeID].stake.mul(2);\n    }\n\n    return (challenges[_challengeID].stake.mul(2)).sub(challenges[_challengeID].rewardPool);\n  }\n\n  /**\n  @notice gets the parameter keyed by the provided name value from the params mapping\n  @param _name the key whose value is to be determined\n  */\n  function get(string _name) public view returns (uint value) {\n    return params[keccak256(abi.encodePacked(_name))];\n  }\n\n  /**\n  @dev                Getter for Challenge tokenClaims mappings\n  @param _challengeID The challengeID to query\n  @param _voter       The voter whose claim status to query for the provided challengeID\n  */\n  function tokenClaims(uint _challengeID, address _voter) public view returns (bool) {\n    return challenges[_challengeID].tokenClaims[_voter];\n  }\n\n  // ----------------\n  // PRIVATE FUNCTIONS\n  // ----------------\n\n  /**\n  @dev resolves a challenge for the provided _propID. It must be checked in advance whether the _propID has a challenge on it\n  @param _propID the proposal ID whose challenge is to be resolved.\n  */\n  function resolveChallenge(bytes32 _propID) private {\n    ParamProposal memory prop = proposals[_propID];\n    Challenge storage challenge = challenges[prop.challengeID];\n\n    // winner gets back their full staked deposit, and dispensationPct*loser's stake\n    uint reward = challengeWinnerReward(prop.challengeID);\n\n    challenge.winningTokens = voting.getTotalNumberOfTokensForWinningOption(prop.challengeID);\n    challenge.resolved = true;\n\n    if (voting.isPassed(prop.challengeID)) { // The challenge failed\n      if (prop.processBy > now) {\n        set(prop.name, prop.value);\n      }\n      emit _ChallengeFailed(\n        _propID,\n        prop.challengeID,\n        challenge.rewardPool,\n        challenge.winningTokens\n      );\n\n      require(token.transfer(prop.owner, reward));\n    } else { // The challenge succeeded or nobody voted\n      emit _ChallengeSucceeded(\n        _propID,\n        prop.challengeID,\n        challenge.rewardPool,\n        challenge.winningTokens\n      );\n\n      require(token.transfer(challenges[prop.challengeID].challenger, reward));\n    }\n  }\n\n  /**\n  @dev sets the param keted by the provided name to the provided value\n  @param _name the name of the param to be set\n  @param _value the value to set the param to be set\n  */\n  function set(string _name, uint _value) private {\n    params[keccak256(abi.encodePacked(_name))] = _value;\n  }\n}\n",
  "sourcePath": "/home/bharath/computable/contracts/Parameterizer.sol",
  "compiler": {
    "name": "solc",
    "version": "0.4.24+commit.e67f0147.Emscripten.clang"
  },
  "schemaVersion": "2.0.1",
  "updatedAt": "2018-06-26T02:58:22.334Z"
}