{
  "contractName": "PLCRVoting",
  "abi": [
    {
      "constant": true,
      "inputs": [],
      "name": "INITIAL_POLL_NONCE",
      "outputs": [
        {
          "name": "",
          "type": "uint256"
        }
      ],
      "payable": false,
      "stateMutability": "view",
      "type": "function"
    },
    {
      "constant": true,
      "inputs": [
        {
          "name": "",
          "type": "address"
        }
      ],
      "name": "voteTokenBalance",
      "outputs": [
        {
          "name": "",
          "type": "uint256"
        }
      ],
      "payable": false,
      "stateMutability": "view",
      "type": "function"
    },
    {
      "constant": true,
      "inputs": [
        {
          "name": "",
          "type": "uint256"
        }
      ],
      "name": "pollMap",
      "outputs": [
        {
          "name": "commitEndDate",
          "type": "uint256"
        },
        {
          "name": "revealEndDate",
          "type": "uint256"
        },
        {
          "name": "voteQuorum",
          "type": "uint256"
        },
        {
          "name": "votesFor",
          "type": "uint256"
        },
        {
          "name": "votesAgainst",
          "type": "uint256"
        }
      ],
      "payable": false,
      "stateMutability": "view",
      "type": "function"
    },
    {
      "constant": true,
      "inputs": [],
      "name": "pollNonce",
      "outputs": [
        {
          "name": "",
          "type": "uint256"
        }
      ],
      "payable": false,
      "stateMutability": "view",
      "type": "function"
    },
    {
      "constant": true,
      "inputs": [],
      "name": "token",
      "outputs": [
        {
          "name": "",
          "type": "address"
        }
      ],
      "payable": false,
      "stateMutability": "view",
      "type": "function"
    },
    {
      "inputs": [
        {
          "name": "_tokenAddr",
          "type": "address"
        }
      ],
      "payable": false,
      "stateMutability": "nonpayable",
      "type": "constructor"
    },
    {
      "anonymous": false,
      "inputs": [
        {
          "indexed": true,
          "name": "pollID",
          "type": "uint256"
        },
        {
          "indexed": false,
          "name": "numTokens",
          "type": "uint256"
        },
        {
          "indexed": true,
          "name": "voter",
          "type": "address"
        }
      ],
      "name": "_VoteCommitted",
      "type": "event"
    },
    {
      "anonymous": false,
      "inputs": [
        {
          "indexed": true,
          "name": "pollID",
          "type": "uint256"
        },
        {
          "indexed": false,
          "name": "numTokens",
          "type": "uint256"
        },
        {
          "indexed": false,
          "name": "votesFor",
          "type": "uint256"
        },
        {
          "indexed": false,
          "name": "votesAgainst",
          "type": "uint256"
        },
        {
          "indexed": true,
          "name": "choice",
          "type": "uint256"
        },
        {
          "indexed": true,
          "name": "voter",
          "type": "address"
        }
      ],
      "name": "_VoteRevealed",
      "type": "event"
    },
    {
      "anonymous": false,
      "inputs": [
        {
          "indexed": false,
          "name": "voteQuorum",
          "type": "uint256"
        },
        {
          "indexed": false,
          "name": "commitEndDate",
          "type": "uint256"
        },
        {
          "indexed": false,
          "name": "revealEndDate",
          "type": "uint256"
        },
        {
          "indexed": true,
          "name": "pollID",
          "type": "uint256"
        },
        {
          "indexed": true,
          "name": "creator",
          "type": "address"
        }
      ],
      "name": "_PollCreated",
      "type": "event"
    },
    {
      "anonymous": false,
      "inputs": [
        {
          "indexed": false,
          "name": "numTokens",
          "type": "uint256"
        },
        {
          "indexed": true,
          "name": "voter",
          "type": "address"
        }
      ],
      "name": "_VotingRightsGranted",
      "type": "event"
    },
    {
      "anonymous": false,
      "inputs": [
        {
          "indexed": false,
          "name": "numTokens",
          "type": "uint256"
        },
        {
          "indexed": true,
          "name": "voter",
          "type": "address"
        }
      ],
      "name": "_VotingRightsWithdrawn",
      "type": "event"
    },
    {
      "anonymous": false,
      "inputs": [
        {
          "indexed": true,
          "name": "pollID",
          "type": "uint256"
        },
        {
          "indexed": true,
          "name": "voter",
          "type": "address"
        }
      ],
      "name": "_TokensRescued",
      "type": "event"
    },
    {
      "constant": false,
      "inputs": [
        {
          "name": "_numTokens",
          "type": "uint256"
        }
      ],
      "name": "requestVotingRights",
      "outputs": [],
      "payable": false,
      "stateMutability": "nonpayable",
      "type": "function"
    },
    {
      "constant": false,
      "inputs": [
        {
          "name": "_numTokens",
          "type": "uint256"
        }
      ],
      "name": "withdrawVotingRights",
      "outputs": [],
      "payable": false,
      "stateMutability": "nonpayable",
      "type": "function"
    },
    {
      "constant": false,
      "inputs": [
        {
          "name": "_pollID",
          "type": "uint256"
        }
      ],
      "name": "rescueTokens",
      "outputs": [],
      "payable": false,
      "stateMutability": "nonpayable",
      "type": "function"
    },
    {
      "constant": false,
      "inputs": [
        {
          "name": "_pollID",
          "type": "uint256"
        },
        {
          "name": "_secretHash",
          "type": "bytes32"
        },
        {
          "name": "_numTokens",
          "type": "uint256"
        },
        {
          "name": "_prevPollID",
          "type": "uint256"
        }
      ],
      "name": "commitVote",
      "outputs": [],
      "payable": false,
      "stateMutability": "nonpayable",
      "type": "function"
    },
    {
      "constant": true,
      "inputs": [
        {
          "name": "_prevID",
          "type": "uint256"
        },
        {
          "name": "_nextID",
          "type": "uint256"
        },
        {
          "name": "_voter",
          "type": "address"
        },
        {
          "name": "_numTokens",
          "type": "uint256"
        }
      ],
      "name": "validPosition",
      "outputs": [
        {
          "name": "valid",
          "type": "bool"
        }
      ],
      "payable": false,
      "stateMutability": "view",
      "type": "function"
    },
    {
      "constant": false,
      "inputs": [
        {
          "name": "_pollID",
          "type": "uint256"
        },
        {
          "name": "_voteOption",
          "type": "uint256"
        },
        {
          "name": "_salt",
          "type": "uint256"
        }
      ],
      "name": "revealVote",
      "outputs": [],
      "payable": false,
      "stateMutability": "nonpayable",
      "type": "function"
    },
    {
      "constant": true,
      "inputs": [
        {
          "name": "_voter",
          "type": "address"
        },
        {
          "name": "_pollID",
          "type": "uint256"
        },
        {
          "name": "_salt",
          "type": "uint256"
        }
      ],
      "name": "getNumPassingTokens",
      "outputs": [
        {
          "name": "correctVotes",
          "type": "uint256"
        }
      ],
      "payable": false,
      "stateMutability": "view",
      "type": "function"
    },
    {
      "constant": false,
      "inputs": [
        {
          "name": "_voteQuorum",
          "type": "uint256"
        },
        {
          "name": "_commitDuration",
          "type": "uint256"
        },
        {
          "name": "_revealDuration",
          "type": "uint256"
        }
      ],
      "name": "startPoll",
      "outputs": [
        {
          "name": "pollID",
          "type": "uint256"
        }
      ],
      "payable": false,
      "stateMutability": "nonpayable",
      "type": "function"
    },
    {
      "constant": true,
      "inputs": [
        {
          "name": "_pollID",
          "type": "uint256"
        }
      ],
      "name": "isPassed",
      "outputs": [
        {
          "name": "passed",
          "type": "bool"
        }
      ],
      "payable": false,
      "stateMutability": "view",
      "type": "function"
    },
    {
      "constant": true,
      "inputs": [
        {
          "name": "_pollID",
          "type": "uint256"
        }
      ],
      "name": "getTotalNumberOfTokensForWinningOption",
      "outputs": [
        {
          "name": "numTokens",
          "type": "uint256"
        }
      ],
      "payable": false,
      "stateMutability": "view",
      "type": "function"
    },
    {
      "constant": true,
      "inputs": [
        {
          "name": "_pollID",
          "type": "uint256"
        }
      ],
      "name": "pollEnded",
      "outputs": [
        {
          "name": "ended",
          "type": "bool"
        }
      ],
      "payable": false,
      "stateMutability": "view",
      "type": "function"
    },
    {
      "constant": true,
      "inputs": [
        {
          "name": "_pollID",
          "type": "uint256"
        }
      ],
      "name": "commitPeriodActive",
      "outputs": [
        {
          "name": "active",
          "type": "bool"
        }
      ],
      "payable": false,
      "stateMutability": "view",
      "type": "function"
    },
    {
      "constant": true,
      "inputs": [
        {
          "name": "_pollID",
          "type": "uint256"
        }
      ],
      "name": "revealPeriodActive",
      "outputs": [
        {
          "name": "active",
          "type": "bool"
        }
      ],
      "payable": false,
      "stateMutability": "view",
      "type": "function"
    },
    {
      "constant": true,
      "inputs": [
        {
          "name": "_voter",
          "type": "address"
        },
        {
          "name": "_pollID",
          "type": "uint256"
        }
      ],
      "name": "didCommit",
      "outputs": [
        {
          "name": "committed",
          "type": "bool"
        }
      ],
      "payable": false,
      "stateMutability": "view",
      "type": "function"
    },
    {
      "constant": true,
      "inputs": [
        {
          "name": "_voter",
          "type": "address"
        },
        {
          "name": "_pollID",
          "type": "uint256"
        }
      ],
      "name": "didReveal",
      "outputs": [
        {
          "name": "revealed",
          "type": "bool"
        }
      ],
      "payable": false,
      "stateMutability": "view",
      "type": "function"
    },
    {
      "constant": true,
      "inputs": [
        {
          "name": "_pollID",
          "type": "uint256"
        }
      ],
      "name": "pollExists",
      "outputs": [
        {
          "name": "exists",
          "type": "bool"
        }
      ],
      "payable": false,
      "stateMutability": "view",
      "type": "function"
    },
    {
      "constant": true,
      "inputs": [
        {
          "name": "_voter",
          "type": "address"
        },
        {
          "name": "_pollID",
          "type": "uint256"
        }
      ],
      "name": "getCommitHash",
      "outputs": [
        {
          "name": "commitHash",
          "type": "bytes32"
        }
      ],
      "payable": false,
      "stateMutability": "view",
      "type": "function"
    },
    {
      "constant": true,
      "inputs": [
        {
          "name": "_voter",
          "type": "address"
        },
        {
          "name": "_pollID",
          "type": "uint256"
        }
      ],
      "name": "getNumTokens",
      "outputs": [
        {
          "name": "numTokens",
          "type": "uint256"
        }
      ],
      "payable": false,
      "stateMutability": "view",
      "type": "function"
    },
    {
      "constant": true,
      "inputs": [
        {
          "name": "_voter",
          "type": "address"
        }
      ],
      "name": "getLastNode",
      "outputs": [
        {
          "name": "pollID",
          "type": "uint256"
        }
      ],
      "payable": false,
      "stateMutability": "view",
      "type": "function"
    },
    {
      "constant": true,
      "inputs": [
        {
          "name": "_voter",
          "type": "address"
        }
      ],
      "name": "getLockedTokens",
      "outputs": [
        {
          "name": "numTokens",
          "type": "uint256"
        }
      ],
      "payable": false,
      "stateMutability": "view",
      "type": "function"
    },
    {
      "constant": true,
      "inputs": [
        {
          "name": "_voter",
          "type": "address"
        },
        {
          "name": "_numTokens",
          "type": "uint256"
        },
        {
          "name": "_pollID",
          "type": "uint256"
        }
      ],
      "name": "getInsertPointForNumTokens",
      "outputs": [
        {
          "name": "prevNode",
          "type": "uint256"
        }
      ],
      "payable": false,
      "stateMutability": "view",
      "type": "function"
    },
    {
      "constant": true,
      "inputs": [
        {
          "name": "_terminationDate",
          "type": "uint256"
        }
      ],
      "name": "isExpired",
      "outputs": [
        {
          "name": "expired",
          "type": "bool"
        }
      ],
      "payable": false,
      "stateMutability": "view",
      "type": "function"
    },
    {
      "constant": true,
      "inputs": [
        {
          "name": "_user",
          "type": "address"
        },
        {
          "name": "_pollID",
          "type": "uint256"
        }
      ],
      "name": "attrUUID",
      "outputs": [
        {
          "name": "UUID",
          "type": "bytes32"
        }
      ],
      "payable": false,
      "stateMutability": "pure",
      "type": "function"
    }
  ],
  "bytecode": "0x608060405234801561001057600080fd5b50604051602080612a968339810180604052810190808051906020019092919050505080600560006101000a81548173ffffffffffffffffffffffffffffffffffffffff021916908373ffffffffffffffffffffffffffffffffffffffff1602179055506000808190555050612a0b8061008b6000396000f30060806040526004361061016a576000357c0100000000000000000000000000000000000000000000000000000000900463ffffffff168063053e71a61461016f5780632173a10f146101b05780632c052031146101db57806332ed3d60146102465780633b9302941461029b578063427fa1d2146102f2578063441c77c014610349578063494031831461038e5780636148fed5146103d35780636b2d95d4146104305780636cbf9c5e146104875780637f97e836146104d6578063819b02931461053b57806388d21ff3146105b457806397508f36146105f95780639760356014610624578063a1103f3714610651578063a25236fe146106ba578063a4439dc5146106e7578063aa7ca4641461072c578063b11d8bb814610791578063b43bd069146107d2578063d13820921461083d578063d901402b1461089e578063d9548e5314610907578063e7b1d43c1461094c578063ee68483014610979578063fc0c546a146109be575b600080fd5b34801561017b57600080fd5b5061019a60048036038101908080359060200190929190505050610a15565b6040518082815260200191505060405180910390f35b3480156101bc57600080fd5b506101c5610a76565b6040518082815260200191505060405180910390f35b3480156101e757600080fd5b50610230600480360381019080803573ffffffffffffffffffffffffffffffffffffffff1690602001909291908035906020019092919080359060200190929190505050610a7b565b6040518082815260200191505060405180910390f35b34801561025257600080fd5b50610285600480360381019080803590602001909291908035906020019092919080359060200190929190505050610cba565b6040518082815260200191505060405180910390f35b3480156102a757600080fd5b506102dc600480360381019080803573ffffffffffffffffffffffffffffffffffffffff169060200190929190505050610de7565b6040518082815260200191505060405180910390f35b3480156102fe57600080fd5b50610333600480360381019080803573ffffffffffffffffffffffffffffffffffffffff169060200190929190505050610dff565b6040518082815260200191505060405180910390f35b34801561035557600080fd5b5061037460048036038101908080359060200190929190505050610ef7565b604051808215151515815260200191505060405180910390f35b34801561039a57600080fd5b506103b960048036038101908080359060200190929190505050610f46565b604051808215151515815260200191505060405180910390f35b3480156103df57600080fd5b506103fe60048036038101908080359060200190929190505050611009565b604051808681526020018581526020018481526020018381526020018281526020019550505050505060405180910390f35b34801561043c57600080fd5b50610471600480360381019080803573ffffffffffffffffffffffffffffffffffffffff16906020019092919050505061103f565b6040518082815260200191505060405180910390f35b34801561049357600080fd5b506104d4600480360381019080803590602001909291908035600019169060200190929190803590602001909291908035906020019092919050505061105a565b005b3480156104e257600080fd5b50610521600480360381019080803573ffffffffffffffffffffffffffffffffffffffff16906020019092919080359060200190929190505050611733565b604051808215151515815260200191505060405180910390f35b34801561054757600080fd5b5061059a6004803603810190808035906020019092919080359060200190929190803573ffffffffffffffffffffffffffffffffffffffff169060200190929190803590602001909291905050506117b2565b604051808215151515815260200191505060405180910390f35b3480156105c057600080fd5b506105df600480360381019080803590602001909291905050506117f6565b604051808215151515815260200191505060405180910390f35b34801561060557600080fd5b5061060e611811565b6040518082815260200191505060405180910390f35b34801561063057600080fd5b5061064f60048036038101908080359060200190929190505050611817565b005b34801561065d57600080fd5b5061069c600480360381019080803573ffffffffffffffffffffffffffffffffffffffff16906020019092919080359060200190929190505050611a4c565b60405180826000191660001916815260200191505060405180910390f35b3480156106c657600080fd5b506106e560048036038101908080359060200190929190505050611b1b565b005b3480156106f357600080fd5b5061071260048036038101908080359060200190929190505050611e46565b604051808215151515815260200191505060405180910390f35b34801561073857600080fd5b50610777600480360381019080803573ffffffffffffffffffffffffffffffffffffffff16906020019092919080359060200190929190505050611e83565b604051808215151515815260200191505060405180910390f35b34801561079d57600080fd5b506107d0600480360381019080803590602001909291908035906020019092919080359060200190929190505050611f02565b005b3480156107de57600080fd5b50610827600480360381019080803573ffffffffffffffffffffffffffffffffffffffff1690602001909291908035906020019092919080359060200190929190505050612302565b6040518082815260200191505060405180910390f35b34801561084957600080fd5b50610888600480360381019080803573ffffffffffffffffffffffffffffffffffffffff16906020019092919080359060200190929190505050612468565b6040518082815260200191505060405180910390f35b3480156108aa57600080fd5b506108e9600480360381019080803573ffffffffffffffffffffffffffffffffffffffff1690602001909291908035906020019092919050505061256d565b60405180826000191660001916815260200191505060405180910390f35b34801561091357600080fd5b5061093260048036038101908080359060200190929190505050612675565b604051808215151515815260200191505060405180910390f35b34801561095857600080fd5b5061097760048036038101908080359060200190929190505050612681565b005b34801561098557600080fd5b506109a4600480360381019080803590602001909291905050506128e0565b604051808215151515815260200191505060405180910390f35b3480156109ca57600080fd5b506109d361291c565b604051808273ffffffffffffffffffffffffffffffffffffffff1673ffffffffffffffffffffffffffffffffffffffff16815260200191505060405180910390f35b6000610a20826128e0565b1515610a2b57600080fd5b610a3482610f46565b15610a575760016000838152602001908152602001600020600301549050610a71565b600160008381526020019081526020016000206004015490505b919050565b600081565b6000806000610a8986610dff565b9150610a958683612468565b90505b600082141515610cad57610aac8683612468565b90508481111515610bb85783821415610bb057600360008773ffffffffffffffffffffffffffffffffffffffff1673ffffffffffffffffffffffffffffffffffffffff16815260200190815260200160002073__DLL___________________________________6330fe0a0a9091846040518363ffffffff167c0100000000000000000000000000000000000000000000000000000000028152600401808381526020018281526020019250505060206040518083038186803b158015610b7257600080fd5b505af4158015610b86573d6000803e3d6000fd5b505050506040513d6020811015610b9c57600080fd5b810190808051906020019092919050505091505b819250610cb1565b600360008773ffffffffffffffffffffffffffffffffffffffff1673ffffffffffffffffffffffffffffffffffffffff16815260200190815260200160002073__DLL___________________________________6330fe0a0a9091846040518363ffffffff167c0100000000000000000000000000000000000000000000000000000000028152600401808381526020018281526020019250505060206040518083038186803b158015610c6b57600080fd5b505af4158015610c7f573d6000803e3d6000fd5b505050506040513d6020811015610c9557600080fd5b81019080805190602001909291905050509150610a98565b8192505b50509392505050565b6000806000610cd5600160005461294290919063ffffffff16565b600081905550610cee854261294290919063ffffffff16565b9150610d03848361294290919063ffffffff16565b905060a060405190810160405280838152602001828152602001878152602001600081526020016000815250600160008054815260200190815260200160002060008201518160000155602082015181600101556040820151816002015560608201518160030155608082015181600401559050503373ffffffffffffffffffffffffffffffffffffffff166000547f404f1f1c229d9eb2a949e7584da6ffde9d059ef2169f487ca815434cce0640d088858560405180848152602001838152602001828152602001935050505060405180910390a3600054925050509392505050565b60026020528060005260406000206000915090505481565b6000600360008373ffffffffffffffffffffffffffffffffffffffff1673ffffffffffffffffffffffffffffffffffffffff16815260200190815260200160002073__DLL___________________________________6330fe0a0a909160006040518363ffffffff167c0100000000000000000000000000000000000000000000000000000000028152600401808381526020018281526020019250505060206040518083038186803b158015610eb557600080fd5b505af4158015610ec9573d6000803e3d6000fd5b505050506040513d6020811015610edf57600080fd5b81019080805190602001909291905050509050919050565b6000610f02826117f6565b1515610f0d57600080fd5b610f2c6001600084815260200190815260200160002060010154612675565b158015610f3f5750610f3d82611e46565b155b9050919050565b6000610f506129af565b610f59836128e0565b1515610f6457600080fd5b6001600084815260200190815260200160002060a06040519081016040529081600082015481526020016001820154815260200160028201548152602001600382015481526020016004820154815250509050610fe8610fd58260800151836060015161294290919063ffffffff16565b826040015161295e90919063ffffffff16565b6110006064836060015161295e90919063ffffffff16565b11915050919050565b60016020528060005260406000206000915090508060000154908060010154908060020154908060030154908060040154905085565b60006110538261104e84610dff565b612468565b9050919050565b60008061106686611e46565b151561107157600080fd5b83600260003373ffffffffffffffffffffffffffffffffffffffff1673ffffffffffffffffffffffffffffffffffffffff16815260200190815260200160002054101515156110bf57600080fd5b600086141515156110cf57600080fd5b60008314806111c85750600360003373ffffffffffffffffffffffffffffffffffffffff1673ffffffffffffffffffffffffffffffffffffffff16815260200190815260200160002073__DLL___________________________________63366a5ba29091856040518363ffffffff167c0100000000000000000000000000000000000000000000000000000000028152600401808381526020018281526020019250505060206040518083038186803b15801561118c57600080fd5b505af41580156111a0573d6000803e3d6000fd5b505050506040513d60208110156111b657600080fd5b81019080805190602001909291905050505b15156111d357600080fd5b600360003373ffffffffffffffffffffffffffffffffffffffff1673ffffffffffffffffffffffffffffffffffffffff16815260200190815260200160002073__DLL___________________________________6307d29ac99091856040518363ffffffff167c0100000000000000000000000000000000000000000000000000000000028152600401808381526020018281526020019250505060206040518083038186803b15801561128657600080fd5b505af415801561129a573d6000803e3d6000fd5b505050506040513d60208110156112b057600080fd5b810190808051906020019092919050505091508582146112d057816113bf565b600360003373ffffffffffffffffffffffffffffffffffffffff1673ffffffffffffffffffffffffffffffffffffffff16815260200190815260200160002073__DLL___________________________________6307d29ac99091886040518363ffffffff167c0100000000000000000000000000000000000000000000000000000000028152600401808381526020018281526020019250505060206040518083038186803b15801561138357600080fd5b505af4158015611397573d6000803e3d6000fd5b505050506040513d60208110156113ad57600080fd5b81019080805190602001909291905050505b91506113cd838333876117b2565b15156113d857600080fd5b600360003373ffffffffffffffffffffffffffffffffffffffff1673ffffffffffffffffffffffffffffffffffffffff16815260200190815260200160002073__DLL___________________________________639735c51b90918589866040518563ffffffff167c01000000000000000000000000000000000000000000000000000000000281526004018085815260200184815260200183815260200182815260200194505050505060006040518083038186803b15801561149b57600080fd5b505af41580156114af573d6000803e3d6000fd5b505050506114bd3387611a4c565b9050600473__AttributeStore________________________63977aa031909183876040518463ffffffff167c010000000000000000000000000000000000000000000000000000000002815260040180848152602001836000191660001916815260200180602001838152602001828103825260098152602001807f6e756d546f6b656e73000000000000000000000000000000000000000000000081525060200194505050505060006040518083038186803b15801561157e57600080fd5b505af4158015611592573d6000803e3d6000fd5b50505050600473__AttributeStore________________________63977aa03190918388600190046040518463ffffffff167c0100000000000000000000000000000000000000000000000000000000028152600401808481526020018360001916600019168152602001806020018381526020018281038252600a8152602001807f636f6d6d6974486173680000000000000000000000000000000000000000000081525060200194505050505060006040518083038186803b15801561165957600080fd5b505af415801561166d573d6000803e3d6000fd5b50505050600180600088815260200190815260200160002060050160003373ffffffffffffffffffffffffffffffffffffffff1673ffffffffffffffffffffffffffffffffffffffff16815260200190815260200160002060006101000a81548160ff0219169083151502179055503373ffffffffffffffffffffffffffffffffffffffff16867fea7979e4280d7e6bffc1c7d83a1ac99f16d02ecc14465ce41016226783b663d7866040518082815260200191505060405180910390a3505050505050565b600061173e826117f6565b151561174957600080fd5b6001600083815260200190815260200160002060050160008473ffffffffffffffffffffffffffffffffffffffff1673ffffffffffffffffffffffffffffffffffffffff16815260200190815260200160002060009054906101000a900460ff16905092915050565b60008060006117c18588612468565b84101591506117d08587612468565b841115806117de5750600086145b90508180156117ea5750805b92505050949350505050565b600080821415801561180a57506000548211155b9050919050565b60005481565b6118366001600083815260200190815260200160002060010154612675565b151561184157600080fd5b600360003373ffffffffffffffffffffffffffffffffffffffff1673ffffffffffffffffffffffffffffffffffffffff16815260200190815260200160002073__DLL___________________________________63366a5ba29091836040518363ffffffff167c0100000000000000000000000000000000000000000000000000000000028152600401808381526020018281526020019250505060206040518083038186803b1580156118f457600080fd5b505af4158015611908573d6000803e3d6000fd5b505050506040513d602081101561191e57600080fd5b8101908080519060200190929190505050151561193a57600080fd5b600360003373ffffffffffffffffffffffffffffffffffffffff1673ffffffffffffffffffffffffffffffffffffffff16815260200190815260200160002073__DLL___________________________________636d900ed09091836040518363ffffffff167c0100000000000000000000000000000000000000000000000000000000028152600401808381526020018281526020019250505060006040518083038186803b1580156119ed57600080fd5b505af4158015611a01573d6000803e3d6000fd5b505050503373ffffffffffffffffffffffffffffffffffffffff16817f402507661c8c8cb90e0a796450b8bdd28b6c516f05279c0cd29e84c344e1699a60405160405180910390a350565b60008282604051602001808373ffffffffffffffffffffffffffffffffffffffff1673ffffffffffffffffffffffffffffffffffffffff166c01000000000000000000000000028152601401828152602001925050506040516020818303038152906040526040518082805190602001908083835b602083101515611ae65780518252602082019150602081019050602083039250611ac1565b6001836020036101000a0380198251168184511680821785525050505050509050019150506040518091039020905092915050565b80600560009054906101000a900473ffffffffffffffffffffffffffffffffffffffff1673ffffffffffffffffffffffffffffffffffffffff166370a08231336040518263ffffffff167c0100000000000000000000000000000000000000000000000000000000028152600401808273ffffffffffffffffffffffffffffffffffffffff1673ffffffffffffffffffffffffffffffffffffffff168152602001915050602060405180830381600087803b158015611bd957600080fd5b505af1158015611bed573d6000803e3d6000fd5b505050506040513d6020811015611c0357600080fd5b810190808051906020019092919050505010151515611c2157600080fd5b611c7381600260003373ffffffffffffffffffffffffffffffffffffffff1673ffffffffffffffffffffffffffffffffffffffff1681526020019081526020016000205461294290919063ffffffff16565b600260003373ffffffffffffffffffffffffffffffffffffffff1673ffffffffffffffffffffffffffffffffffffffff16815260200190815260200160002081905550600560009054906101000a900473ffffffffffffffffffffffffffffffffffffffff1673ffffffffffffffffffffffffffffffffffffffff166323b872dd3330846040518463ffffffff167c0100000000000000000000000000000000000000000000000000000000028152600401808473ffffffffffffffffffffffffffffffffffffffff1673ffffffffffffffffffffffffffffffffffffffff1681526020018373ffffffffffffffffffffffffffffffffffffffff1673ffffffffffffffffffffffffffffffffffffffff1681526020018281526020019350505050602060405180830381600087803b158015611daf57600080fd5b505af1158015611dc3573d6000803e3d6000fd5b505050506040513d6020811015611dd957600080fd5b81019080805190602001909291905050501515611df557600080fd5b3373ffffffffffffffffffffffffffffffffffffffff167ff7aaf024511d9982df8cd0d437c71c30106e6848cd1ba3d288d7a9c0e276aeda826040518082815260200191505060405180910390a250565b6000611e51826117f6565b1515611e5c57600080fd5b611e7b6001600084815260200190815260200160002060000154612675565b159050919050565b6000611e8e826117f6565b1515611e9957600080fd5b6001600083815260200190815260200160002060060160008473ffffffffffffffffffffffffffffffffffffffff1673ffffffffffffffffffffffffffffffffffffffff16815260200190815260200160002060009054906101000a900460ff16905092915050565b6000611f0d84610ef7565b1515611f1857600080fd5b6001600085815260200190815260200160002060050160003373ffffffffffffffffffffffffffffffffffffffff1673ffffffffffffffffffffffffffffffffffffffff16815260200190815260200160002060009054906101000a900460ff161515611f8457600080fd5b6001600085815260200190815260200160002060060160003373ffffffffffffffffffffffffffffffffffffffff1673ffffffffffffffffffffffffffffffffffffffff16815260200190815260200160002060009054906101000a900460ff16151515611ff157600080fd5b611ffb338561256d565b60001916838360405160200180838152602001828152602001925050506040516020818303038152906040526040518082805190602001908083835b60208310151561205c5780518252602082019150602081019050602083039250612037565b6001836020036101000a03801982511681845116808217855250505050505090500191505060405180910390206000191614151561209957600080fd5b6120a33385612468565b905060018314156120f6576120d781600160008781526020019081526020016000206003015461294290919063ffffffff16565b600160008681526020019081526020016000206003018190555061213a565b61211f81600160008781526020019081526020016000206004015461294290919063ffffffff16565b60016000868152602001908152602001600020600401819055505b600360003373ffffffffffffffffffffffffffffffffffffffff1673ffffffffffffffffffffffffffffffffffffffff16815260200190815260200160002073__DLL___________________________________636d900ed09091866040518363ffffffff167c0100000000000000000000000000000000000000000000000000000000028152600401808381526020018281526020019250505060006040518083038186803b1580156121ed57600080fd5b505af4158015612201573d6000803e3d6000fd5b50505050600180600086815260200190815260200160002060060160003373ffffffffffffffffffffffffffffffffffffffff1673ffffffffffffffffffffffffffffffffffffffff16815260200190815260200160002060006101000a81548160ff0219169083151502179055503373ffffffffffffffffffffffffffffffffffffffff1683857ff42c78852433ace4bdcb44f6e80c8daae529e2d999c88cf6bf8f77b1e2890fdd84600160008a815260200190815260200160002060030154600160008b81526020019081526020016000206004015460405180848152602001838152602001828152602001935050505060405180910390a450505050565b600080600080612311866128e0565b151561231c57600080fd5b6001600087815260200190815260200160002060060160008873ffffffffffffffffffffffffffffffffffffffff1673ffffffffffffffffffffffffffffffffffffffff16815260200190815260200160002060009054906101000a900460ff16151561238857600080fd5b61239186610f46565b61239c57600061239f565b60015b60ff169250828560405160200180838152602001828152602001925050506040516020818303038152906040526040518082805190602001908083835b60208310151561240157805182526020820191506020810190506020830392506123dc565b6001836020036101000a0380198251168184511680821785525050505050509050019150506040518091039020915061243a878761256d565b90508060001916826000191614151561245257600080fd5b61245c8787612468565b93505050509392505050565b6000600473__AttributeStore________________________6350389f5c90916124928686611a4c565b6040518363ffffffff167c010000000000000000000000000000000000000000000000000000000002815260040180838152602001826000191660001916815260200180602001828103825260098152602001807f6e756d546f6b656e730000000000000000000000000000000000000000000000815250602001935050505060206040518083038186803b15801561252a57600080fd5b505af415801561253e573d6000803e3d6000fd5b505050506040513d602081101561255457600080fd5b8101908080519060200190929190505050905092915050565b6000600473__AttributeStore________________________6350389f5c90916125978686611a4c565b6040518363ffffffff167c0100000000000000000000000000000000000000000000000000000000028152600401808381526020018260001916600019168152602001806020018281038252600a8152602001807f636f6d6d69744861736800000000000000000000000000000000000000000000815250602001935050505060206040518083038186803b15801561262f57600080fd5b505af4158015612643573d6000803e3d6000fd5b505050506040513d602081101561265957600080fd5b8101908080519060200190929190505050600102905092915050565b60008142119050919050565b60006126dd61268f3361103f565b600260003373ffffffffffffffffffffffffffffffffffffffff1673ffffffffffffffffffffffffffffffffffffffff1681526020019081526020016000205461299690919063ffffffff16565b90508181101515156126ee57600080fd5b61274082600260003373ffffffffffffffffffffffffffffffffffffffff1673ffffffffffffffffffffffffffffffffffffffff1681526020019081526020016000205461299690919063ffffffff16565b600260003373ffffffffffffffffffffffffffffffffffffffff1673ffffffffffffffffffffffffffffffffffffffff16815260200190815260200160002081905550600560009054906101000a900473ffffffffffffffffffffffffffffffffffffffff1673ffffffffffffffffffffffffffffffffffffffff1663a9059cbb33846040518363ffffffff167c0100000000000000000000000000000000000000000000000000000000028152600401808373ffffffffffffffffffffffffffffffffffffffff1673ffffffffffffffffffffffffffffffffffffffff16815260200182815260200192505050602060405180830381600087803b15801561284857600080fd5b505af115801561285c573d6000803e3d6000fd5b505050506040513d602081101561287257600080fd5b8101908080519060200190929190505050151561288e57600080fd5b3373ffffffffffffffffffffffffffffffffffffffff167ffaeb7dbb9992397d26ea1944efd40c80b40f702faf69b46c67ad10aba68ccb79836040518082815260200191505060405180910390a25050565b60006128eb826117f6565b15156128f657600080fd5b6129156001600084815260200190815260200160002060010154612675565b9050919050565b600560009054906101000a900473ffffffffffffffffffffffffffffffffffffffff1681565b6000818301905082811015151561295557fe5b80905092915050565b6000808314156129715760009050612990565b818302905081838281151561298257fe5b0414151561298c57fe5b8090505b92915050565b60008282111515156129a457fe5b818303905092915050565b60a060405190810160405280600081526020016000815260200160008152602001600081526020016000815250905600a165627a7a723058201cd3a8cbd7f31674af7a9ae191ba88b170de90cb368e32a00147cb13d07995410029",
  "source": "pragma solidity 0.4.24;\r\n\r\nimport \"./ERC20.sol\";\r\nimport \"./DLL.sol\";\r\nimport \"./AttributeStore.sol\";\r\nimport \"./SafeMath.sol\";\r\n\r\n\r\n/**\r\n@title Partial-Lock-Commit-Reveal Voting scheme with ERC20 tokens\r\n@author Team: Aspyn Palatnick, Cem Ozer, Yorke Rhodes\r\n*/\r\ncontract PLCRVoting {\r\n\r\n  // ============\r\n  // EVENTS:\r\n  // ============\r\n\r\n  event _VoteCommitted(uint indexed pollID, uint numTokens, address indexed voter);\r\n  event _VoteRevealed(uint indexed pollID, uint numTokens, uint votesFor, uint votesAgainst, uint indexed choice, address indexed voter);\r\n  event _PollCreated(uint voteQuorum, uint commitEndDate, uint revealEndDate, uint indexed pollID, address indexed creator);\r\n  event _VotingRightsGranted(uint numTokens, address indexed voter);\r\n  event _VotingRightsWithdrawn(uint numTokens, address indexed voter);\r\n  event _TokensRescued(uint indexed pollID, address indexed voter);\r\n\r\n  // ============\r\n  // DATA STRUCTURES:\r\n  // ============\r\n\r\n  using AttributeStore for AttributeStore.Data;\r\n  using DLL for DLL.Data;\r\n  using SafeMath for uint;\r\n\r\n  struct Poll {\r\n    uint commitEndDate;     /// expiration date of commit period for poll\r\n    uint revealEndDate;     /// expiration date of reveal period for poll\r\n    uint voteQuorum;    /// number of votes required for a proposal to pass\r\n    uint votesFor;    /// tally of votes supporting proposal\r\n    uint votesAgainst;      /// tally of votes countering proposal\r\n    mapping(address => bool) didCommit;  /// indicates whether an address committed a vote for this poll\r\n    mapping(address => bool) didReveal;   /// indicates whether an address revealed a vote for this poll\r\n  }\r\n\r\n  // ============\r\n  // STATE VARIABLES:\r\n  // ============\r\n\r\n  uint constant public INITIAL_POLL_NONCE = 0;\r\n  uint public pollNonce;\r\n\r\n  mapping(uint => Poll) public pollMap; // maps pollID to Poll struct\r\n  mapping(address => uint) public voteTokenBalance; // maps user's address to voteToken balance\r\n\r\n  mapping(address => DLL.Data) dllMap;\r\n  AttributeStore.Data store;\r\n\r\n  ERC20 public token;\r\n\r\n  // ============\r\n  // CONSTRUCTOR:\r\n  // ============\r\n\r\n  /**\r\n  @dev Initializes voteQuorum, commitDuration, revealDuration, and pollNonce in addition to token contract and trusted mapping\r\n  @param _tokenAddr The address where the ERC20 token contract is deployed\r\n  */\r\n  constructor(address _tokenAddr) public {\r\n    token = ERC20(_tokenAddr);\r\n    pollNonce = INITIAL_POLL_NONCE;\r\n  }\r\n\r\n  // ================\r\n  // TOKEN INTERFACE:\r\n  // ================\r\n\r\n  /**\r\n  @notice Loads _numTokens ERC20 tokens into the voting contract for one-to-one voting rights\r\n  @dev Assumes that msg.sender has approved voting contract to spend on their behalf\r\n  @param _numTokens The number of votingTokens desired in exchange for ERC20 tokens\r\n  */\r\n  function requestVotingRights(uint _numTokens) external {\r\n    require(token.balanceOf(msg.sender) >= _numTokens);\r\n    voteTokenBalance[msg.sender] = voteTokenBalance[msg.sender].add(_numTokens);\r\n    require(token.transferFrom(msg.sender, this, _numTokens));\r\n    emit _VotingRightsGranted(_numTokens, msg.sender);\r\n  }\r\n\r\n  /**\r\n  @notice Withdraw _numTokens ERC20 tokens from the voting contract, revoking these voting rights\r\n  @param _numTokens The number of ERC20 tokens desired in exchange for voting rights\r\n  */\r\n  function withdrawVotingRights(uint _numTokens) external {\r\n    uint availableTokens = voteTokenBalance[msg.sender].sub(getLockedTokens(msg.sender));\r\n    require(availableTokens >= _numTokens);\r\n    voteTokenBalance[msg.sender] = voteTokenBalance[msg.sender].sub(_numTokens);\r\n    require(token.transfer(msg.sender, _numTokens));\r\n    emit _VotingRightsWithdrawn(_numTokens, msg.sender);\r\n  }\r\n\r\n  /**\r\n  @dev Unlocks tokens locked in unrevealed vote where poll has ended\r\n  @param _pollID Integer identifier associated with the target poll\r\n  */\r\n  function rescueTokens(uint _pollID) external {\r\n    require(isExpired(pollMap[_pollID].revealEndDate));\r\n    require(dllMap[msg.sender].contains(_pollID));\r\n\r\n    dllMap[msg.sender].remove(_pollID);\r\n    emit _TokensRescued(_pollID, msg.sender);\r\n  }\r\n\r\n  // =================\r\n  // VOTING INTERFACE:\r\n  // =================\r\n\r\n  /**\r\n  @notice Commits vote using hash of choice and secret salt to conceal vote until reveal\r\n  @param _pollID Integer identifier associated with target poll\r\n  @param _secretHash Commit keccak256 hash of voter's choice and salt (tightly packed in this order)\r\n  @param _numTokens The number of tokens to be committed towards the target poll\r\n  @param _prevPollID The ID of the poll that the user has voted the maximum number of tokens in which is still less than or equal to numTokens\r\n  */\r\n  function commitVote(\r\n    uint _pollID,\r\n    bytes32 _secretHash,\r\n    uint _numTokens,\r\n    uint _prevPollID\r\n  ) external\r\n  {\r\n    require(commitPeriodActive(_pollID));\r\n    require(voteTokenBalance[msg.sender] >= _numTokens); // prevent user from overspending\r\n    require(_pollID != 0);                // prevent user from committing to zero node placeholder\r\n\r\n    // Check if _prevPollID exists in the user's DLL or if _prevPollID is 0\r\n    require(_prevPollID == 0 || dllMap[msg.sender].contains(_prevPollID));\r\n\r\n    uint nextPollID = dllMap[msg.sender].getNext(_prevPollID);\r\n\r\n    // if nextPollID is equal to _pollID, _pollID is being updated,\r\n    nextPollID = (nextPollID == _pollID) ? dllMap[msg.sender].getNext(_pollID) : nextPollID;\r\n\r\n    require(\r\n      validPosition(\r\n        _prevPollID,\r\n        nextPollID, \r\n        msg.sender,\r\n        _numTokens\r\n      )\r\n    );\r\n\r\n    dllMap[msg.sender].insert(_prevPollID, _pollID, nextPollID);\r\n\r\n    bytes32 UUID = attrUUID(msg.sender, _pollID);\r\n\r\n    store.setAttribute(UUID, \"numTokens\", _numTokens);\r\n    store.setAttribute(UUID, \"commitHash\", uint(_secretHash));\r\n\r\n    pollMap[_pollID].didCommit[msg.sender] = true;\r\n    emit _VoteCommitted(_pollID, _numTokens, msg.sender);\r\n  }\r\n\r\n  /**\r\n  @dev Compares previous and next poll's committed tokens for sorting purposes\r\n  @param _prevID Integer identifier associated with previous poll in sorted order\r\n  @param _nextID Integer identifier associated with next poll in sorted order\r\n  @param _voter Address of user to check DLL position for\r\n  @param _numTokens The number of tokens to be committed towards the poll (used for sorting)\r\n  @return valid Boolean indication of if the specified position maintains the sort\r\n  */\r\n  function validPosition(\r\n    uint _prevID,\r\n    uint _nextID,\r\n    address _voter,\r\n    uint _numTokens\r\n  ) public view returns (bool valid)\r\n  {\r\n    bool prevValid = (_numTokens >= getNumTokens(_voter, _prevID));\r\n    // if next is zero node, _numTokens does not need to be greater\r\n    bool nextValid = (_numTokens <= getNumTokens(_voter, _nextID) || _nextID == 0);\r\n    return prevValid && nextValid;\r\n  }\r\n\r\n  /**\r\n  @notice Reveals vote with choice and secret salt used in generating commitHash to attribute committed tokens\r\n  @param _pollID Integer identifier associated with target poll\r\n  @param _voteOption Vote choice used to generate commitHash for associated poll\r\n  @param _salt Secret number used to generate commitHash for associated poll\r\n  */\r\n  function revealVote(uint _pollID, uint _voteOption, uint _salt) external {\r\n    // Make sure the reveal period is active\r\n    require(revealPeriodActive(_pollID));\r\n    require(pollMap[_pollID].didCommit[msg.sender]);                         // make sure user has committed a vote for this poll\r\n    require(!pollMap[_pollID].didReveal[msg.sender]);                        // prevent user from revealing multiple times\r\n    require(keccak256(abi.encodePacked(_voteOption, _salt)) == getCommitHash(msg.sender, _pollID)); // compare resultant hash from inputs to original commitHash\r\n\r\n    uint numTokens = getNumTokens(msg.sender, _pollID);\r\n\r\n    if (_voteOption == 1) {// apply numTokens to appropriate poll choice\r\n      pollMap[_pollID].votesFor = pollMap[_pollID].votesFor.add(numTokens);\r\n    } else {\r\n      pollMap[_pollID].votesAgainst = pollMap[_pollID].votesAgainst.add(numTokens);\r\n    }\r\n\r\n    dllMap[msg.sender].remove(_pollID); // remove the node referring to this vote upon reveal\r\n    pollMap[_pollID].didReveal[msg.sender] = true;\r\n\r\n    emit _VoteRevealed(\r\n      _pollID,\r\n      numTokens,\r\n      pollMap[_pollID].votesFor,\r\n      pollMap[_pollID].votesAgainst,\r\n      _voteOption, msg.sender\r\n    );\r\n  }\r\n\r\n  /**\r\n  @param _pollID Integer identifier associated with target poll\r\n  @param _salt Arbitrarily chosen integer used to generate secretHash\r\n  @return correctVotes Number of tokens voted for winning option\r\n  */\r\n  function getNumPassingTokens(address _voter, uint _pollID, uint _salt) public view returns (uint correctVotes) {\r\n    require(pollEnded(_pollID));\r\n    require(pollMap[_pollID].didReveal[_voter]);\r\n\r\n    uint winningChoice = isPassed(_pollID) ? 1 : 0;\r\n    bytes32 winnerHash = keccak256(abi.encodePacked(winningChoice, _salt));\r\n    bytes32 commitHash = getCommitHash(_voter, _pollID);\r\n\r\n    require(winnerHash == commitHash);\r\n\r\n    return getNumTokens(_voter, _pollID);\r\n  }\r\n\r\n  // ==================\r\n  // POLLING INTERFACE:\r\n  // ==================\r\n\r\n  /**\r\n  @dev Initiates a poll with canonical configured parameters at pollID emitted by PollCreated event\r\n  @param _voteQuorum Type of majority (out of 100) that is necessary for poll to be successful\r\n  @param _commitDuration Length of desired commit period in seconds\r\n  @param _revealDuration Length of desired reveal period in seconds\r\n  */\r\n  function startPoll(uint _voteQuorum, uint _commitDuration, uint _revealDuration) public returns (uint pollID) {\r\n    pollNonce = pollNonce.add(1);\r\n\r\n    uint commitEndDate = block.timestamp.add(_commitDuration);\r\n    uint revealEndDate = commitEndDate.add(_revealDuration);\r\n\r\n    pollMap[pollNonce] = Poll({\r\n      voteQuorum: _voteQuorum,\r\n      commitEndDate: commitEndDate,\r\n      revealEndDate: revealEndDate,\r\n      votesFor: 0,\r\n      votesAgainst: 0\r\n    });\r\n\r\n    emit _PollCreated(\r\n      _voteQuorum,\r\n      commitEndDate,\r\n      revealEndDate,\r\n      pollNonce,\r\n      msg.sender\r\n    );\r\n\r\n    return pollNonce;\r\n  }\r\n\r\n  /**\r\n  @notice Determines if proposal has passed\r\n  @dev Check if votesFor out of totalVotes exceeds votesQuorum (requires pollEnded)\r\n  @param _pollID Integer identifier associated with target poll\r\n  */\r\n  function isPassed(uint _pollID) view public returns (bool passed) {\r\n    require(pollEnded(_pollID));\r\n\r\n    Poll memory poll = pollMap[_pollID];\r\n    return (poll.votesFor.mul(100)) > (poll.voteQuorum.mul(poll.votesFor.add(poll.votesAgainst)));\r\n  }\r\n\r\n  // ----------------\r\n  // POLLING HELPERS:\r\n  // ----------------\r\n\r\n  /**\r\n  @dev Gets the total winning votes for reward distribution purposes\r\n  @param _pollID Integer identifier associated with target poll\r\n  @return Total number of votes committed to the winning option for specified poll\r\n  */\r\n  function getTotalNumberOfTokensForWinningOption(uint _pollID) view public returns (uint numTokens) {\r\n    require(pollEnded(_pollID));\r\n\r\n    if (isPassed(_pollID))\r\n      return pollMap[_pollID].votesFor;\r\n    else\r\n      return pollMap[_pollID].votesAgainst;\r\n  }\r\n\r\n  /**\r\n  @notice Determines if poll is over\r\n  @dev Checks isExpired for specified poll's revealEndDate\r\n  @return Boolean indication of whether polling period is over\r\n  */\r\n  function pollEnded(uint _pollID) view public returns (bool ended) {\r\n    require(pollExists(_pollID));\r\n\r\n    return isExpired(pollMap[_pollID].revealEndDate);\r\n  }\r\n\r\n  /**\r\n  @notice Checks if the commit period is still active for the specified poll\r\n  @dev Checks isExpired for the specified poll's commitEndDate\r\n  @param _pollID Integer identifier associated with target poll\r\n  @return Boolean indication of isCommitPeriodActive for target poll\r\n  */\r\n  function commitPeriodActive(uint _pollID) view public returns (bool active) {\r\n    require(pollExists(_pollID));\r\n\r\n    return !isExpired(pollMap[_pollID].commitEndDate);\r\n  }\r\n\r\n  /**\r\n  @notice Checks if the reveal period is still active for the specified poll\r\n  @dev Checks isExpired for the specified poll's revealEndDate\r\n  @param _pollID Integer identifier associated with target poll\r\n  */\r\n  function revealPeriodActive(uint _pollID) view public returns (bool active) {\r\n    require(pollExists(_pollID));\r\n\r\n    return !isExpired(pollMap[_pollID].revealEndDate) && !commitPeriodActive(_pollID);\r\n  }\r\n\r\n  /**\r\n  @dev Checks if user has committed for specified poll\r\n  @param _voter Address of user to check against\r\n  @param _pollID Integer identifier associated with target poll\r\n  @return Boolean indication of whether user has committed\r\n  */\r\n  function didCommit(address _voter, uint _pollID) view public returns (bool committed) {\r\n    require(pollExists(_pollID));\r\n\r\n    return pollMap[_pollID].didCommit[_voter];\r\n  }\r\n\r\n  /**\r\n  @dev Checks if user has revealed for specified poll\r\n  @param _voter Address of user to check against\r\n  @param _pollID Integer identifier associated with target poll\r\n  @return Boolean indication of whether user has revealed\r\n  */\r\n  function didReveal(address _voter, uint _pollID) view public returns (bool revealed) {\r\n    require(pollExists(_pollID));\r\n\r\n    return pollMap[_pollID].didReveal[_voter];\r\n  }\r\n\r\n  /**\r\n  @dev Checks if a poll exists\r\n  @param _pollID The pollID whose existance is to be evaluated.\r\n  @return Boolean Indicates whether a poll exists for the provided pollID\r\n  */\r\n  function pollExists(uint _pollID) view public returns (bool exists) {\r\n    return (_pollID != 0 && _pollID <= pollNonce);\r\n  }\r\n\r\n  // ---------------------------\r\n  // DOUBLE-LINKED-LIST HELPERS:\r\n  // ---------------------------\r\n\r\n  /**\r\n  @dev Gets the bytes32 commitHash property of target poll\r\n  @param _voter Address of user to check against\r\n  @param _pollID Integer identifier associated with target poll\r\n  @return Bytes32 hash property attached to target poll\r\n  */\r\n  function getCommitHash(address _voter, uint _pollID) view public returns (bytes32 commitHash) {\r\n    return bytes32(store.getAttribute(attrUUID(_voter, _pollID), \"commitHash\"));\r\n  }\r\n\r\n  /**\r\n  @dev Wrapper for getAttribute with attrName=\"numTokens\"\r\n  @param _voter Address of user to check against\r\n  @param _pollID Integer identifier associated with target poll\r\n  @return Number of tokens committed to poll in sorted poll-linked-list\r\n  */\r\n  function getNumTokens(address _voter, uint _pollID) view public returns (uint numTokens) {\r\n    return store.getAttribute(attrUUID(_voter, _pollID), \"numTokens\");\r\n  }\r\n\r\n  /**\r\n  @dev Gets top element of sorted poll-linked-list\r\n  @param _voter Address of user to check against\r\n  @return Integer identifier to poll with maximum number of tokens committed to it\r\n  */\r\n  function getLastNode(address _voter) view public returns (uint pollID) {\r\n    return dllMap[_voter].getPrev(0);\r\n  }\r\n\r\n  /**\r\n  @dev Gets the numTokens property of getLastNode\r\n  @param _voter Address of user to check against\r\n  @return Maximum number of tokens committed in poll specified\r\n  */\r\n  function getLockedTokens(address _voter) view public returns (uint numTokens) {\r\n    return getNumTokens(_voter, getLastNode(_voter));\r\n  }\r\n\r\n  /*\r\n  @dev Takes the last node in the user's DLL and iterates backwards through the list searching\r\n  for a node with a value less than or equal to the provided _numTokens value. When such a node\r\n  is found, if the provided _pollID matches the found nodeID, this operation is an in-place\r\n  update. In that case, return the previous node of the node being updated. Otherwise return the\r\n  first node that was found with a value less than or equal to the provided _numTokens.\r\n  @param _voter The voter whose DLL will be searched\r\n  @param _numTokens The value for the numTokens attribute in the node to be inserted\r\n  @return the node which the propoded node should be inserted after\r\n  */\r\n  function getInsertPointForNumTokens(address _voter, uint _numTokens, uint _pollID)\r\n  view public returns (uint prevNode)\r\n  {\r\n    // Get the last node in the list and the number of tokens in that node\r\n    uint nodeID = getLastNode(_voter);\r\n    uint tokensInNode = getNumTokens(_voter, nodeID);\r\n\r\n    // Iterate backwards through the list until reaching the root node\r\n    while (nodeID != 0) {\r\n      // Get the number of tokens in the current node\r\n      tokensInNode = getNumTokens(_voter, nodeID);\r\n      if (tokensInNode <= _numTokens) { // We found the insert point!\r\n        if (nodeID == _pollID) {\r\n          // This is an in-place update. Return the prev node of the node being updated\r\n          nodeID = dllMap[_voter].getPrev(nodeID);\r\n        }\r\n        // Return the insert point\r\n        return nodeID; \r\n      }\r\n      // We did not find the insert point. Continue iterating backwards through the list\r\n      nodeID = dllMap[_voter].getPrev(nodeID);\r\n    }\r\n\r\n    // The list is empty, or a smaller value than anything else in the list is being inserted\r\n    return nodeID;\r\n  }\r\n\r\n  // ----------------\r\n  // GENERAL HELPERS:\r\n  // ----------------\r\n\r\n  /**\r\n  @dev Checks if an expiration date has been reached\r\n  @param _terminationDate Integer timestamp of date to compare current timestamp with\r\n  @return expired Boolean indication of whether the terminationDate has passed\r\n  */\r\n  function isExpired(uint _terminationDate) view public returns (bool expired) {\r\n    return (block.timestamp > _terminationDate);\r\n  }\r\n\r\n  /**\r\n  @dev Generates an identifier which associates a user and a poll together\r\n  @param _pollID Integer identifier associated with target poll\r\n  @return UUID Hash which is deterministic from _user and _pollID\r\n  */\r\n  function attrUUID(address _user, uint _pollID) public pure returns (bytes32 UUID) {\r\n    return keccak256(abi.encodePacked(_user, _pollID));\r\n  }\r\n}\r\n",
  "sourcePath": "C:\\Users\\Artur\\computable\\computable\\contracts\\PLCRVoting.sol",
  "compiler": {
    "name": "solc",
    "version": "0.4.24+commit.e67f0147.Emscripten.clang"
  },
  "schemaVersion": "2.0.1",
  "updatedAt": "2018-08-01T17:47:57.845Z"
}