{
  "contractName": "Registry",
  "abi": [
    {
      "constant": true,
      "inputs": [],
      "name": "name",
      "outputs": [
        {
          "name": "",
          "type": "string"
        }
      ],
      "payable": false,
      "stateMutability": "view",
      "type": "function"
    },
    {
      "constant": true,
      "inputs": [
        {
          "name": "",
          "type": "uint256"
        }
      ],
      "name": "challenges",
      "outputs": [
        {
          "name": "rewardPool",
          "type": "uint256"
        },
        {
          "name": "challenger",
          "type": "address"
        },
        {
          "name": "resolved",
          "type": "bool"
        },
        {
          "name": "stake",
          "type": "uint256"
        },
        {
          "name": "totalTokens",
          "type": "uint256"
        }
      ],
      "payable": false,
      "stateMutability": "view",
      "type": "function"
    },
    {
      "constant": true,
      "inputs": [
        {
          "name": "",
          "type": "bytes32"
        }
      ],
      "name": "listings",
      "outputs": [
        {
          "name": "applicationExpiry",
          "type": "uint256"
        },
        {
          "name": "whitelisted",
          "type": "bool"
        },
        {
          "name": "owner",
          "type": "address"
        },
        {
          "name": "unstakedDeposit",
          "type": "uint256"
        },
        {
          "name": "challengeID",
          "type": "uint256"
        },
        {
          "name": "data",
          "type": "string"
        }
      ],
      "payable": false,
      "stateMutability": "view",
      "type": "function"
    },
    {
      "constant": true,
      "inputs": [],
      "name": "parameterizer",
      "outputs": [
        {
          "name": "",
          "type": "address"
        }
      ],
      "payable": false,
      "stateMutability": "view",
      "type": "function"
    },
    {
      "constant": true,
      "inputs": [],
      "name": "token",
      "outputs": [
        {
          "name": "",
          "type": "address"
        }
      ],
      "payable": false,
      "stateMutability": "view",
      "type": "function"
    },
    {
      "constant": true,
      "inputs": [],
      "name": "voting",
      "outputs": [
        {
          "name": "",
          "type": "address"
        }
      ],
      "payable": false,
      "stateMutability": "view",
      "type": "function"
    },
    {
      "inputs": [
        {
          "name": "_tokenAddr",
          "type": "address"
        },
        {
          "name": "_plcrAddr",
          "type": "address"
        },
        {
          "name": "_paramsAddr",
          "type": "address"
        },
        {
          "name": "_name",
          "type": "string"
        }
      ],
      "payable": false,
      "stateMutability": "nonpayable",
      "type": "constructor"
    },
    {
      "anonymous": false,
      "inputs": [
        {
          "indexed": true,
          "name": "listingHash",
          "type": "bytes32"
        },
        {
          "indexed": false,
          "name": "deposit",
          "type": "uint256"
        },
        {
          "indexed": false,
          "name": "appEndDate",
          "type": "uint256"
        },
        {
          "indexed": false,
          "name": "data",
          "type": "string"
        },
        {
          "indexed": true,
          "name": "applicant",
          "type": "address"
        }
      ],
      "name": "_Application",
      "type": "event"
    },
    {
      "anonymous": false,
      "inputs": [
        {
          "indexed": true,
          "name": "listingHash",
          "type": "bytes32"
        },
        {
          "indexed": false,
          "name": "challengeID",
          "type": "uint256"
        },
        {
          "indexed": false,
          "name": "data",
          "type": "string"
        },
        {
          "indexed": false,
          "name": "commitEndDate",
          "type": "uint256"
        },
        {
          "indexed": false,
          "name": "revealEndDate",
          "type": "uint256"
        },
        {
          "indexed": true,
          "name": "challenger",
          "type": "address"
        }
      ],
      "name": "_Challenge",
      "type": "event"
    },
    {
      "anonymous": false,
      "inputs": [
        {
          "indexed": true,
          "name": "listingHash",
          "type": "bytes32"
        },
        {
          "indexed": false,
          "name": "added",
          "type": "uint256"
        },
        {
          "indexed": false,
          "name": "newTotal",
          "type": "uint256"
        },
        {
          "indexed": true,
          "name": "owner",
          "type": "address"
        }
      ],
      "name": "_Deposit",
      "type": "event"
    },
    {
      "anonymous": false,
      "inputs": [
        {
          "indexed": true,
          "name": "listingHash",
          "type": "bytes32"
        },
        {
          "indexed": false,
          "name": "withdrew",
          "type": "uint256"
        },
        {
          "indexed": false,
          "name": "newTotal",
          "type": "uint256"
        },
        {
          "indexed": true,
          "name": "owner",
          "type": "address"
        }
      ],
      "name": "_Withdrawal",
      "type": "event"
    },
    {
      "anonymous": false,
      "inputs": [
        {
          "indexed": true,
          "name": "listingHash",
          "type": "bytes32"
        }
      ],
      "name": "_ApplicationWhitelisted",
      "type": "event"
    },
    {
      "anonymous": false,
      "inputs": [
        {
          "indexed": true,
          "name": "listingHash",
          "type": "bytes32"
        }
      ],
      "name": "_ApplicationRemoved",
      "type": "event"
    },
    {
      "anonymous": false,
      "inputs": [
        {
          "indexed": true,
          "name": "listingHash",
          "type": "bytes32"
        }
      ],
      "name": "_ListingRemoved",
      "type": "event"
    },
    {
      "anonymous": false,
      "inputs": [
        {
          "indexed": true,
          "name": "listingHash",
          "type": "bytes32"
        }
      ],
      "name": "_ListingWithdrawn",
      "type": "event"
    },
    {
      "anonymous": false,
      "inputs": [
        {
          "indexed": true,
          "name": "listingHash",
          "type": "bytes32"
        }
      ],
      "name": "_TouchAndRemoved",
      "type": "event"
    },
    {
      "anonymous": false,
      "inputs": [
        {
          "indexed": true,
          "name": "listingHash",
          "type": "bytes32"
        },
        {
          "indexed": true,
          "name": "challengeID",
          "type": "uint256"
        },
        {
          "indexed": false,
          "name": "rewardPool",
          "type": "uint256"
        },
        {
          "indexed": false,
          "name": "totalTokens",
          "type": "uint256"
        }
      ],
      "name": "_ChallengeFailed",
      "type": "event"
    },
    {
      "anonymous": false,
      "inputs": [
        {
          "indexed": true,
          "name": "listingHash",
          "type": "bytes32"
        },
        {
          "indexed": true,
          "name": "challengeID",
          "type": "uint256"
        },
        {
          "indexed": false,
          "name": "rewardPool",
          "type": "uint256"
        },
        {
          "indexed": false,
          "name": "totalTokens",
          "type": "uint256"
        }
      ],
      "name": "_ChallengeSucceeded",
      "type": "event"
    },
    {
      "anonymous": false,
      "inputs": [
        {
          "indexed": true,
          "name": "challengeID",
          "type": "uint256"
        },
        {
          "indexed": false,
          "name": "reward",
          "type": "uint256"
        },
        {
          "indexed": true,
          "name": "voter",
          "type": "address"
        }
      ],
      "name": "_RewardClaimed",
      "type": "event"
    },
    {
      "constant": false,
      "inputs": [
        {
          "name": "_listingHash",
          "type": "bytes32"
        },
        {
          "name": "_amount",
          "type": "uint256"
        },
        {
          "name": "_data",
          "type": "string"
        }
      ],
      "name": "apply",
      "outputs": [],
      "payable": false,
      "stateMutability": "nonpayable",
      "type": "function"
    },
    {
      "constant": false,
      "inputs": [
        {
          "name": "_listingHash",
          "type": "bytes32"
        },
        {
          "name": "_amount",
          "type": "uint256"
        }
      ],
      "name": "deposit",
      "outputs": [],
      "payable": false,
      "stateMutability": "nonpayable",
      "type": "function"
    },
    {
      "constant": false,
      "inputs": [
        {
          "name": "_listingHash",
          "type": "bytes32"
        },
        {
          "name": "_amount",
          "type": "uint256"
        }
      ],
      "name": "withdraw",
      "outputs": [],
      "payable": false,
      "stateMutability": "nonpayable",
      "type": "function"
    },
    {
      "constant": false,
      "inputs": [
        {
          "name": "_listingHash",
          "type": "bytes32"
        }
      ],
      "name": "exit",
      "outputs": [],
      "payable": false,
      "stateMutability": "nonpayable",
      "type": "function"
    },
    {
      "constant": false,
      "inputs": [
        {
          "name": "_listingHash",
          "type": "bytes32"
        },
        {
          "name": "_data",
          "type": "string"
        }
      ],
      "name": "challenge",
      "outputs": [
        {
          "name": "challengeID",
          "type": "uint256"
        }
      ],
      "payable": false,
      "stateMutability": "nonpayable",
      "type": "function"
    },
    {
      "constant": false,
      "inputs": [
        {
          "name": "_listingHash",
          "type": "bytes32"
        }
      ],
      "name": "updateStatus",
      "outputs": [],
      "payable": false,
      "stateMutability": "nonpayable",
      "type": "function"
    },
    {
      "constant": false,
      "inputs": [
        {
          "name": "_challengeID",
          "type": "uint256"
        },
        {
          "name": "_salt",
          "type": "uint256"
        }
      ],
      "name": "claimReward",
      "outputs": [],
      "payable": false,
      "stateMutability": "nonpayable",
      "type": "function"
    },
    {
      "constant": true,
      "inputs": [
        {
          "name": "_voter",
          "type": "address"
        },
        {
          "name": "_challengeID",
          "type": "uint256"
        },
        {
          "name": "_salt",
          "type": "uint256"
        }
      ],
      "name": "voterReward",
      "outputs": [
        {
          "name": "",
          "type": "uint256"
        }
      ],
      "payable": false,
      "stateMutability": "view",
      "type": "function"
    },
    {
      "constant": true,
      "inputs": [
        {
          "name": "_listingHash",
          "type": "bytes32"
        }
      ],
      "name": "canBeWhitelisted",
      "outputs": [
        {
          "name": "",
          "type": "bool"
        }
      ],
      "payable": false,
      "stateMutability": "view",
      "type": "function"
    },
    {
      "constant": true,
      "inputs": [
        {
          "name": "_listingHash",
          "type": "bytes32"
        }
      ],
      "name": "isWhitelisted",
      "outputs": [
        {
          "name": "whitelisted",
          "type": "bool"
        }
      ],
      "payable": false,
      "stateMutability": "view",
      "type": "function"
    },
    {
      "constant": true,
      "inputs": [
        {
          "name": "_listingHash",
          "type": "bytes32"
        }
      ],
      "name": "getData",
      "outputs": [
        {
          "name": "data",
          "type": "string"
        }
      ],
      "payable": false,
      "stateMutability": "view",
      "type": "function"
    },
    {
      "constant": true,
      "inputs": [
        {
          "name": "_listingHash",
          "type": "bytes32"
        }
      ],
      "name": "appWasMade",
      "outputs": [
        {
          "name": "exists",
          "type": "bool"
        }
      ],
      "payable": false,
      "stateMutability": "view",
      "type": "function"
    },
    {
      "constant": true,
      "inputs": [
        {
          "name": "_listingHash",
          "type": "bytes32"
        }
      ],
      "name": "challengeExists",
      "outputs": [
        {
          "name": "",
          "type": "bool"
        }
      ],
      "payable": false,
      "stateMutability": "view",
      "type": "function"
    },
    {
      "constant": true,
      "inputs": [
        {
          "name": "_listingHash",
          "type": "bytes32"
        }
      ],
      "name": "challengeCanBeResolved",
      "outputs": [
        {
          "name": "",
          "type": "bool"
        }
      ],
      "payable": false,
      "stateMutability": "view",
      "type": "function"
    },
    {
      "constant": true,
      "inputs": [
        {
          "name": "_challengeID",
          "type": "uint256"
        }
      ],
      "name": "determineReward",
      "outputs": [
        {
          "name": "",
          "type": "uint256"
        }
      ],
      "payable": false,
      "stateMutability": "view",
      "type": "function"
    },
    {
      "constant": true,
      "inputs": [
        {
          "name": "_challengeID",
          "type": "uint256"
        },
        {
          "name": "_voter",
          "type": "address"
        }
      ],
      "name": "tokenClaims",
      "outputs": [
        {
          "name": "",
          "type": "bool"
        }
      ],
      "payable": false,
      "stateMutability": "view",
      "type": "function"
    }
  ],
  "bytecode": "0x60806040523480156200001157600080fd5b50604051620038d9380380620038d98339810180604052810190808051906020019092919080519060200190929190805190602001909291908051820192919050505083600260006101000a81548173ffffffffffffffffffffffffffffffffffffffff021916908373ffffffffffffffffffffffffffffffffffffffff16021790555082600360006101000a81548173ffffffffffffffffffffffffffffffffffffffff021916908373ffffffffffffffffffffffffffffffffffffffff16021790555081600460006101000a81548173ffffffffffffffffffffffffffffffffffffffff021916908373ffffffffffffffffffffffffffffffffffffffff16021790555080600590805190602001906200012f9291906200013a565b5050505050620001e9565b828054600181600116156101000203166002900490600052602060002090601f016020900481019282601f106200017d57805160ff1916838001178555620001ae565b82800160010185558215620001ae579182015b82811115620001ad57825182559160200191906001019062000190565b5b509050620001bd9190620001c1565b5090565b620001e691905b80821115620001e2576000816000905550600101620001c8565b5090565b90565b6136e080620001f96000396000f300608060405260043610610128576000357c0100000000000000000000000000000000000000000000000000000000900463ffffffff16806301a5e3fe1461012d578063040cf0201461017657806306fdde03146101b15780630ca36263146102415780631b7bbecb146102725780631de26e16146102bb57806343cffefe146102f657806354f6127f14610353578063691a38ab146103fd57806377609a411461044657806386bb8f371461048f57806389bb55c7146104c65780638a59eb56146105195780638cf8151f1461054a5780638f1d377614610593578063a5ba3b1e14610620578063a7aad3db14610685578063c18b8db4146106f0578063c8187cf1146107ed578063e1e3f9151461082e578063fc0c546a14610885578063fce1ccca146108dc575b600080fd5b34801561013957600080fd5b5061015c6004803603810190808035600019169060200190929190505050610933565b604051808215151515815260200191505060405180910390f35b34801561018257600080fd5b506101af600480360381019080803560001916906020019092919080359060200190929190505050610968565b005b3480156101bd57600080fd5b506101c6610ca7565b6040518080602001828103825283818151815260200191508051906020019080838360005b838110156102065780820151818401526020810190506101eb565b50505050905090810190601f1680156102335780820380516001836020036101000a031916815260200191505b509250505060405180910390f35b34801561024d57600080fd5b506102706004803603810190808035600019169060200190929190505050610d45565b005b34801561027e57600080fd5b506102a16004803603810190808035600019169060200190929190505050610e55565b604051808215151515815260200191505060405180910390f35b3480156102c757600080fd5b506102f4600480360381019080803560001916906020019092919080359060200190929190505050610ecf565b005b34801561030257600080fd5b5061033d600480360381019080803560001916906020019092919080359060200190820180359060200191909192939192939050505061110e565b6040518082815260200191505060405180910390f35b34801561035f57600080fd5b506103826004803603810190808035600019169060200190929190505050611bd0565b6040518080602001828103825283818151815260200191508051906020019080838360005b838110156103c25780820151818401526020810190506103a7565b50505050905090810190601f1680156103ef5780820380516001836020036101000a031916815260200191505b509250505060405180910390f35b34801561040957600080fd5b5061042c6004803603810190808035600019169060200190929190505050611c90565b604051808215151515815260200191505060405180910390f35b34801561045257600080fd5b506104756004803603810190808035600019169060200190929190505050611d4e565b604051808215151515815260200191505060405180910390f35b34801561049b57600080fd5b506104c46004803603810190808035906020019092919080359060200190929190505050611e5a565b005b3480156104d257600080fd5b50610517600480360381019080803560001916906020019092919080359060200190929190803590602001908201803590602001919091929391929390505050612268565b005b34801561052557600080fd5b50610548600480360381019080803560001916906020019092919050505061271e565b005b34801561055657600080fd5b50610579600480360381019080803560001916906020019092919050505061275f565b604051808215151515815260200191505060405180910390f35b34801561059f57600080fd5b506105be60048036038101908080359060200190929190505050612789565b604051808681526020018573ffffffffffffffffffffffffffffffffffffffff1673ffffffffffffffffffffffffffffffffffffffff168152602001841515151581526020018381526020018281526020019550505050505060405180910390f35b34801561062c57600080fd5b5061066b60048036038101908080359060200190929190803573ffffffffffffffffffffffffffffffffffffffff1690602001909291905050506127ec565b604051808215151515815260200191505060405180910390f35b34801561069157600080fd5b506106da600480360381019080803573ffffffffffffffffffffffffffffffffffffffff1690602001909291908035906020019092919080359060200190929190505050612856565b6040518082815260200191505060405180910390f35b3480156106fc57600080fd5b5061071f60048036038101908080356000191690602001909291905050506129c7565b60405180878152602001861515151581526020018573ffffffffffffffffffffffffffffffffffffffff1673ffffffffffffffffffffffffffffffffffffffff16815260200184815260200183815260200180602001828103825283818151815260200191508051906020019080838360005b838110156107ad578082015181840152602081019050610792565b50505050905090810190601f1680156107da5780820380516001836020036101000a031916815260200191505b5097505050505050505060405180910390f35b3480156107f957600080fd5b5061081860048036038101908080359060200190929190505050612ac8565b6040518082815260200191505060405180910390f35b34801561083a57600080fd5b50610843612d29565b604051808273ffffffffffffffffffffffffffffffffffffffff1673ffffffffffffffffffffffffffffffffffffffff16815260200191505060405180910390f35b34801561089157600080fd5b5061089a612d4f565b604051808273ffffffffffffffffffffffffffffffffffffffff1673ffffffffffffffffffffffffffffffffffffffff16815260200191505060405180910390f35b3480156108e857600080fd5b506108f1612d75565b604051808273ffffffffffffffffffffffffffffffffffffffff1673ffffffffffffffffffffffffffffffffffffffff16815260200191505060405180910390f35b600060016000836000191660001916815260200190815260200160002060010160009054906101000a900460ff169050919050565b600060016000846000191660001916815260200190815260200160002090503373ffffffffffffffffffffffffffffffffffffffff168160010160019054906101000a900473ffffffffffffffffffffffffffffffffffffffff1673ffffffffffffffffffffffffffffffffffffffff161415156109e557600080fd5b806002015482111515156109f857600080fd5b600460009054906101000a900473ffffffffffffffffffffffffffffffffffffffff1673ffffffffffffffffffffffffffffffffffffffff1663693ec85e6040518163ffffffff167c010000000000000000000000000000000000000000000000000000000002815260040180806020018281038252600a8152602001807f6d696e4465706f73697400000000000000000000000000000000000000000000815250602001915050602060405180830381600087803b158015610aba57600080fd5b505af1158015610ace573d6000803e3d6000fd5b505050506040513d6020811015610ae457600080fd5b8101908080519060200190929190505050610b0c838360020154612d9b90919063ffffffff16565b10151515610b1957600080fd5b610b30828260020154612d9b90919063ffffffff16565b8160020181905550600260009054906101000a900473ffffffffffffffffffffffffffffffffffffffff1673ffffffffffffffffffffffffffffffffffffffff1663a9059cbb33846040518363ffffffff167c0100000000000000000000000000000000000000000000000000000000028152600401808373ffffffffffffffffffffffffffffffffffffffff1673ffffffffffffffffffffffffffffffffffffffff16815260200182815260200192505050602060405180830381600087803b158015610bfd57600080fd5b505af1158015610c11573d6000803e3d6000fd5b505050506040513d6020811015610c2757600080fd5b81019080805190602001909291905050501515610c4357600080fd5b3373ffffffffffffffffffffffffffffffffffffffff1683600019167f9d9ed58779badf90c56d72f3b54def9f73dc875d8f86416c8334b55328c6c106848460020154604051808381526020018281526020019250505060405180910390a3505050565b60058054600181600116156101000203166002900480601f016020809104026020016040519081016040528092919081815260200182805460018160011615610100020316600290048015610d3d5780601f10610d1257610100808354040283529160200191610d3d565b820191906000526020600020905b815481529060010190602001808311610d2057829003601f168201915b505050505081565b600060016000836000191660001916815260200190815260200160002090508060010160019054906101000a900473ffffffffffffffffffffffffffffffffffffffff1673ffffffffffffffffffffffffffffffffffffffff163373ffffffffffffffffffffffffffffffffffffffff16141515610dc257600080fd5b610dcb82610933565b1515610dd657600080fd5b600081600301541480610e0c57506000808260030154815260200190815260200160002060010160149054906101000a900460ff165b1515610e1757600080fd5b610e2082612db4565b81600019167f8a51904a50ce4451be09dc08242bd2d5565b05cf0f4f5aa88c77f96fdf538b4260405160405180910390a25050565b600080600160008460001916600019168152602001908152602001600020600301549050600060016000856000191660001916815260200190815260200160002060030154118015610ec7575060008082815260200190815260200160002060010160149054906101000a900460ff16155b915050919050565b600060016000846000191660001916815260200190815260200160002090503373ffffffffffffffffffffffffffffffffffffffff168160010160019054906101000a900473ffffffffffffffffffffffffffffffffffffffff1673ffffffffffffffffffffffffffffffffffffffff16141515610f4c57600080fd5b610f6382826002015461301f90919063ffffffff16565b8160020181905550600260009054906101000a900473ffffffffffffffffffffffffffffffffffffffff1673ffffffffffffffffffffffffffffffffffffffff166323b872dd3330856040518463ffffffff167c0100000000000000000000000000000000000000000000000000000000028152600401808473ffffffffffffffffffffffffffffffffffffffff1673ffffffffffffffffffffffffffffffffffffffff1681526020018373ffffffffffffffffffffffffffffffffffffffff1673ffffffffffffffffffffffffffffffffffffffff1681526020018281526020019350505050602060405180830381600087803b15801561106457600080fd5b505af1158015611078573d6000803e3d6000fd5b505050506040513d602081101561108e57600080fd5b810190808051906020019092919050505015156110aa57600080fd5b3373ffffffffffffffffffffffffffffffffffffffff1683600019167ff63fcfb210c709154f0260502b2586fcee5550d17dc828be3127ccdedec620ab848460020154604051808381526020018281526020019250505060405180910390a3505050565b600080600080600080600160008a600019166000191681526020019081526020016000209450600460009054906101000a900473ffffffffffffffffffffffffffffffffffffffff1673ffffffffffffffffffffffffffffffffffffffff1663693ec85e6040518163ffffffff167c010000000000000000000000000000000000000000000000000000000002815260040180806020018281038252600a8152602001807f6d696e4465706f73697400000000000000000000000000000000000000000000815250602001915050602060405180830381600087803b1580156111f657600080fd5b505af115801561120a573d6000803e3d6000fd5b505050506040513d602081101561122057600080fd5b8101908080519060200190929190505050935061123c8961275f565b8061125557508460010160009054906101000a900460ff165b151561126057600080fd5b60008560030154148061129657506000808660030154815260200190815260200160002060010160149054906101000a900460ff165b15156112a157600080fd5b83856002015410156112f0576112b689612db4565b88600019167f4a9ee335af9e32f32f2229943dc7a0d3b5adf7e4c5c4062b372eae8c476d928660405160405180910390a260009550611bc4565b600360009054906101000a900473ffffffffffffffffffffffffffffffffffffffff1673ffffffffffffffffffffffffffffffffffffffff166332ed3d60600460009054906101000a900473ffffffffffffffffffffffffffffffffffffffff1673ffffffffffffffffffffffffffffffffffffffff1663693ec85e6040518163ffffffff167c010000000000000000000000000000000000000000000000000000000002815260040180806020018281038252600a8152602001807f766f746551756f72756d00000000000000000000000000000000000000000000815250602001915050602060405180830381600087803b1580156113f057600080fd5b505af1158015611404573d6000803e3d6000fd5b505050506040513d602081101561141a57600080fd5b8101908080519060200190929190505050600460009054906101000a900473ffffffffffffffffffffffffffffffffffffffff1673ffffffffffffffffffffffffffffffffffffffff1663693ec85e6040518163ffffffff167c010000000000000000000000000000000000000000000000000000000002815260040180806020018281038252600e8152602001807f636f6d6d697453746167654c656e000000000000000000000000000000000000815250602001915050602060405180830381600087803b1580156114ed57600080fd5b505af1158015611501573d6000803e3d6000fd5b505050506040513d602081101561151757600080fd5b8101908080519060200190929190505050600460009054906101000a900473ffffffffffffffffffffffffffffffffffffffff1673ffffffffffffffffffffffffffffffffffffffff1663693ec85e6040518163ffffffff167c010000000000000000000000000000000000000000000000000000000002815260040180806020018281038252600e8152602001807f72657665616c53746167654c656e000000000000000000000000000000000000815250602001915050602060405180830381600087803b1580156115ea57600080fd5b505af11580156115fe573d6000803e3d6000fd5b505050506040513d602081101561161457600080fd5b81019080805190602001909291905050506040518463ffffffff167c0100000000000000000000000000000000000000000000000000000000028152600401808481526020018381526020018281526020019350505050602060405180830381600087803b15801561168557600080fd5b505af1158015611699573d6000803e3d6000fd5b505050506040513d60208110156116af57600080fd5b8101908080519060200190929190505050925060a06040519081016040528061180360646117f5886117e7600460009054906101000a900473ffffffffffffffffffffffffffffffffffffffff1673ffffffffffffffffffffffffffffffffffffffff1663693ec85e6040518163ffffffff167c010000000000000000000000000000000000000000000000000000000002815260040180806020018281038252600f8152602001807f64697370656e736174696f6e5063740000000000000000000000000000000000815250602001915050602060405180830381600087803b15801561179c57600080fd5b505af11580156117b0573d6000803e3d6000fd5b505050506040513d60208110156117c657600080fd5b81019080805190602001909291905050506064612d9b90919063ffffffff16565b61303b90919063ffffffff16565b61307390919063ffffffff16565b81526020013373ffffffffffffffffffffffffffffffffffffffff16815260200160001515815260200185815260200160008152506000808581526020019081526020016000206000820151816000015560208201518160010160006101000a81548173ffffffffffffffffffffffffffffffffffffffff021916908373ffffffffffffffffffffffffffffffffffffffff16021790555060408201518160010160146101000a81548160ff02191690831515021790555060608201518160020155608082015181600301559050508285600301819055506118f2848660020154612d9b90919063ffffffff16565b8560020181905550600260009054906101000a900473ffffffffffffffffffffffffffffffffffffffff1673ffffffffffffffffffffffffffffffffffffffff166323b872dd3330876040518463ffffffff167c0100000000000000000000000000000000000000000000000000000000028152600401808473ffffffffffffffffffffffffffffffffffffffff1673ffffffffffffffffffffffffffffffffffffffff1681526020018373ffffffffffffffffffffffffffffffffffffffff1673ffffffffffffffffffffffffffffffffffffffff1681526020018281526020019350505050602060405180830381600087803b1580156119f357600080fd5b505af1158015611a07573d6000803e3d6000fd5b505050506040513d6020811015611a1d57600080fd5b81019080805190602001909291905050501515611a3957600080fd5b600360009054906101000a900473ffffffffffffffffffffffffffffffffffffffff1673ffffffffffffffffffffffffffffffffffffffff16636148fed5846040518263ffffffff167c01000000000000000000000000000000000000000000000000000000000281526004018082815260200191505060a060405180830381600087803b158015611aca57600080fd5b505af1158015611ade573d6000803e3d6000fd5b505050506040513d60a0811015611af457600080fd5b81019080805190602001909291908051906020019092919080519060200190929190805190602001909291908051906020019092919050505090915090505080925081935050503373ffffffffffffffffffffffffffffffffffffffff1689600019167ff98a08756a3603420a080d66764f73deb1e30896c315cfed03e17f88f5eb30f7858b8b8787604051808681526020018060200184815260200183815260200182810382528686828181526020019250808284378201915050965050505050505060405180910390a38295505b50505050509392505050565b60606001600083600019166000191681526020019081526020016000206004018054600181600116156101000203166002900480601f016020809104026020016040519081016040528092919081815260200182805460018160011615610100020316600290048015611c845780601f10611c5957610100808354040283529160200191611c84565b820191906000526020600020905b815481529060010190602001808311611c6757829003601f168201915b50505050509050919050565b600080600160008460001916600019168152602001908152602001600020600301549050611cbd8361275f565b8015611ce657504260016000856000191660001916815260200190815260200160002060000154105b8015611cf85750611cf683610933565b155b8015611d3557506000811480611d3457506001151560008083815260200190815260200160002060010160149054906101000a900460ff161515145b5b15611d435760019150611d48565b600091505b50919050565b600080600160008460001916600019168152602001908152602001600020600301549050611d7b83610e55565b1515611d8657600080fd5b600360009054906101000a900473ffffffffffffffffffffffffffffffffffffffff1673ffffffffffffffffffffffffffffffffffffffff1663ee684830826040518263ffffffff167c010000000000000000000000000000000000000000000000000000000002815260040180828152602001915050602060405180830381600087803b158015611e1757600080fd5b505af1158015611e2b573d6000803e3d6000fd5b505050506040513d6020811015611e4157600080fd5b8101908080519060200190929190505050915050919050565b6000806000151560008086815260200190815260200160002060040160003373ffffffffffffffffffffffffffffffffffffffff1673ffffffffffffffffffffffffffffffffffffffff16815260200190815260200160002060009054906101000a900460ff161515141515611ecf57600080fd5b6001151560008086815260200190815260200160002060010160149054906101000a900460ff161515141515611f0457600080fd5b600360009054906101000a900473ffffffffffffffffffffffffffffffffffffffff1673ffffffffffffffffffffffffffffffffffffffff1663b43bd0693386866040518463ffffffff167c0100000000000000000000000000000000000000000000000000000000028152600401808473ffffffffffffffffffffffffffffffffffffffff1673ffffffffffffffffffffffffffffffffffffffff1681526020018381526020018281526020019350505050602060405180830381600087803b158015611fd157600080fd5b505af1158015611fe5573d6000803e3d6000fd5b505050506040513d6020811015611ffb57600080fd5b81019080805190602001909291905050509150612019338585612856565b90506120438260008087815260200190815260200160002060030154612d9b90919063ffffffff16565b600080868152602001908152602001600020600301819055506120848160008087815260200190815260200160002060000154612d9b90919063ffffffff16565b60008086815260200190815260200160002060000181905550600160008086815260200190815260200160002060040160003373ffffffffffffffffffffffffffffffffffffffff1673ffffffffffffffffffffffffffffffffffffffff16815260200190815260200160002060006101000a81548160ff021916908315150217905550600260009054906101000a900473ffffffffffffffffffffffffffffffffffffffff1673ffffffffffffffffffffffffffffffffffffffff1663a9059cbb33836040518363ffffffff167c0100000000000000000000000000000000000000000000000000000000028152600401808373ffffffffffffffffffffffffffffffffffffffff1673ffffffffffffffffffffffffffffffffffffffff16815260200182815260200192505050602060405180830381600087803b1580156121cd57600080fd5b505af11580156121e1573d6000803e3d6000fd5b505050506040513d60208110156121f757600080fd5b8101908080519060200190929190505050151561221357600080fd5b3373ffffffffffffffffffffffffffffffffffffffff16847f6f4c982acc31b0af2cf1dc1556f21c0325d893782d65e83c68a5534a33f59957836040518082815260200191505060405180910390a350505050565b600061227385610933565b15151561227f57600080fd5b6122888561275f565b15151561229457600080fd5b600460009054906101000a900473ffffffffffffffffffffffffffffffffffffffff1673ffffffffffffffffffffffffffffffffffffffff1663693ec85e6040518163ffffffff167c010000000000000000000000000000000000000000000000000000000002815260040180806020018281038252600a8152602001807f6d696e4465706f73697400000000000000000000000000000000000000000000815250602001915050602060405180830381600087803b15801561235657600080fd5b505af115801561236a573d6000803e3d6000fd5b505050506040513d602081101561238057600080fd5b8101908080519060200190929190505050841015151561239f57600080fd5b6001600086600019166000191681526020019081526020016000209050338160010160016101000a81548173ffffffffffffffffffffffffffffffffffffffff021916908373ffffffffffffffffffffffffffffffffffffffff16021790555061250e600460009054906101000a900473ffffffffffffffffffffffffffffffffffffffff1673ffffffffffffffffffffffffffffffffffffffff1663693ec85e6040518163ffffffff167c010000000000000000000000000000000000000000000000000000000002815260040180806020018281038252600d8152602001807f6170706c7953746167654c656e00000000000000000000000000000000000000815250602001915050602060405180830381600087803b1580156124c457600080fd5b505af11580156124d8573d6000803e3d6000fd5b505050506040513d60208110156124ee57600080fd5b81019080805190602001909291905050504261301f90919063ffffffff16565b816000018190555083816002018190555082828260040191906125329291906135c7565b50600260009054906101000a900473ffffffffffffffffffffffffffffffffffffffff1673ffffffffffffffffffffffffffffffffffffffff166323b872dd8260010160019054906101000a900473ffffffffffffffffffffffffffffffffffffffff1630876040518463ffffffff167c0100000000000000000000000000000000000000000000000000000000028152600401808473ffffffffffffffffffffffffffffffffffffffff1673ffffffffffffffffffffffffffffffffffffffff1681526020018373ffffffffffffffffffffffffffffffffffffffff1673ffffffffffffffffffffffffffffffffffffffff1681526020018281526020019350505050602060405180830381600087803b15801561265057600080fd5b505af1158015612664573d6000803e3d6000fd5b505050506040513d602081101561267a57600080fd5b8101908080519060200190929190505050151561269657600080fd5b3373ffffffffffffffffffffffffffffffffffffffff1685600019167fa27f550c3c7a7c6d8369e5383fdc7a3b4850d8ce9e20066f9d496f6989f0086486846000015487876040518085815260200184815260200180602001828103825284848281815260200192508082843782019150509550505050505060405180910390a35050505050565b61272781611c90565b1561273a5761273581613089565b61275c565b61274381611d4e565b156127565761275181613126565b61275b565b600080fd5b5b50565b60008060016000846000191660001916815260200190815260200160002060000154119050919050565b60006020528060005260406000206000915090508060000154908060010160009054906101000a900473ffffffffffffffffffffffffffffffffffffffff16908060010160149054906101000a900460ff16908060020154908060030154905085565b600080600084815260200190815260200160002060040160008373ffffffffffffffffffffffffffffffffffffffff1673ffffffffffffffffffffffffffffffffffffffff16815260200190815260200160002060009054906101000a900460ff16905092915050565b600080600080600080878152602001908152602001600020600301549250600080878152602001908152602001600020600001549150600360009054906101000a900473ffffffffffffffffffffffffffffffffffffffff1673ffffffffffffffffffffffffffffffffffffffff1663b43bd0698888886040518463ffffffff167c0100000000000000000000000000000000000000000000000000000000028152600401808473ffffffffffffffffffffffffffffffffffffffff1673ffffffffffffffffffffffffffffffffffffffff1681526020018381526020018281526020019350505050602060405180830381600087803b15801561295957600080fd5b505af115801561296d573d6000803e3d6000fd5b505050506040513d602081101561298357600080fd5b810190808051906020019092919050505090506129bb836129ad848461303b90919063ffffffff16565b61307390919063ffffffff16565b93505050509392505050565b60016020528060005260406000206000915090508060000154908060010160009054906101000a900460ff16908060010160019054906101000a900473ffffffffffffffffffffffffffffffffffffffff1690806002015490806003015490806004018054600181600116156101000203166002900480601f016020809104026020016040519081016040528092919081815260200182805460018160011615610100020316600290048015612abe5780601f10612a9357610100808354040283529160200191612abe565b820191906000526020600020905b815481529060010190602001808311612aa157829003601f168201915b5050505050905086565b600080600083815260200190815260200160002060010160149054906101000a900460ff16158015612bc25750600360009054906101000a900473ffffffffffffffffffffffffffffffffffffffff1673ffffffffffffffffffffffffffffffffffffffff1663ee684830836040518263ffffffff167c010000000000000000000000000000000000000000000000000000000002815260040180828152602001915050602060405180830381600087803b158015612b8657600080fd5b505af1158015612b9a573d6000803e3d6000fd5b505050506040513d6020811015612bb057600080fd5b81019080805190602001909291905050505b1515612bcd57600080fd5b6000600360009054906101000a900473ffffffffffffffffffffffffffffffffffffffff1673ffffffffffffffffffffffffffffffffffffffff1663053e71a6846040518263ffffffff167c010000000000000000000000000000000000000000000000000000000002815260040180828152602001915050602060405180830381600087803b158015612c6057600080fd5b505af1158015612c74573d6000803e3d6000fd5b505050506040513d6020811015612c8a57600080fd5b81019080805190602001909291905050501415612cd157612cca60008084815260200190815260200160002060020154600261303b90919063ffffffff16565b9050612d24565b612d2160008084815260200190815260200160002060000154612d1360008086815260200190815260200160002060020154600261303b90919063ffffffff16565b612d9b90919063ffffffff16565b90505b919050565b600460009054906101000a900473ffffffffffffffffffffffffffffffffffffffff1681565b600260009054906101000a900473ffffffffffffffffffffffffffffffffffffffff1681565b600360009054906101000a900473ffffffffffffffffffffffffffffffffffffffff1681565b6000828211151515612da957fe5b818303905092915050565b600080600060016000856000191660001916815260200190815260200160002092508260010160009054906101000a900460ff1615612e235783600019167fd1ffb796b7108387b2f02adf47b4b81a1690cf2a190422c87a4f670780103e6360405160405180910390a2612e55565b83600019167f2e5ec035f6eac8ff1cf7cdf36cfeca7c85413f9f67652dc2c13d20f337204a2660405160405180910390a25b8260010160019054906101000a900473ffffffffffffffffffffffffffffffffffffffff169150826002015490506001600085600019166000191681526020019081526020016000206000808201600090556001820160006101000a81549060ff02191690556001820160016101000a81549073ffffffffffffffffffffffffffffffffffffffff021916905560028201600090556003820160009055600482016000612f029190613647565b5050600081111561301957600260009054906101000a900473ffffffffffffffffffffffffffffffffffffffff1673ffffffffffffffffffffffffffffffffffffffff1663a9059cbb83836040518363ffffffff167c0100000000000000000000000000000000000000000000000000000000028152600401808373ffffffffffffffffffffffffffffffffffffffff1673ffffffffffffffffffffffffffffffffffffffff16815260200182815260200192505050602060405180830381600087803b158015612fd257600080fd5b505af1158015612fe6573d6000803e3d6000fd5b505050506040513d6020811015612ffc57600080fd5b8101908080519060200190929190505050151561301857600080fd5b5b50505050565b6000818301905082811015151561303257fe5b80905092915050565b60008083141561304e576000905061306d565b818302905081838281151561305f57fe5b0414151561306957fe5b8090505b92915050565b6000818381151561308057fe5b04905092915050565b60016000826000191660001916815260200190815260200160002060010160009054906101000a900460ff1615156130ed5780600019167fa7bc1d57d9006d9d248707c7b6828c1bab8c51719cc06d78c82a3ee891ef967c60405160405180910390a25b6001806000836000191660001916815260200190815260200160002060010160006101000a81548160ff02191690831515021790555050565b60008060016000846000191660001916815260200190815260200160002060030154915061315382612ac8565b9050600160008084815260200190815260200160002060010160146101000a81548160ff021916908315150217905550600360009054906101000a900473ffffffffffffffffffffffffffffffffffffffff1673ffffffffffffffffffffffffffffffffffffffff1663053e71a6836040518263ffffffff167c010000000000000000000000000000000000000000000000000000000002815260040180828152602001915050602060405180830381600087803b15801561321457600080fd5b505af1158015613228573d6000803e3d6000fd5b505050506040513d602081101561323e57600080fd5b810190808051906020019092919050505060008084815260200190815260200160002060030181905550600360009054906101000a900473ffffffffffffffffffffffffffffffffffffffff1673ffffffffffffffffffffffffffffffffffffffff166349403183836040518263ffffffff167c010000000000000000000000000000000000000000000000000000000002815260040180828152602001915050602060405180830381600087803b1580156132f957600080fd5b505af115801561330d573d6000803e3d6000fd5b505050506040513d602081101561332357600080fd5b8101908080519060200190929190505050156134095761334283613089565b613373816001600086600019166000191681526020019081526020016000206002015461301f90919063ffffffff16565b600160008560001916600019168152602001908152602001600020600201819055508183600019167fc4497224aa78dd50c9b3e344aab02596201ca1e6dca4057a91a6c02f83f4f6c16000808681526020019081526020016000206000015460008087815260200190815260200160002060030154604051808381526020018281526020019250505060405180910390a36135c2565b61341283612db4565b600260009054906101000a900473ffffffffffffffffffffffffffffffffffffffff1673ffffffffffffffffffffffffffffffffffffffff1663a9059cbb60008085815260200190815260200160002060010160009054906101000a900473ffffffffffffffffffffffffffffffffffffffff16836040518363ffffffff167c0100000000000000000000000000000000000000000000000000000000028152600401808373ffffffffffffffffffffffffffffffffffffffff1673ffffffffffffffffffffffffffffffffffffffff16815260200182815260200192505050602060405180830381600087803b15801561350c57600080fd5b505af1158015613520573d6000803e3d6000fd5b505050506040513d602081101561353657600080fd5b8101908080519060200190929190505050151561355257600080fd5b8183600019167f362a12431f779a2baff4f77f75ba7960ae993a5c41b425df11f7fd0af2b9cbe66000808681526020019081526020016000206000015460008087815260200190815260200160002060030154604051808381526020018281526020019250505060405180910390a35b505050565b828054600181600116156101000203166002900490600052602060002090601f016020900481019282601f1061360857803560ff1916838001178555613636565b82800160010185558215613636579182015b8281111561363557823582559160200191906001019061361a565b5b509050613643919061368f565b5090565b50805460018160011615610100020316600290046000825580601f1061366d575061368c565b601f01602090049060005260206000209081019061368b919061368f565b5b50565b6136b191905b808211156136ad576000816000905550600101613695565b5090565b905600a165627a7a7230582031227355420f683e09181d97dea14fedaa44aeb4f09b297281f6c6e637ee3ad20029",
  "source": "pragma solidity 0.4.24;\r\n\r\nimport \"./ERC20.sol\";\r\nimport \"./Parameterizer.sol\";\r\nimport \"./PLCRVoting.sol\";\r\nimport \"./SafeMath.sol\";\r\n\r\n\r\ncontract Registry {\r\n\r\n  // ------\r\n  // EVENTS\r\n  // ------\r\n\r\n  event _Application(bytes32 indexed listingHash, uint deposit, uint appEndDate, string data, address indexed applicant);\r\n  event _Challenge(bytes32 indexed listingHash, uint challengeID, string data, uint commitEndDate, uint revealEndDate, address indexed challenger);\r\n  event _Deposit(bytes32 indexed listingHash, uint added, uint newTotal, address indexed owner);\r\n  event _Withdrawal(bytes32 indexed listingHash, uint withdrew, uint newTotal, address indexed owner);\r\n  event _ApplicationWhitelisted(bytes32 indexed listingHash);\r\n  event _ApplicationRemoved(bytes32 indexed listingHash);\r\n  event _ListingRemoved(bytes32 indexed listingHash);\r\n  event _ListingWithdrawn(bytes32 indexed listingHash);\r\n  event _TouchAndRemoved(bytes32 indexed listingHash);\r\n  event _ChallengeFailed(bytes32 indexed listingHash, uint indexed challengeID, uint rewardPool, uint totalTokens);\r\n  event _ChallengeSucceeded(bytes32 indexed listingHash, uint indexed challengeID, uint rewardPool, uint totalTokens);\r\n  event _RewardClaimed(uint indexed challengeID, uint reward, address indexed voter);\r\n\r\n  using SafeMath for uint;\r\n\r\n  struct Listing {\r\n    uint applicationExpiry; // Expiration date of apply stage\r\n    bool whitelisted;       // Indicates registry status\r\n    address owner;          // Owner of Listing\r\n    uint unstakedDeposit;   // Number of tokens in the listing not locked in a challenge\r\n    uint challengeID;\r\n    string data;       // Corresponds to a PollID in PLCRVoting\r\n  }\r\n\r\n  struct Challenge {\r\n    uint rewardPool;        // (remaining) Pool of tokens to be distributed to winning voters\r\n    address challenger;     // Owner of Challenge\r\n    bool resolved;          // Indication of if challenge is resolved\r\n    uint stake;             // Number of tokens at stake for either party during challenge\r\n    uint totalTokens;       // (remaining) Number of tokens used in voting by the winning side\r\n    mapping(address => bool) tokenClaims; // Indicates whether a voter has claimed a reward yet\r\n  }\r\n\r\n  // Maps challengeIDs to associated challenge data\r\n  mapping(uint => Challenge) public challenges;\r\n\r\n  // Maps listingHashes to associated listingHash data\r\n  mapping(bytes32 => Listing) public listings;\r\n\r\n  // Global Variables\r\n  ERC20 public token;\r\n  PLCRVoting public voting;\r\n  Parameterizer public parameterizer;\r\n  string public name;\r\n\r\n  // ------------\r\n  // CONSTRUCTOR:\r\n  // ------------\r\n\r\n  /**\r\n  @dev Contructor         Sets the addresses for token, voting, and parameterizer\r\n  @param _tokenAddr       Address of the TCR's intrinsic ERC20 token\r\n  @param _plcrAddr        Address of a PLCR voting contract for the provided token\r\n  @param _paramsAddr      Address of a Parameterizer contract\r\n  */\r\n  constructor(\r\n    address _tokenAddr,\r\n    address _plcrAddr,\r\n    address _paramsAddr,\r\n    string _name\r\n  ) public\r\n  {\r\n    token = ERC20(_tokenAddr);\r\n    voting = PLCRVoting(_plcrAddr);\r\n    parameterizer = Parameterizer(_paramsAddr);\r\n    name = _name;\r\n  }\r\n\r\n  // --------------------\r\n  // PUBLISHER INTERFACE:\r\n  // --------------------\r\n\r\n  /**\r\n  @dev                Allows a user to start an application. Takes tokens from user and sets\r\n                      apply stage end time.\r\n  @param _listingHash The hash of a potential listing a user is applying to add to the registry\r\n  @param _amount      The number of ERC20 tokens a user is willing to potentially stake\r\n  @param _data        Extra data relevant to the application. Think IPFS hashes.\r\n  */\r\n  function apply(bytes32 _listingHash, uint _amount, string _data) external {\r\n    require(!isWhitelisted(_listingHash));\r\n    require(!appWasMade(_listingHash));\r\n    require(_amount >= parameterizer.get(\"minDeposit\"));\r\n\r\n    // Sets owner\r\n    Listing storage listing = listings[_listingHash];\r\n    listing.owner = msg.sender;\r\n\r\n    // Sets apply stage end time\r\n    listing.applicationExpiry = block.timestamp.add(parameterizer.get(\"applyStageLen\"));\r\n    listing.unstakedDeposit = _amount;\r\n    // add data\r\n    listing.data = _data;\r\n\r\n    // Transfers tokens from user to Registry contract\r\n    require(token.transferFrom(listing.owner, this, _amount));\r\n\r\n    emit _Application(\r\n      _listingHash,\r\n      _amount,\r\n      listing.applicationExpiry,\r\n      _data,\r\n      msg.sender\r\n    );\r\n  }\r\n\r\n  /**\r\n  @dev                Allows the owner of a listingHash to increase their unstaked deposit.\r\n  @param _listingHash A listingHash msg.sender is the owner of\r\n  @param _amount      The number of ERC20 tokens to increase a user's unstaked deposit\r\n  */\r\n  function deposit(bytes32 _listingHash, uint _amount) external {\r\n    Listing storage listing = listings[_listingHash];\r\n\r\n    require(listing.owner == msg.sender);\r\n\r\n    listing.unstakedDeposit = listing.unstakedDeposit.add(_amount);\r\n    require(token.transferFrom(msg.sender, this, _amount));\r\n\r\n    emit _Deposit(\r\n      _listingHash,\r\n      _amount,\r\n      listing.unstakedDeposit,\r\n      msg.sender\r\n    );\r\n  }\r\n\r\n  /**\r\n  @dev                Allows the owner of a listingHash to decrease their unstaked deposit.\r\n  @param _listingHash A listingHash msg.sender is the owner of.\r\n  @param _amount      The number of ERC20 tokens to withdraw from the unstaked deposit.\r\n  */\r\n  function withdraw(bytes32 _listingHash, uint _amount) external {\r\n    Listing storage listing = listings[_listingHash];\r\n\r\n    require(listing.owner == msg.sender);\r\n    require(_amount <= listing.unstakedDeposit);\r\n    require(listing.unstakedDeposit.sub(_amount) >= parameterizer.get(\"minDeposit\"));\r\n\r\n    listing.unstakedDeposit = listing.unstakedDeposit.sub(_amount);\r\n    require(token.transfer(msg.sender, _amount));\r\n\r\n    emit _Withdrawal(\r\n      _listingHash,\r\n      _amount,\r\n      listing.unstakedDeposit,\r\n      msg.sender\r\n    );\r\n  }\r\n\r\n  /**\r\n  @dev                Allows the owner of a listingHash to remove the listingHash from the whitelist\r\n                      Returns all tokens to the owner of the listingHash\r\n  @param _listingHash A listingHash msg.sender is the owner of.\r\n  */\r\n  function exit(bytes32 _listingHash) external {\r\n    Listing storage listing = listings[_listingHash];\r\n\r\n    require(msg.sender == listing.owner);\r\n    require(isWhitelisted(_listingHash));\r\n\r\n    // Cannot exit during ongoing challenge\r\n    require(listing.challengeID == 0 || challenges[listing.challengeID].resolved);\r\n\r\n    // Remove listingHash & return tokens\r\n    resetListing(_listingHash);\r\n    emit _ListingWithdrawn(_listingHash);\r\n  }\r\n\r\n  // -----------------------\r\n  // TOKEN HOLDER INTERFACE:\r\n  // -----------------------\r\n\r\n  /**\r\n  @dev                Starts a poll for a listingHash which is either in the apply stage or\r\n                      already in the whitelist. Tokens are taken from the challenger and the\r\n                      applicant's deposits are locked.\r\n  @param _listingHash The listingHash being challenged, whether listed or in application\r\n  @param _data        Extra data relevant to the challenge. Think IPFS hashes.\r\n  */\r\n  function challenge(bytes32 _listingHash, string _data) external returns (uint challengeID) {\r\n    Listing storage listing = listings[_listingHash];\r\n    uint minDeposit = parameterizer.get(\"minDeposit\");\r\n\r\n    // Listing must be in apply stage or already on the whitelist\r\n    require(appWasMade(_listingHash) || listing.whitelisted);\r\n    // Prevent multiple challenges\r\n    require(listing.challengeID == 0 || challenges[listing.challengeID].resolved);\r\n\r\n    if (listing.unstakedDeposit < minDeposit) {\r\n      // Not enough tokens, listingHash auto-delisted\r\n      resetListing(_listingHash);\r\n      emit _TouchAndRemoved(_listingHash);\r\n      return 0;\r\n    }\r\n\r\n    // Starts poll\r\n    uint pollID = voting.startPoll(\r\n      parameterizer.get(\"voteQuorum\"),\r\n      parameterizer.get(\"commitStageLen\"),\r\n      parameterizer.get(\"revealStageLen\")\r\n    );\r\n\r\n    challenges[pollID] = Challenge({\r\n      challenger: msg.sender,\r\n      rewardPool: uint(100).sub(parameterizer.get(\"dispensationPct\")).mul(minDeposit).div(100),\r\n      stake: minDeposit,\r\n      resolved: false,\r\n      totalTokens: 0\r\n    });\r\n\r\n    // Updates listingHash to store most recent challenge\r\n    listing.challengeID = pollID;\r\n\r\n    // Locks tokens for listingHash during challenge\r\n    listing.unstakedDeposit = listing.unstakedDeposit.sub(minDeposit);\r\n\r\n    // Takes tokens from challenger\r\n    require(token.transferFrom(msg.sender, this, minDeposit));\r\n\r\n    uint commitEndDate;\r\n    uint revealEndDate;\r\n    (commitEndDate, revealEndDate,) = voting.pollMap(pollID);\r\n\r\n    emit _Challenge(\r\n      _listingHash,\r\n      pollID,\r\n      _data,\r\n      commitEndDate,\r\n      revealEndDate,\r\n      msg.sender\r\n    );\r\n\r\n    return pollID;\r\n  }\r\n\r\n  /**\r\n  @dev                Updates a listingHash's status from 'application' to 'listing' or resolves\r\n                      a challenge if one exists.\r\n  @param _listingHash The listingHash whose status is being updated\r\n  */\r\n  function updateStatus(bytes32 _listingHash) public {\r\n    if (canBeWhitelisted(_listingHash)) {\r\n      whitelistApplication(_listingHash);\r\n    } else if (challengeCanBeResolved(_listingHash)) {\r\n      resolveChallenge(_listingHash);\r\n    } else {\r\n      revert();\r\n    }\r\n  }\r\n\r\n  // ----------------\r\n  // TOKEN FUNCTIONS:\r\n  // ----------------\r\n\r\n  /**\r\n  @dev                Called by a voter to claim their reward for each completed vote. Someone\r\n                      must call updateStatus() before this can be called.\r\n  @param _challengeID The PLCR pollID of the challenge a reward is being claimed for\r\n  @param _salt        The salt of a voter's commit hash in the given poll\r\n  */\r\n  function claimReward(uint _challengeID, uint _salt) public {\r\n    // Ensures the voter has not already claimed tokens and challenge results have been processed\r\n    require(challenges[_challengeID].tokenClaims[msg.sender] == false);\r\n    require(challenges[_challengeID].resolved == true);\r\n\r\n    uint voterTokens = voting.getNumPassingTokens(msg.sender, _challengeID, _salt);\r\n    uint reward = voterReward(msg.sender, _challengeID, _salt);\r\n\r\n    // Subtracts the voter's information to preserve the participation ratios\r\n    // of other voters compared to the remaining pool of rewards\r\n    challenges[_challengeID].totalTokens = challenges[_challengeID].totalTokens.sub(voterTokens);\r\n    challenges[_challengeID].rewardPool = challenges[_challengeID].rewardPool.sub(reward);\r\n\r\n    // Ensures a voter cannot claim tokens again\r\n    challenges[_challengeID].tokenClaims[msg.sender] = true;\r\n\r\n    require(token.transfer(msg.sender, reward));\r\n\r\n    emit _RewardClaimed(_challengeID, reward, msg.sender);\r\n  }\r\n\r\n  // --------\r\n  // GETTERS:\r\n  // --------\r\n\r\n  /**\r\n  @dev                Calculates the provided voter's token reward for the given poll.\r\n  @param _voter       The address of the voter whose reward balance is to be returned\r\n  @param _challengeID The pollID of the challenge a reward balance is being queried for\r\n  @param _salt        The salt of the voter's commit hash in the given poll\r\n  @return             The uint indicating the voter's reward\r\n  */\r\n  function voterReward(address _voter, uint _challengeID, uint _salt)\r\n  public view returns (uint)\r\n  {\r\n    uint totalTokens = challenges[_challengeID].totalTokens;\r\n    uint rewardPool = challenges[_challengeID].rewardPool;\r\n    uint voterTokens = voting.getNumPassingTokens(_voter, _challengeID, _salt);\r\n    return voterTokens.mul(rewardPool).div(totalTokens);\r\n  }\r\n\r\n  /**\r\n  @dev                Determines whether the given listingHash be whitelisted.\r\n  @param _listingHash The listingHash whose status is to be examined\r\n  */\r\n  function canBeWhitelisted(bytes32 _listingHash) view public returns (bool) {\r\n    uint challengeID = listings[_listingHash].challengeID;\r\n\r\n    // Ensures that the application was made,\r\n    // the application period has ended,\r\n    // the listingHash can be whitelisted,\r\n    // and either: the challengeID == 0, or the challenge has been resolved.\r\n    if (\r\n      /* solium-disable-next-line */\r\n      appWasMade(_listingHash) &&\r\n      /* solium-disable-next-line */\r\n      listings[_listingHash].applicationExpiry < now &&\r\n      /* solium-disable-next-line */\r\n      !isWhitelisted(_listingHash) &&\r\n      (challengeID == 0 || challenges[challengeID].resolved == true)\r\n    ) {return true;}\r\n\r\n    return false;\r\n  }\r\n\r\n  /**\r\n  @dev                Returns true if the provided listingHash is whitelisted\r\n  @param _listingHash The listingHash whose status is to be examined\r\n  */\r\n  function isWhitelisted(bytes32 _listingHash) view public returns (bool whitelisted) {\r\n    return listings[_listingHash].whitelisted;\r\n  }\r\n\r\n  function getData(bytes32 _listingHash) view public returns(string data) {\r\n    return listings[_listingHash].data;\r\n  }\r\n  /**\r\n  @dev                Returns true if apply was called for this listingHash\r\n  @param _listingHash The listingHash whose status is to be examined\r\n  */\r\n  function appWasMade(bytes32 _listingHash) view public returns (bool exists) {\r\n    return listings[_listingHash].applicationExpiry > 0;\r\n  }\r\n\r\n  /**\r\n  @dev                Returns true if the application/listingHash has an unresolved challenge\r\n  @param _listingHash The listingHash whose status is to be examined\r\n  */\r\n  function challengeExists(bytes32 _listingHash) view public returns (bool) {\r\n    uint challengeID = listings[_listingHash].challengeID;\r\n\r\n    return (listings[_listingHash].challengeID > 0 && !challenges[challengeID].resolved);\r\n  }\r\n\r\n  /**\r\n  @dev                Determines whether voting has concluded in a challenge for a given\r\n                      listingHash. Throws if no challenge exists.\r\n  @param _listingHash A listingHash with an unresolved challenge\r\n  */\r\n  function challengeCanBeResolved(bytes32 _listingHash) view public returns (bool) {\r\n    uint challengeID = listings[_listingHash].challengeID;\r\n\r\n    require(challengeExists(_listingHash));\r\n\r\n    return voting.pollEnded(challengeID);\r\n  }\r\n\r\n  /**\r\n  @dev                Determines the number of tokens awarded to the winning party in a challenge.\r\n  @param _challengeID The challengeID to determine a reward for\r\n  */\r\n  function determineReward(uint _challengeID) public view returns (uint) {\r\n    require(!challenges[_challengeID].resolved && voting.pollEnded(_challengeID));\r\n\r\n    // Edge case, nobody voted, give all tokens to the challenger.\r\n    if (voting.getTotalNumberOfTokensForWinningOption(_challengeID) == 0) {\r\n      return uint(2).mul(challenges[_challengeID].stake);\r\n    }\r\n\r\n    return uint(2).mul(challenges[_challengeID].stake).sub(challenges[_challengeID].rewardPool);\r\n  }\r\n\r\n  /**\r\n  @dev                Getter for Challenge tokenClaims mappings\r\n  @param _challengeID The challengeID to query\r\n  @param _voter       The voter whose claim status to query for the provided challengeID\r\n  */\r\n  function tokenClaims(uint _challengeID, address _voter) public view returns (bool) {\r\n    return challenges[_challengeID].tokenClaims[_voter];\r\n  }\r\n\r\n  // ----------------\r\n  // PRIVATE FUNCTIONS:\r\n  // ----------------\r\n\r\n  /**\r\n  @dev                Determines the winner in a challenge. Rewards the winner tokens and\r\n                      either whitelists or de-whitelists the listingHash.\r\n  @param _listingHash A listingHash with a challenge that is to be resolved\r\n  */\r\n  function resolveChallenge(bytes32 _listingHash) private {\r\n    uint challengeID = listings[_listingHash].challengeID;\r\n\r\n    // Calculates the winner's reward,\r\n    // which is: (winner's full stake) + (dispensationPct * loser's stake)\r\n    uint reward = determineReward(challengeID);\r\n\r\n    // Sets flag on challenge being processed\r\n    challenges[challengeID].resolved = true;\r\n\r\n    // Stores the total tokens used for voting by the winning side for reward purposes\r\n    challenges[challengeID].totalTokens = voting.getTotalNumberOfTokensForWinningOption(challengeID);\r\n\r\n    // Case: challenge failed\r\n    if (voting.isPassed(challengeID)) {\r\n      whitelistApplication(_listingHash);\r\n      // Unlock stake so that it can be retrieved by the applicant\r\n      listings[_listingHash].unstakedDeposit = listings[_listingHash].unstakedDeposit.add(reward);\r\n\r\n      emit _ChallengeFailed(\r\n        _listingHash,\r\n        challengeID,\r\n        challenges[challengeID].rewardPool,\r\n        challenges[challengeID].totalTokens\r\n      );\r\n    } else { // Case: challenge succeeded or nobody voted\r\n      resetListing(_listingHash);\r\n      // Transfer the reward to the challenger\r\n      require(token.transfer(challenges[challengeID].challenger, reward));\r\n\r\n      emit _ChallengeSucceeded(\r\n        _listingHash,\r\n        challengeID,\r\n        challenges[challengeID].rewardPool,\r\n        challenges[challengeID].totalTokens\r\n      );\r\n    }\r\n  }\r\n\r\n  /**\r\n  @dev                Called by updateStatus() if the applicationExpiry date passed without a\r\n                      challenge being made. Called by resolveChallenge() if an\r\n                      application/listing beat a challenge.\r\n  @param _listingHash The listingHash of an application/listingHash to be whitelisted\r\n  */\r\n  function whitelistApplication(bytes32 _listingHash) private {\r\n    if (!listings[_listingHash].whitelisted) {emit _ApplicationWhitelisted(_listingHash);}\r\n    listings[_listingHash].whitelisted = true;\r\n  }\r\n\r\n  /**\r\n  @dev                Deletes a listingHash from the whitelist and transfers tokens back to owner\r\n  @param _listingHash The listing hash to delete\r\n  */\r\n  function resetListing(bytes32 _listingHash) private {\r\n    Listing storage listing = listings[_listingHash];\r\n\r\n    // Emit events before deleting listing to check whether is whitelisted\r\n    if (listing.whitelisted) {\r\n      emit _ListingRemoved(_listingHash);\r\n    } else {\r\n      emit _ApplicationRemoved(_listingHash);\r\n    }\r\n\r\n    // Deleting listing to prevent reentry\r\n    address owner = listing.owner;\r\n    uint unstakedDeposit = listing.unstakedDeposit;\r\n    delete listings[_listingHash];\r\n\r\n    // Transfers any remaining balance back to the owner\r\n    if (unstakedDeposit > 0) {\r\n      require(token.transfer(owner, unstakedDeposit));\r\n    }\r\n  }\r\n}\r\n",
  "sourcePath": "C:\\Users\\Artur\\computable\\computable\\contracts\\Registry.sol",
  "compiler": {
    "name": "solc",
    "version": "0.4.24+commit.e67f0147.Emscripten.clang"
  },
  "schemaVersion": "2.0.1",
  "updatedAt": "2018-08-01T17:47:57.897Z"
}