{
  "contractName": "Registry",
  "abi": [
    {
      "constant": true,
      "inputs": [],
      "name": "name",
      "outputs": [
        {
          "name": "",
          "type": "string"
        }
      ],
      "payable": false,
      "stateMutability": "view",
      "type": "function"
    },
    {
      "constant": true,
      "inputs": [
        {
          "name": "",
          "type": "uint256"
        }
      ],
      "name": "challenges",
      "outputs": [
        {
          "name": "rewardPool",
          "type": "uint256"
        },
        {
          "name": "challenger",
          "type": "address"
        },
        {
          "name": "resolved",
          "type": "bool"
        },
        {
          "name": "stake",
          "type": "uint256"
        },
        {
          "name": "totalTokens",
          "type": "uint256"
        }
      ],
      "payable": false,
      "stateMutability": "view",
      "type": "function"
    },
    {
      "constant": true,
      "inputs": [
        {
          "name": "",
          "type": "bytes32"
        }
      ],
      "name": "listings",
      "outputs": [
        {
          "name": "applicationExpiry",
          "type": "uint256"
        },
        {
          "name": "whitelisted",
          "type": "bool"
        },
        {
          "name": "owner",
          "type": "address"
        },
        {
          "name": "unstakedDeposit",
          "type": "uint256"
        },
        {
          "name": "challengeID",
          "type": "uint256"
        }
      ],
      "payable": false,
      "stateMutability": "view",
      "type": "function"
    },
    {
      "constant": true,
      "inputs": [],
      "name": "parameterizer",
      "outputs": [
        {
          "name": "",
          "type": "address"
        }
      ],
      "payable": false,
      "stateMutability": "view",
      "type": "function"
    },
    {
      "constant": true,
      "inputs": [],
      "name": "token",
      "outputs": [
        {
          "name": "",
          "type": "address"
        }
      ],
      "payable": false,
      "stateMutability": "view",
      "type": "function"
    },
    {
      "constant": true,
      "inputs": [],
      "name": "voting",
      "outputs": [
        {
          "name": "",
          "type": "address"
        }
      ],
      "payable": false,
      "stateMutability": "view",
      "type": "function"
    },
    {
      "inputs": [
        {
          "name": "_tokenAddr",
          "type": "address"
        },
        {
          "name": "_plcrAddr",
          "type": "address"
        },
        {
          "name": "_paramsAddr",
          "type": "address"
        },
        {
          "name": "_name",
          "type": "string"
        }
      ],
      "payable": false,
      "stateMutability": "nonpayable",
      "type": "constructor"
    },
    {
      "anonymous": false,
      "inputs": [
        {
          "indexed": true,
          "name": "listingHash",
          "type": "bytes32"
        },
        {
          "indexed": false,
          "name": "deposit",
          "type": "uint256"
        },
        {
          "indexed": false,
          "name": "appEndDate",
          "type": "uint256"
        },
        {
          "indexed": false,
          "name": "data",
          "type": "string"
        },
        {
          "indexed": true,
          "name": "applicant",
          "type": "address"
        }
      ],
      "name": "_Application",
      "type": "event"
    },
    {
      "anonymous": false,
      "inputs": [
        {
          "indexed": true,
          "name": "listingHash",
          "type": "bytes32"
        },
        {
          "indexed": false,
          "name": "challengeID",
          "type": "uint256"
        },
        {
          "indexed": false,
          "name": "data",
          "type": "string"
        },
        {
          "indexed": false,
          "name": "commitEndDate",
          "type": "uint256"
        },
        {
          "indexed": false,
          "name": "revealEndDate",
          "type": "uint256"
        },
        {
          "indexed": true,
          "name": "challenger",
          "type": "address"
        }
      ],
      "name": "_Challenge",
      "type": "event"
    },
    {
      "anonymous": false,
      "inputs": [
        {
          "indexed": true,
          "name": "listingHash",
          "type": "bytes32"
        },
        {
          "indexed": false,
          "name": "added",
          "type": "uint256"
        },
        {
          "indexed": false,
          "name": "newTotal",
          "type": "uint256"
        },
        {
          "indexed": true,
          "name": "owner",
          "type": "address"
        }
      ],
      "name": "_Deposit",
      "type": "event"
    },
    {
      "anonymous": false,
      "inputs": [
        {
          "indexed": true,
          "name": "listingHash",
          "type": "bytes32"
        },
        {
          "indexed": false,
          "name": "withdrew",
          "type": "uint256"
        },
        {
          "indexed": false,
          "name": "newTotal",
          "type": "uint256"
        },
        {
          "indexed": true,
          "name": "owner",
          "type": "address"
        }
      ],
      "name": "_Withdrawal",
      "type": "event"
    },
    {
      "anonymous": false,
      "inputs": [
        {
          "indexed": true,
          "name": "listingHash",
          "type": "bytes32"
        }
      ],
      "name": "_ApplicationWhitelisted",
      "type": "event"
    },
    {
      "anonymous": false,
      "inputs": [
        {
          "indexed": true,
          "name": "listingHash",
          "type": "bytes32"
        }
      ],
      "name": "_ApplicationRemoved",
      "type": "event"
    },
    {
      "anonymous": false,
      "inputs": [
        {
          "indexed": true,
          "name": "listingHash",
          "type": "bytes32"
        }
      ],
      "name": "_ListingRemoved",
      "type": "event"
    },
    {
      "anonymous": false,
      "inputs": [
        {
          "indexed": true,
          "name": "listingHash",
          "type": "bytes32"
        }
      ],
      "name": "_ListingWithdrawn",
      "type": "event"
    },
    {
      "anonymous": false,
      "inputs": [
        {
          "indexed": true,
          "name": "listingHash",
          "type": "bytes32"
        }
      ],
      "name": "_TouchAndRemoved",
      "type": "event"
    },
    {
      "anonymous": false,
      "inputs": [
        {
          "indexed": true,
          "name": "listingHash",
          "type": "bytes32"
        },
        {
          "indexed": true,
          "name": "challengeID",
          "type": "uint256"
        },
        {
          "indexed": false,
          "name": "rewardPool",
          "type": "uint256"
        },
        {
          "indexed": false,
          "name": "totalTokens",
          "type": "uint256"
        }
      ],
      "name": "_ChallengeFailed",
      "type": "event"
    },
    {
      "anonymous": false,
      "inputs": [
        {
          "indexed": true,
          "name": "listingHash",
          "type": "bytes32"
        },
        {
          "indexed": true,
          "name": "challengeID",
          "type": "uint256"
        },
        {
          "indexed": false,
          "name": "rewardPool",
          "type": "uint256"
        },
        {
          "indexed": false,
          "name": "totalTokens",
          "type": "uint256"
        }
      ],
      "name": "_ChallengeSucceeded",
      "type": "event"
    },
    {
      "anonymous": false,
      "inputs": [
        {
          "indexed": true,
          "name": "challengeID",
          "type": "uint256"
        },
        {
          "indexed": false,
          "name": "reward",
          "type": "uint256"
        },
        {
          "indexed": true,
          "name": "voter",
          "type": "address"
        }
      ],
      "name": "_RewardClaimed",
      "type": "event"
    },
    {
      "constant": false,
      "inputs": [
        {
          "name": "_listingHash",
          "type": "bytes32"
        },
        {
          "name": "_amount",
          "type": "uint256"
        },
        {
          "name": "_data",
          "type": "string"
        }
      ],
      "name": "apply",
      "outputs": [],
      "payable": false,
      "stateMutability": "nonpayable",
      "type": "function"
    },
    {
      "constant": false,
      "inputs": [
        {
          "name": "_listingHash",
          "type": "bytes32"
        },
        {
          "name": "_amount",
          "type": "uint256"
        }
      ],
      "name": "deposit",
      "outputs": [],
      "payable": false,
      "stateMutability": "nonpayable",
      "type": "function"
    },
    {
      "constant": false,
      "inputs": [
        {
          "name": "_listingHash",
          "type": "bytes32"
        },
        {
          "name": "_amount",
          "type": "uint256"
        }
      ],
      "name": "withdraw",
      "outputs": [],
      "payable": false,
      "stateMutability": "nonpayable",
      "type": "function"
    },
    {
      "constant": false,
      "inputs": [
        {
          "name": "_listingHash",
          "type": "bytes32"
        }
      ],
      "name": "exit",
      "outputs": [],
      "payable": false,
      "stateMutability": "nonpayable",
      "type": "function"
    },
    {
      "constant": false,
      "inputs": [
        {
          "name": "_listingHash",
          "type": "bytes32"
        },
        {
          "name": "_data",
          "type": "string"
        }
      ],
      "name": "challenge",
      "outputs": [
        {
          "name": "challengeID",
          "type": "uint256"
        }
      ],
      "payable": false,
      "stateMutability": "nonpayable",
      "type": "function"
    },
    {
      "constant": false,
      "inputs": [
        {
          "name": "_listingHash",
          "type": "bytes32"
        }
      ],
      "name": "updateStatus",
      "outputs": [],
      "payable": false,
      "stateMutability": "nonpayable",
      "type": "function"
    },
    {
      "constant": false,
      "inputs": [
        {
          "name": "_challengeID",
          "type": "uint256"
        },
        {
          "name": "_salt",
          "type": "uint256"
        }
      ],
      "name": "claimReward",
      "outputs": [],
      "payable": false,
      "stateMutability": "nonpayable",
      "type": "function"
    },
    {
      "constant": true,
      "inputs": [
        {
          "name": "_voter",
          "type": "address"
        },
        {
          "name": "_challengeID",
          "type": "uint256"
        },
        {
          "name": "_salt",
          "type": "uint256"
        }
      ],
      "name": "voterReward",
      "outputs": [
        {
          "name": "",
          "type": "uint256"
        }
      ],
      "payable": false,
      "stateMutability": "view",
      "type": "function"
    },
    {
      "constant": true,
      "inputs": [
        {
          "name": "_listingHash",
          "type": "bytes32"
        }
      ],
      "name": "canBeWhitelisted",
      "outputs": [
        {
          "name": "",
          "type": "bool"
        }
      ],
      "payable": false,
      "stateMutability": "view",
      "type": "function"
    },
    {
      "constant": true,
      "inputs": [
        {
          "name": "_listingHash",
          "type": "bytes32"
        }
      ],
      "name": "isWhitelisted",
      "outputs": [
        {
          "name": "whitelisted",
          "type": "bool"
        }
      ],
      "payable": false,
      "stateMutability": "view",
      "type": "function"
    },
    {
      "constant": true,
      "inputs": [
        {
          "name": "_listingHash",
          "type": "bytes32"
        }
      ],
      "name": "appWasMade",
      "outputs": [
        {
          "name": "exists",
          "type": "bool"
        }
      ],
      "payable": false,
      "stateMutability": "view",
      "type": "function"
    },
    {
      "constant": true,
      "inputs": [
        {
          "name": "_listingHash",
          "type": "bytes32"
        }
      ],
      "name": "challengeExists",
      "outputs": [
        {
          "name": "",
          "type": "bool"
        }
      ],
      "payable": false,
      "stateMutability": "view",
      "type": "function"
    },
    {
      "constant": true,
      "inputs": [
        {
          "name": "_listingHash",
          "type": "bytes32"
        }
      ],
      "name": "challengeCanBeResolved",
      "outputs": [
        {
          "name": "",
          "type": "bool"
        }
      ],
      "payable": false,
      "stateMutability": "view",
      "type": "function"
    },
    {
      "constant": true,
      "inputs": [
        {
          "name": "_challengeID",
          "type": "uint256"
        }
      ],
      "name": "determineReward",
      "outputs": [
        {
          "name": "",
          "type": "uint256"
        }
      ],
      "payable": false,
      "stateMutability": "view",
      "type": "function"
    },
    {
      "constant": true,
      "inputs": [
        {
          "name": "_challengeID",
          "type": "uint256"
        },
        {
          "name": "_voter",
          "type": "address"
        }
      ],
      "name": "tokenClaims",
      "outputs": [
        {
          "name": "",
          "type": "bool"
        }
      ],
      "payable": false,
      "stateMutability": "view",
      "type": "function"
    }
  ],
  "bytecode": "0x60806040523480156200001157600080fd5b50604051620033da380380620033da8339810180604052810190808051906020019092919080519060200190929190805190602001909291908051820192919050505083600260006101000a81548173ffffffffffffffffffffffffffffffffffffffff021916908373ffffffffffffffffffffffffffffffffffffffff16021790555082600360006101000a81548173ffffffffffffffffffffffffffffffffffffffff021916908373ffffffffffffffffffffffffffffffffffffffff16021790555081600460006101000a81548173ffffffffffffffffffffffffffffffffffffffff021916908373ffffffffffffffffffffffffffffffffffffffff16021790555080600590805190602001906200012f9291906200013a565b5050505050620001e9565b828054600181600116156101000203166002900490600052602060002090601f016020900481019282601f106200017d57805160ff1916838001178555620001ae565b82800160010185558215620001ae579182015b82811115620001ad57825182559160200191906001019062000190565b5b509050620001bd9190620001c1565b5090565b620001e691905b80821115620001e2576000816000905550600101620001c8565b5090565b90565b6131e180620001f96000396000f30060806040526004361061011d576000357c0100000000000000000000000000000000000000000000000000000000900463ffffffff16806301a5e3fe14610122578063040cf0201461016b57806306fdde03146101a65780630ca36263146102365780631b7bbecb146102675780631de26e16146102b057806343cffefe146102eb578063691a38ab1461034857806377609a411461039157806386bb8f37146103da57806389bb55c7146104115780638a59eb56146104645780638cf8151f146104955780638f1d3776146104de578063a5ba3b1e1461056b578063a7aad3db146105d0578063c18b8db41461063b578063c8187cf1146106cc578063e1e3f9151461070d578063fc0c546a14610764578063fce1ccca146107bb575b600080fd5b34801561012e57600080fd5b506101516004803603810190808035600019169060200190929190505050610812565b604051808215151515815260200191505060405180910390f35b34801561017757600080fd5b506101a4600480360381019080803560001916906020019092919080359060200190929190505050610847565b005b3480156101b257600080fd5b506101bb610b69565b6040518080602001828103825283818151815260200191508051906020019080838360005b838110156101fb5780820151818401526020810190506101e0565b50505050905090810190601f1680156102285780820380516001836020036101000a031916815260200191505b509250505060405180910390f35b34801561024257600080fd5b506102656004803603810190808035600019169060200190929190505050610c07565b005b34801561027357600080fd5b506102966004803603810190808035600019169060200190929190505050610d17565b604051808215151515815260200191505060405180910390f35b3480156102bc57600080fd5b506102e9600480360381019080803560001916906020019092919080359060200190929190505050610d91565b005b3480156102f757600080fd5b506103326004803603810190808035600019169060200190929190803590602001908201803590602001919091929391929390505050610fc3565b6040518082815260200191505060405180910390f35b34801561035457600080fd5b506103776004803603810190808035600019169060200190929190505050611a51565b604051808215151515815260200191505060405180910390f35b34801561039d57600080fd5b506103c06004803603810190808035600019169060200190929190505050611b0f565b604051808215151515815260200191505060405180910390f35b3480156103e657600080fd5b5061040f6004803603810190808035906020019092919080359060200190929190505050611c1b565b005b34801561041d57600080fd5b50610462600480360381019080803560001916906020019092919080359060200190929190803590602001908201803590602001919091929391929390505050611fed565b005b34801561047057600080fd5b50610493600480360381019080803560001916906020019092919050505061248f565b005b3480156104a157600080fd5b506104c460048036038101908080356000191690602001909291905050506124d0565b604051808215151515815260200191505060405180910390f35b3480156104ea57600080fd5b50610509600480360381019080803590602001909291905050506124fa565b604051808681526020018573ffffffffffffffffffffffffffffffffffffffff1673ffffffffffffffffffffffffffffffffffffffff168152602001841515151581526020018381526020018281526020019550505050505060405180910390f35b34801561057757600080fd5b506105b660048036038101908080359060200190929190803573ffffffffffffffffffffffffffffffffffffffff16906020019092919050505061255d565b604051808215151515815260200191505060405180910390f35b3480156105dc57600080fd5b50610625600480360381019080803573ffffffffffffffffffffffffffffffffffffffff16906020019092919080359060200190929190803590602001909291905050506125c7565b6040518082815260200191505060405180910390f35b34801561064757600080fd5b5061066a6004803603810190808035600019169060200190929190505050612721565b60405180868152602001851515151581526020018473ffffffffffffffffffffffffffffffffffffffff1673ffffffffffffffffffffffffffffffffffffffff1681526020018381526020018281526020019550505050505060405180910390f35b3480156106d857600080fd5b506106f760048036038101908080359060200190929190505050612784565b6040518082815260200191505060405180910390f35b34801561071957600080fd5b506107226129b5565b604051808273ffffffffffffffffffffffffffffffffffffffff1673ffffffffffffffffffffffffffffffffffffffff16815260200191505060405180910390f35b34801561077057600080fd5b506107796129db565b604051808273ffffffffffffffffffffffffffffffffffffffff1673ffffffffffffffffffffffffffffffffffffffff16815260200191505060405180910390f35b3480156107c757600080fd5b506107d0612a01565b604051808273ffffffffffffffffffffffffffffffffffffffff1673ffffffffffffffffffffffffffffffffffffffff16815260200191505060405180910390f35b600060016000836000191660001916815260200190815260200160002060010160009054906101000a900460ff169050919050565b600060016000846000191660001916815260200190815260200160002090503373ffffffffffffffffffffffffffffffffffffffff168160010160019054906101000a900473ffffffffffffffffffffffffffffffffffffffff1673ffffffffffffffffffffffffffffffffffffffff161415156108c457600080fd5b806002015482111515156108d757600080fd5b600460009054906101000a900473ffffffffffffffffffffffffffffffffffffffff1673ffffffffffffffffffffffffffffffffffffffff1663693ec85e6040518163ffffffff167c010000000000000000000000000000000000000000000000000000000002815260040180806020018281038252600a8152602001807f6d696e4465706f73697400000000000000000000000000000000000000000000815250602001915050602060405180830381600087803b15801561099957600080fd5b505af11580156109ad573d6000803e3d6000fd5b505050506040513d60208110156109c357600080fd5b810190808051906020019092919050505082826002015403101515156109e857600080fd5b818160020160008282540392505081905550600260009054906101000a900473ffffffffffffffffffffffffffffffffffffffff1673ffffffffffffffffffffffffffffffffffffffff1663a9059cbb33846040518363ffffffff167c0100000000000000000000000000000000000000000000000000000000028152600401808373ffffffffffffffffffffffffffffffffffffffff1673ffffffffffffffffffffffffffffffffffffffff16815260200182815260200192505050602060405180830381600087803b158015610abf57600080fd5b505af1158015610ad3573d6000803e3d6000fd5b505050506040513d6020811015610ae957600080fd5b81019080805190602001909291905050501515610b0557600080fd5b3373ffffffffffffffffffffffffffffffffffffffff1683600019167f9d9ed58779badf90c56d72f3b54def9f73dc875d8f86416c8334b55328c6c106848460020154604051808381526020018281526020019250505060405180910390a3505050565b60058054600181600116156101000203166002900480601f016020809104026020016040519081016040528092919081815260200182805460018160011615610100020316600290048015610bff5780601f10610bd457610100808354040283529160200191610bff565b820191906000526020600020905b815481529060010190602001808311610be257829003601f168201915b505050505081565b600060016000836000191660001916815260200190815260200160002090508060010160019054906101000a900473ffffffffffffffffffffffffffffffffffffffff1673ffffffffffffffffffffffffffffffffffffffff163373ffffffffffffffffffffffffffffffffffffffff16141515610c8457600080fd5b610c8d82610812565b1515610c9857600080fd5b600081600301541480610cce57506000808260030154815260200190815260200160002060010160149054906101000a900460ff165b1515610cd957600080fd5b610ce282612a27565b81600019167f8a51904a50ce4451be09dc08242bd2d5565b05cf0f4f5aa88c77f96fdf538b4260405160405180910390a25050565b600080600160008460001916600019168152602001908152602001600020600301549050600060016000856000191660001916815260200190815260200160002060030154118015610d89575060008082815260200190815260200160002060010160149054906101000a900460ff16155b915050919050565b600060016000846000191660001916815260200190815260200160002090503373ffffffffffffffffffffffffffffffffffffffff168160010160019054906101000a900473ffffffffffffffffffffffffffffffffffffffff1673ffffffffffffffffffffffffffffffffffffffff16141515610e0e57600080fd5b818160020160008282540192505081905550600260009054906101000a900473ffffffffffffffffffffffffffffffffffffffff1673ffffffffffffffffffffffffffffffffffffffff166323b872dd3330856040518463ffffffff167c0100000000000000000000000000000000000000000000000000000000028152600401808473ffffffffffffffffffffffffffffffffffffffff1673ffffffffffffffffffffffffffffffffffffffff1681526020018373ffffffffffffffffffffffffffffffffffffffff1673ffffffffffffffffffffffffffffffffffffffff1681526020018281526020019350505050602060405180830381600087803b158015610f1957600080fd5b505af1158015610f2d573d6000803e3d6000fd5b505050506040513d6020811015610f4357600080fd5b81019080805190602001909291905050501515610f5f57600080fd5b3373ffffffffffffffffffffffffffffffffffffffff1683600019167ff63fcfb210c709154f0260502b2586fcee5550d17dc828be3127ccdedec620ab848460020154604051808381526020018281526020019250505060405180910390a3505050565b600080600080600080600160008a600019166000191681526020019081526020016000209450600460009054906101000a900473ffffffffffffffffffffffffffffffffffffffff1673ffffffffffffffffffffffffffffffffffffffff1663693ec85e6040518163ffffffff167c010000000000000000000000000000000000000000000000000000000002815260040180806020018281038252600a8152602001807f6d696e4465706f73697400000000000000000000000000000000000000000000815250602001915050602060405180830381600087803b1580156110ab57600080fd5b505af11580156110bf573d6000803e3d6000fd5b505050506040513d60208110156110d557600080fd5b810190808051906020019092919050505093506110f1896124d0565b8061110a57508460010160009054906101000a900460ff165b151561111557600080fd5b60008560030154148061114b57506000808660030154815260200190815260200160002060010160149054906101000a900460ff165b151561115657600080fd5b83856002015410156111a55761116b89612a27565b88600019167f4a9ee335af9e32f32f2229943dc7a0d3b5adf7e4c5c4062b372eae8c476d928660405160405180910390a260009550611a45565b600360009054906101000a900473ffffffffffffffffffffffffffffffffffffffff1673ffffffffffffffffffffffffffffffffffffffff166332ed3d60600460009054906101000a900473ffffffffffffffffffffffffffffffffffffffff1673ffffffffffffffffffffffffffffffffffffffff1663693ec85e6040518163ffffffff167c010000000000000000000000000000000000000000000000000000000002815260040180806020018281038252600a8152602001807f766f746551756f72756d00000000000000000000000000000000000000000000815250602001915050602060405180830381600087803b1580156112a557600080fd5b505af11580156112b9573d6000803e3d6000fd5b505050506040513d60208110156112cf57600080fd5b8101908080519060200190929190505050600460009054906101000a900473ffffffffffffffffffffffffffffffffffffffff1673ffffffffffffffffffffffffffffffffffffffff1663693ec85e6040518163ffffffff167c010000000000000000000000000000000000000000000000000000000002815260040180806020018281038252600e8152602001807f636f6d6d697453746167654c656e000000000000000000000000000000000000815250602001915050602060405180830381600087803b1580156113a257600080fd5b505af11580156113b6573d6000803e3d6000fd5b505050506040513d60208110156113cc57600080fd5b8101908080519060200190929190505050600460009054906101000a900473ffffffffffffffffffffffffffffffffffffffff1673ffffffffffffffffffffffffffffffffffffffff1663693ec85e6040518163ffffffff167c010000000000000000000000000000000000000000000000000000000002815260040180806020018281038252600e8152602001807f72657665616c53746167654c656e000000000000000000000000000000000000815250602001915050602060405180830381600087803b15801561149f57600080fd5b505af11580156114b3573d6000803e3d6000fd5b505050506040513d60208110156114c957600080fd5b81019080805190602001909291905050506040518463ffffffff167c0100000000000000000000000000000000000000000000000000000000028152600401808481526020018381526020018281526020019350505050602060405180830381600087803b15801561153a57600080fd5b505af115801561154e573d6000803e3d6000fd5b505050506040513d602081101561156457600080fd5b8101908080519060200190929190505050925060a060405190810160405280606486600460009054906101000a900473ffffffffffffffffffffffffffffffffffffffff1673ffffffffffffffffffffffffffffffffffffffff1663693ec85e6040518163ffffffff167c010000000000000000000000000000000000000000000000000000000002815260040180806020018281038252600f8152602001807f64697370656e736174696f6e5063740000000000000000000000000000000000815250602001915050602060405180830381600087803b15801561164857600080fd5b505af115801561165c573d6000803e3d6000fd5b505050506040513d602081101561167257600080fd5b81019080805190602001909291905050506064030281151561169057fe5b0481526020013373ffffffffffffffffffffffffffffffffffffffff16815260200160001515815260200185815260200160008152506000808581526020019081526020016000206000820151816000015560208201518160010160006101000a81548173ffffffffffffffffffffffffffffffffffffffff021916908373ffffffffffffffffffffffffffffffffffffffff16021790555060408201518160010160146101000a81548160ff0219169083151502179055506060820151816002015560808201518160030155905050828560030181905550838560020160008282540392505081905550600260009054906101000a900473ffffffffffffffffffffffffffffffffffffffff1673ffffffffffffffffffffffffffffffffffffffff166323b872dd3330876040518463ffffffff167c0100000000000000000000000000000000000000000000000000000000028152600401808473ffffffffffffffffffffffffffffffffffffffff1673ffffffffffffffffffffffffffffffffffffffff1681526020018373ffffffffffffffffffffffffffffffffffffffff1673ffffffffffffffffffffffffffffffffffffffff1681526020018281526020019350505050602060405180830381600087803b15801561187457600080fd5b505af1158015611888573d6000803e3d6000fd5b505050506040513d602081101561189e57600080fd5b810190808051906020019092919050505015156118ba57600080fd5b600360009054906101000a900473ffffffffffffffffffffffffffffffffffffffff1673ffffffffffffffffffffffffffffffffffffffff16636148fed5846040518263ffffffff167c01000000000000000000000000000000000000000000000000000000000281526004018082815260200191505060a060405180830381600087803b15801561194b57600080fd5b505af115801561195f573d6000803e3d6000fd5b505050506040513d60a081101561197557600080fd5b81019080805190602001909291908051906020019092919080519060200190929190805190602001909291908051906020019092919050505090915090505080925081935050503373ffffffffffffffffffffffffffffffffffffffff1689600019167ff98a08756a3603420a080d66764f73deb1e30896c315cfed03e17f88f5eb30f7858b8b8787604051808681526020018060200184815260200183815260200182810382528686828181526020019250808284378201915050965050505050505060405180910390a38295505b50505050509392505050565b600080600160008460001916600019168152602001908152602001600020600301549050611a7e836124d0565b8015611aa757504260016000856000191660001916815260200190815260200160002060000154105b8015611ab95750611ab783610812565b155b8015611af657506000811480611af557506001151560008083815260200190815260200160002060010160149054906101000a900460ff161515145b5b15611b045760019150611b09565b600091505b50919050565b600080600160008460001916600019168152602001908152602001600020600301549050611b3c83610d17565b1515611b4757600080fd5b600360009054906101000a900473ffffffffffffffffffffffffffffffffffffffff1673ffffffffffffffffffffffffffffffffffffffff1663ee684830826040518263ffffffff167c010000000000000000000000000000000000000000000000000000000002815260040180828152602001915050602060405180830381600087803b158015611bd857600080fd5b505af1158015611bec573d6000803e3d6000fd5b505050506040513d6020811015611c0257600080fd5b8101908080519060200190929190505050915050919050565b6000806000151560008086815260200190815260200160002060040160003373ffffffffffffffffffffffffffffffffffffffff1673ffffffffffffffffffffffffffffffffffffffff16815260200190815260200160002060009054906101000a900460ff161515141515611c9057600080fd5b6001151560008086815260200190815260200160002060010160149054906101000a900460ff161515141515611cc557600080fd5b600360009054906101000a900473ffffffffffffffffffffffffffffffffffffffff1673ffffffffffffffffffffffffffffffffffffffff1663b43bd0693386866040518463ffffffff167c0100000000000000000000000000000000000000000000000000000000028152600401808473ffffffffffffffffffffffffffffffffffffffff1673ffffffffffffffffffffffffffffffffffffffff1681526020018381526020018281526020019350505050602060405180830381600087803b158015611d9257600080fd5b505af1158015611da6573d6000803e3d6000fd5b505050506040513d6020811015611dbc57600080fd5b81019080805190602001909291905050509150611dda3385856125c7565b905081600080868152602001908152602001600020600301600082825403925050819055508060008086815260200190815260200160002060000160008282540392505081905550600160008086815260200190815260200160002060040160003373ffffffffffffffffffffffffffffffffffffffff1673ffffffffffffffffffffffffffffffffffffffff16815260200190815260200160002060006101000a81548160ff021916908315150217905550600260009054906101000a900473ffffffffffffffffffffffffffffffffffffffff1673ffffffffffffffffffffffffffffffffffffffff1663a9059cbb33836040518363ffffffff167c0100000000000000000000000000000000000000000000000000000000028152600401808373ffffffffffffffffffffffffffffffffffffffff1673ffffffffffffffffffffffffffffffffffffffff16815260200182815260200192505050602060405180830381600087803b158015611f5257600080fd5b505af1158015611f66573d6000803e3d6000fd5b505050506040513d6020811015611f7c57600080fd5b81019080805190602001909291905050501515611f9857600080fd5b3373ffffffffffffffffffffffffffffffffffffffff16847f6f4c982acc31b0af2cf1dc1556f21c0325d893782d65e83c68a5534a33f59957836040518082815260200191505060405180910390a350505050565b6000611ff885610812565b15151561200457600080fd5b61200d856124d0565b15151561201957600080fd5b600460009054906101000a900473ffffffffffffffffffffffffffffffffffffffff1673ffffffffffffffffffffffffffffffffffffffff1663693ec85e6040518163ffffffff167c010000000000000000000000000000000000000000000000000000000002815260040180806020018281038252600a8152602001807f6d696e4465706f73697400000000000000000000000000000000000000000000815250602001915050602060405180830381600087803b1580156120db57600080fd5b505af11580156120ef573d6000803e3d6000fd5b505050506040513d602081101561210557600080fd5b8101908080519060200190929190505050841015151561212457600080fd5b6001600086600019166000191681526020019081526020016000209050338160010160016101000a81548173ffffffffffffffffffffffffffffffffffffffff021916908373ffffffffffffffffffffffffffffffffffffffff160217905550612293600460009054906101000a900473ffffffffffffffffffffffffffffffffffffffff1673ffffffffffffffffffffffffffffffffffffffff1663693ec85e6040518163ffffffff167c010000000000000000000000000000000000000000000000000000000002815260040180806020018281038252600d8152602001807f6170706c7953746167654c656e00000000000000000000000000000000000000815250602001915050602060405180830381600087803b15801561224957600080fd5b505af115801561225d573d6000803e3d6000fd5b505050506040513d602081101561227357600080fd5b810190808051906020019092919050505042612c8290919063ffffffff16565b8160000181905550838160020181905550600260009054906101000a900473ffffffffffffffffffffffffffffffffffffffff1673ffffffffffffffffffffffffffffffffffffffff166323b872dd8260010160019054906101000a900473ffffffffffffffffffffffffffffffffffffffff1630876040518463ffffffff167c0100000000000000000000000000000000000000000000000000000000028152600401808473ffffffffffffffffffffffffffffffffffffffff1673ffffffffffffffffffffffffffffffffffffffff1681526020018373ffffffffffffffffffffffffffffffffffffffff1673ffffffffffffffffffffffffffffffffffffffff1681526020018281526020019350505050602060405180830381600087803b1580156123c157600080fd5b505af11580156123d5573d6000803e3d6000fd5b505050506040513d60208110156123eb57600080fd5b8101908080519060200190929190505050151561240757600080fd5b3373ffffffffffffffffffffffffffffffffffffffff1685600019167fa27f550c3c7a7c6d8369e5383fdc7a3b4850d8ce9e20066f9d496f6989f0086486846000015487876040518085815260200184815260200180602001828103825284848281815260200192508082843782019150509550505050505060405180910390a35050505050565b61249881611a51565b156124ab576124a681612c9e565b6124cd565b6124b481611b0f565b156124c7576124c281612d3b565b6124cc565b600080fd5b5b50565b60008060016000846000191660001916815260200190815260200160002060000154119050919050565b60006020528060005260406000206000915090508060000154908060010160009054906101000a900473ffffffffffffffffffffffffffffffffffffffff16908060010160149054906101000a900460ff16908060020154908060030154905085565b600080600084815260200190815260200160002060040160008373ffffffffffffffffffffffffffffffffffffffff1673ffffffffffffffffffffffffffffffffffffffff16815260200190815260200160002060009054906101000a900460ff16905092915050565b600080600080600080878152602001908152602001600020600301549250600080878152602001908152602001600020600001549150600360009054906101000a900473ffffffffffffffffffffffffffffffffffffffff1673ffffffffffffffffffffffffffffffffffffffff1663b43bd0698888886040518463ffffffff167c0100000000000000000000000000000000000000000000000000000000028152600401808473ffffffffffffffffffffffffffffffffffffffff1673ffffffffffffffffffffffffffffffffffffffff1681526020018381526020018281526020019350505050602060405180830381600087803b1580156126ca57600080fd5b505af11580156126de573d6000803e3d6000fd5b505050506040513d60208110156126f457600080fd5b810190808051906020019092919050505090508282820281151561271457fe5b0493505050509392505050565b60016020528060005260406000206000915090508060000154908060010160009054906101000a900460ff16908060010160019054906101000a900473ffffffffffffffffffffffffffffffffffffffff16908060020154908060030154905085565b600080600083815260200190815260200160002060010160149054906101000a900460ff1615801561287e5750600360009054906101000a900473ffffffffffffffffffffffffffffffffffffffff1673ffffffffffffffffffffffffffffffffffffffff1663ee684830836040518263ffffffff167c010000000000000000000000000000000000000000000000000000000002815260040180828152602001915050602060405180830381600087803b15801561284257600080fd5b505af1158015612856573d6000803e3d6000fd5b505050506040513d602081101561286c57600080fd5b81019080805190602001909291905050505b151561288957600080fd5b6000600360009054906101000a900473ffffffffffffffffffffffffffffffffffffffff1673ffffffffffffffffffffffffffffffffffffffff1663053e71a6846040518263ffffffff167c010000000000000000000000000000000000000000000000000000000002815260040180828152602001915050602060405180830381600087803b15801561291c57600080fd5b505af1158015612930573d6000803e3d6000fd5b505050506040513d602081101561294657600080fd5b8101908080519060200190929190505050141561297d576000808381526020019081526020016000206002015460020290506129b0565b60008083815260200190815260200160002060000154600080848152602001908152602001600020600201546002020390505b919050565b600460009054906101000a900473ffffffffffffffffffffffffffffffffffffffff1681565b600260009054906101000a900473ffffffffffffffffffffffffffffffffffffffff1681565b600360009054906101000a900473ffffffffffffffffffffffffffffffffffffffff1681565b600080600060016000856000191660001916815260200190815260200160002092508260010160009054906101000a900460ff1615612a965783600019167fd1ffb796b7108387b2f02adf47b4b81a1690cf2a190422c87a4f670780103e6360405160405180910390a2612ac8565b83600019167f2e5ec035f6eac8ff1cf7cdf36cfeca7c85413f9f67652dc2c13d20f337204a2660405160405180910390a25b8260010160019054906101000a900473ffffffffffffffffffffffffffffffffffffffff169150826002015490506001600085600019166000191681526020019081526020016000206000808201600090556001820160006101000a81549060ff02191690556001820160016101000a81549073ffffffffffffffffffffffffffffffffffffffff02191690556002820160009055600382016000905550506000811115612c7c57600260009054906101000a900473ffffffffffffffffffffffffffffffffffffffff1673ffffffffffffffffffffffffffffffffffffffff1663a9059cbb83836040518363ffffffff167c0100000000000000000000000000000000000000000000000000000000028152600401808373ffffffffffffffffffffffffffffffffffffffff1673ffffffffffffffffffffffffffffffffffffffff16815260200182815260200192505050602060405180830381600087803b158015612c3557600080fd5b505af1158015612c49573d6000803e3d6000fd5b505050506040513d6020811015612c5f57600080fd5b81019080805190602001909291905050501515612c7b57600080fd5b5b50505050565b60008183019050828110151515612c9557fe5b80905092915050565b60016000826000191660001916815260200190815260200160002060010160009054906101000a900460ff161515612d025780600019167fa7bc1d57d9006d9d248707c7b6828c1bab8c51719cc06d78c82a3ee891ef967c60405160405180910390a25b6001806000836000191660001916815260200190815260200160002060010160006101000a81548160ff02191690831515021790555050565b600080600160008460001916600019168152602001908152602001600020600301549150612d6882612784565b9050600160008084815260200190815260200160002060010160146101000a81548160ff021916908315150217905550600360009054906101000a900473ffffffffffffffffffffffffffffffffffffffff1673ffffffffffffffffffffffffffffffffffffffff1663053e71a6836040518263ffffffff167c010000000000000000000000000000000000000000000000000000000002815260040180828152602001915050602060405180830381600087803b158015612e2957600080fd5b505af1158015612e3d573d6000803e3d6000fd5b505050506040513d6020811015612e5357600080fd5b810190808051906020019092919050505060008084815260200190815260200160002060030181905550600360009054906101000a900473ffffffffffffffffffffffffffffffffffffffff1673ffffffffffffffffffffffffffffffffffffffff166349403183836040518263ffffffff167c010000000000000000000000000000000000000000000000000000000002815260040180828152602001915050602060405180830381600087803b158015612f0e57600080fd5b505af1158015612f22573d6000803e3d6000fd5b505050506040513d6020811015612f3857600080fd5b810190808051906020019092919050505015612ff757612f5783612c9e565b80600160008560001916600019168152602001908152602001600020600201600082825401925050819055508183600019167fc4497224aa78dd50c9b3e344aab02596201ca1e6dca4057a91a6c02f83f4f6c16000808681526020019081526020016000206000015460008087815260200190815260200160002060030154604051808381526020018281526020019250505060405180910390a36131b0565b61300083612a27565b600260009054906101000a900473ffffffffffffffffffffffffffffffffffffffff1673ffffffffffffffffffffffffffffffffffffffff1663a9059cbb60008085815260200190815260200160002060010160009054906101000a900473ffffffffffffffffffffffffffffffffffffffff16836040518363ffffffff167c0100000000000000000000000000000000000000000000000000000000028152600401808373ffffffffffffffffffffffffffffffffffffffff1673ffffffffffffffffffffffffffffffffffffffff16815260200182815260200192505050602060405180830381600087803b1580156130fa57600080fd5b505af115801561310e573d6000803e3d6000fd5b505050506040513d602081101561312457600080fd5b8101908080519060200190929190505050151561314057600080fd5b8183600019167f362a12431f779a2baff4f77f75ba7960ae993a5c41b425df11f7fd0af2b9cbe66000808681526020019081526020016000206000015460008087815260200190815260200160002060030154604051808381526020018281526020019250505060405180910390a35b5050505600a165627a7a723058208e19e1f1a28ad99ba4dcd3b291c4ef77a840fb7aafab5fdf9a47f06eecdb774b0029",
  "source": "pragma solidity 0.4.24;\n\nimport \"./ERC20.sol\";\nimport \"./Parameterizer.sol\";\nimport \"./PLCRVoting.sol\";\nimport \"./SafeMath.sol\";\n\n\ncontract Registry {\n\n  // ------\n  // EVENTS\n  // ------\n\n  event _Application(bytes32 indexed listingHash, uint deposit, uint appEndDate, string data, address indexed applicant);\n  event _Challenge(bytes32 indexed listingHash, uint challengeID, string data, uint commitEndDate, uint revealEndDate, address indexed challenger);\n  event _Deposit(bytes32 indexed listingHash, uint added, uint newTotal, address indexed owner);\n  event _Withdrawal(bytes32 indexed listingHash, uint withdrew, uint newTotal, address indexed owner);\n  event _ApplicationWhitelisted(bytes32 indexed listingHash);\n  event _ApplicationRemoved(bytes32 indexed listingHash);\n  event _ListingRemoved(bytes32 indexed listingHash);\n  event _ListingWithdrawn(bytes32 indexed listingHash);\n  event _TouchAndRemoved(bytes32 indexed listingHash);\n  event _ChallengeFailed(bytes32 indexed listingHash, uint indexed challengeID, uint rewardPool, uint totalTokens);\n  event _ChallengeSucceeded(bytes32 indexed listingHash, uint indexed challengeID, uint rewardPool, uint totalTokens);\n  event _RewardClaimed(uint indexed challengeID, uint reward, address indexed voter);\n\n  using SafeMath for uint;\n\n  struct Listing {\n    uint applicationExpiry; // Expiration date of apply stage\n    bool whitelisted;       // Indicates registry status\n    address owner;          // Owner of Listing\n    uint unstakedDeposit;   // Number of tokens in the listing not locked in a challenge\n    uint challengeID;       // Corresponds to a PollID in PLCRVoting\n  }\n\n  struct Challenge {\n    uint rewardPool;        // (remaining) Pool of tokens to be distributed to winning voters\n    address challenger;     // Owner of Challenge\n    bool resolved;          // Indication of if challenge is resolved\n    uint stake;             // Number of tokens at stake for either party during challenge\n    uint totalTokens;       // (remaining) Number of tokens used in voting by the winning side\n    mapping(address => bool) tokenClaims; // Indicates whether a voter has claimed a reward yet\n  }\n\n  // Maps challengeIDs to associated challenge data\n  mapping(uint => Challenge) public challenges;\n\n  // Maps listingHashes to associated listingHash data\n  mapping(bytes32 => Listing) public listings;\n\n  // Global Variables\n  ERC20 public token;\n  PLCRVoting public voting;\n  Parameterizer public parameterizer;\n  string public name;\n\n  // ------------\n  // CONSTRUCTOR:\n  // ------------\n\n  /**\n  @dev Contructor         Sets the addresses for token, voting, and parameterizer\n  @param _tokenAddr       Address of the TCR's intrinsic ERC20 token\n  @param _plcrAddr        Address of a PLCR voting contract for the provided token\n  @param _paramsAddr      Address of a Parameterizer contract\n  */\n  constructor(\n    address _tokenAddr,\n    address _plcrAddr,\n    address _paramsAddr,\n    string _name\n  ) public\n  {\n    token = ERC20(_tokenAddr);\n    voting = PLCRVoting(_plcrAddr);\n    parameterizer = Parameterizer(_paramsAddr);\n    name = _name;\n  }\n\n  // --------------------\n  // PUBLISHER INTERFACE:\n  // --------------------\n\n  /**\n  @dev                Allows a user to start an application. Takes tokens from user and sets\n                      apply stage end time.\n  @param _listingHash The hash of a potential listing a user is applying to add to the registry\n  @param _amount      The number of ERC20 tokens a user is willing to potentially stake\n  @param _data        Extra data relevant to the application. Think IPFS hashes.\n  */\n  function apply(bytes32 _listingHash, uint _amount, string _data) external {\n    require(!isWhitelisted(_listingHash));\n    require(!appWasMade(_listingHash));\n    require(_amount >= parameterizer.get(\"minDeposit\"));\n\n    // Sets owner\n    Listing storage listing = listings[_listingHash];\n    listing.owner = msg.sender;\n\n    // Sets apply stage end time\n    listing.applicationExpiry = block.timestamp.add(parameterizer.get(\"applyStageLen\"));\n    listing.unstakedDeposit = _amount;\n\n    // Transfers tokens from user to Registry contract\n    require(token.transferFrom(listing.owner, this, _amount));\n\n    emit _Application(\n      _listingHash,\n      _amount,\n      listing.applicationExpiry,\n      _data,\n      msg.sender\n    );\n  }\n\n  /**\n  @dev                Allows the owner of a listingHash to increase their unstaked deposit.\n  @param _listingHash A listingHash msg.sender is the owner of\n  @param _amount      The number of ERC20 tokens to increase a user's unstaked deposit\n  */\n  function deposit(bytes32 _listingHash, uint _amount) external {\n    Listing storage listing = listings[_listingHash];\n\n    require(listing.owner == msg.sender);\n\n    listing.unstakedDeposit += _amount;\n    require(token.transferFrom(msg.sender, this, _amount));\n\n    emit _Deposit(\n      _listingHash,\n      _amount,\n      listing.unstakedDeposit,\n      msg.sender\n    );\n  }\n\n  /**\n  @dev                Allows the owner of a listingHash to decrease their unstaked deposit.\n  @param _listingHash A listingHash msg.sender is the owner of.\n  @param _amount      The number of ERC20 tokens to withdraw from the unstaked deposit.\n  */\n  function withdraw(bytes32 _listingHash, uint _amount) external {\n    Listing storage listing = listings[_listingHash];\n\n    require(listing.owner == msg.sender);\n    require(_amount <= listing.unstakedDeposit);\n    require(listing.unstakedDeposit - _amount >= parameterizer.get(\"minDeposit\"));\n\n    listing.unstakedDeposit -= _amount;\n    require(token.transfer(msg.sender, _amount));\n\n    emit _Withdrawal(\n      _listingHash,\n      _amount,\n      listing.unstakedDeposit,\n      msg.sender\n    );\n  }\n\n  /**\n  @dev                Allows the owner of a listingHash to remove the listingHash from the whitelist\n                      Returns all tokens to the owner of the listingHash\n  @param _listingHash A listingHash msg.sender is the owner of.\n  */\n  function exit(bytes32 _listingHash) external {\n    Listing storage listing = listings[_listingHash];\n\n    require(msg.sender == listing.owner);\n    require(isWhitelisted(_listingHash));\n\n    // Cannot exit during ongoing challenge\n    require(listing.challengeID == 0 || challenges[listing.challengeID].resolved);\n\n    // Remove listingHash & return tokens\n    resetListing(_listingHash);\n    emit _ListingWithdrawn(_listingHash);\n  }\n\n  // -----------------------\n  // TOKEN HOLDER INTERFACE:\n  // -----------------------\n\n  /**\n  @dev                Starts a poll for a listingHash which is either in the apply stage or\n                      already in the whitelist. Tokens are taken from the challenger and the\n                      applicant's deposits are locked.\n  @param _listingHash The listingHash being challenged, whether listed or in application\n  @param _data        Extra data relevant to the challenge. Think IPFS hashes.\n  */\n  function challenge(bytes32 _listingHash, string _data) external returns (uint challengeID) {\n    Listing storage listing = listings[_listingHash];\n    uint minDeposit = parameterizer.get(\"minDeposit\");\n\n    // Listing must be in apply stage or already on the whitelist\n    require(appWasMade(_listingHash) || listing.whitelisted);\n    // Prevent multiple challenges\n    require(listing.challengeID == 0 || challenges[listing.challengeID].resolved);\n\n    if (listing.unstakedDeposit < minDeposit) {\n      // Not enough tokens, listingHash auto-delisted\n      resetListing(_listingHash);\n      emit _TouchAndRemoved(_listingHash);\n      return 0;\n    }\n\n    // Starts poll\n    uint pollID = voting.startPoll(\n      parameterizer.get(\"voteQuorum\"),\n      parameterizer.get(\"commitStageLen\"),\n      parameterizer.get(\"revealStageLen\")\n    );\n\n    challenges[pollID] = Challenge({\n      challenger: msg.sender,\n      rewardPool: ((100 - parameterizer.get(\"dispensationPct\")) * minDeposit) / 100,\n      stake: minDeposit,\n      resolved: false,\n      totalTokens: 0\n    });\n\n    // Updates listingHash to store most recent challenge\n    listing.challengeID = pollID;\n\n    // Locks tokens for listingHash during challenge\n    listing.unstakedDeposit -= minDeposit;\n\n    // Takes tokens from challenger\n    require(token.transferFrom(msg.sender, this, minDeposit));\n\n    uint commitEndDate;\n    uint revealEndDate;\n    (commitEndDate, revealEndDate,) = voting.pollMap(pollID);\n\n    emit _Challenge(\n      _listingHash,\n      pollID,\n      _data,\n      commitEndDate,\n      revealEndDate,\n      msg.sender\n    );\n\n    return pollID;\n  }\n\n  /**\n  @dev                Updates a listingHash's status from 'application' to 'listing' or resolves\n                      a challenge if one exists.\n  @param _listingHash The listingHash whose status is being updated\n  */\n  function updateStatus(bytes32 _listingHash) public {\n    if (canBeWhitelisted(_listingHash)) {\n      whitelistApplication(_listingHash);\n    } else if (challengeCanBeResolved(_listingHash)) {\n      resolveChallenge(_listingHash);\n    } else {\n      revert();\n    }\n  }\n\n  // ----------------\n  // TOKEN FUNCTIONS:\n  // ----------------\n\n  /**\n  @dev                Called by a voter to claim their reward for each completed vote. Someone\n                      must call updateStatus() before this can be called.\n  @param _challengeID The PLCR pollID of the challenge a reward is being claimed for\n  @param _salt        The salt of a voter's commit hash in the given poll\n  */\n  function claimReward(uint _challengeID, uint _salt) public {\n    // Ensures the voter has not already claimed tokens and challenge results have been processed\n    require(challenges[_challengeID].tokenClaims[msg.sender] == false);\n    require(challenges[_challengeID].resolved == true);\n\n    uint voterTokens = voting.getNumPassingTokens(msg.sender, _challengeID, _salt);\n    uint reward = voterReward(msg.sender, _challengeID, _salt);\n\n    // Subtracts the voter's information to preserve the participation ratios\n    // of other voters compared to the remaining pool of rewards\n    challenges[_challengeID].totalTokens -= voterTokens;\n    challenges[_challengeID].rewardPool -= reward;\n\n    // Ensures a voter cannot claim tokens again\n    challenges[_challengeID].tokenClaims[msg.sender] = true;\n\n    require(token.transfer(msg.sender, reward));\n\n    emit _RewardClaimed(_challengeID, reward, msg.sender);\n  }\n\n  // --------\n  // GETTERS:\n  // --------\n\n  /**\n  @dev                Calculates the provided voter's token reward for the given poll.\n  @param _voter       The address of the voter whose reward balance is to be returned\n  @param _challengeID The pollID of the challenge a reward balance is being queried for\n  @param _salt        The salt of the voter's commit hash in the given poll\n  @return             The uint indicating the voter's reward\n  */\n  function voterReward(address _voter, uint _challengeID, uint _salt)\n  public view returns (uint)\n  {\n    uint totalTokens = challenges[_challengeID].totalTokens;\n    uint rewardPool = challenges[_challengeID].rewardPool;\n    uint voterTokens = voting.getNumPassingTokens(_voter, _challengeID, _salt);\n    return (voterTokens * rewardPool) / totalTokens;\n  }\n\n  /**\n  @dev                Determines whether the given listingHash be whitelisted.\n  @param _listingHash The listingHash whose status is to be examined\n  */\n  function canBeWhitelisted(bytes32 _listingHash) view public returns (bool) {\n    uint challengeID = listings[_listingHash].challengeID;\n\n    // Ensures that the application was made,\n    // the application period has ended,\n    // the listingHash can be whitelisted,\n    // and either: the challengeID == 0, or the challenge has been resolved.\n    if (\n      /* solium-disable-next-line */\n      appWasMade(_listingHash) &&\n      /* solium-disable-next-line */\n      listings[_listingHash].applicationExpiry < now &&\n      /* solium-disable-next-line */\n      !isWhitelisted(_listingHash) &&\n      (challengeID == 0 || challenges[challengeID].resolved == true)\n    ) {return true;}\n\n    return false;\n  }\n\n  /**\n  @dev                Returns true if the provided listingHash is whitelisted\n  @param _listingHash The listingHash whose status is to be examined\n  */\n  function isWhitelisted(bytes32 _listingHash) view public returns (bool whitelisted) {\n    return listings[_listingHash].whitelisted;\n  }\n\n  /**\n  @dev                Returns true if apply was called for this listingHash\n  @param _listingHash The listingHash whose status is to be examined\n  */\n  function appWasMade(bytes32 _listingHash) view public returns (bool exists) {\n    return listings[_listingHash].applicationExpiry > 0;\n  }\n\n  /**\n  @dev                Returns true if the application/listingHash has an unresolved challenge\n  @param _listingHash The listingHash whose status is to be examined\n  */\n  function challengeExists(bytes32 _listingHash) view public returns (bool) {\n    uint challengeID = listings[_listingHash].challengeID;\n\n    return (listings[_listingHash].challengeID > 0 && !challenges[challengeID].resolved);\n  }\n\n  /**\n  @dev                Determines whether voting has concluded in a challenge for a given\n                      listingHash. Throws if no challenge exists.\n  @param _listingHash A listingHash with an unresolved challenge\n  */\n  function challengeCanBeResolved(bytes32 _listingHash) view public returns (bool) {\n    uint challengeID = listings[_listingHash].challengeID;\n\n    require(challengeExists(_listingHash));\n\n    return voting.pollEnded(challengeID);\n  }\n\n  /**\n  @dev                Determines the number of tokens awarded to the winning party in a challenge.\n  @param _challengeID The challengeID to determine a reward for\n  */\n  function determineReward(uint _challengeID) public view returns (uint) {\n    require(!challenges[_challengeID].resolved && voting.pollEnded(_challengeID));\n\n    // Edge case, nobody voted, give all tokens to the challenger.\n    if (voting.getTotalNumberOfTokensForWinningOption(_challengeID) == 0) {\n      return 2 * challenges[_challengeID].stake;\n    }\n\n    return (2 * challenges[_challengeID].stake) - challenges[_challengeID].rewardPool;\n  }\n\n  /**\n  @dev                Getter for Challenge tokenClaims mappings\n  @param _challengeID The challengeID to query\n  @param _voter       The voter whose claim status to query for the provided challengeID\n  */\n  function tokenClaims(uint _challengeID, address _voter) public view returns (bool) {\n    return challenges[_challengeID].tokenClaims[_voter];\n  }\n\n  // ----------------\n  // PRIVATE FUNCTIONS:\n  // ----------------\n\n  /**\n  @dev                Determines the winner in a challenge. Rewards the winner tokens and\n                      either whitelists or de-whitelists the listingHash.\n  @param _listingHash A listingHash with a challenge that is to be resolved\n  */\n  function resolveChallenge(bytes32 _listingHash) private {\n    uint challengeID = listings[_listingHash].challengeID;\n\n    // Calculates the winner's reward,\n    // which is: (winner's full stake) + (dispensationPct * loser's stake)\n    uint reward = determineReward(challengeID);\n\n    // Sets flag on challenge being processed\n    challenges[challengeID].resolved = true;\n\n    // Stores the total tokens used for voting by the winning side for reward purposes\n    challenges[challengeID].totalTokens = voting.getTotalNumberOfTokensForWinningOption(challengeID);\n\n    // Case: challenge failed\n    if (voting.isPassed(challengeID)) {\n      whitelistApplication(_listingHash);\n      // Unlock stake so that it can be retrieved by the applicant\n      listings[_listingHash].unstakedDeposit += reward;\n\n      emit _ChallengeFailed(\n        _listingHash,\n        challengeID,\n        challenges[challengeID].rewardPool,\n        challenges[challengeID].totalTokens\n      );\n    } else { // Case: challenge succeeded or nobody voted\n      resetListing(_listingHash);\n      // Transfer the reward to the challenger\n      require(token.transfer(challenges[challengeID].challenger, reward));\n\n      emit _ChallengeSucceeded(\n        _listingHash,\n        challengeID,\n        challenges[challengeID].rewardPool,\n        challenges[challengeID].totalTokens\n      );\n    }\n  }\n\n  /**\n  @dev                Called by updateStatus() if the applicationExpiry date passed without a\n                      challenge being made. Called by resolveChallenge() if an\n                      application/listing beat a challenge.\n  @param _listingHash The listingHash of an application/listingHash to be whitelisted\n  */\n  function whitelistApplication(bytes32 _listingHash) private {\n    if (!listings[_listingHash].whitelisted) {emit _ApplicationWhitelisted(_listingHash);}\n    listings[_listingHash].whitelisted = true;\n  }\n\n  /**\n  @dev                Deletes a listingHash from the whitelist and transfers tokens back to owner\n  @param _listingHash The listing hash to delete\n  */\n  function resetListing(bytes32 _listingHash) private {\n    Listing storage listing = listings[_listingHash];\n\n    // Emit events before deleting listing to check whether is whitelisted\n    if (listing.whitelisted) {\n      emit _ListingRemoved(_listingHash);\n    } else {\n      emit _ApplicationRemoved(_listingHash);\n    }\n\n    // Deleting listing to prevent reentry\n    address owner = listing.owner;\n    uint unstakedDeposit = listing.unstakedDeposit;\n    delete listings[_listingHash];\n\n    // Transfers any remaining balance back to the owner\n    if (unstakedDeposit > 0) {\n      require(token.transfer(owner, unstakedDeposit));\n    }\n  }\n}\n",
  "sourcePath": "/home/rob/Github/computable/contracts/Registry.sol",
  "compiler": {
    "name": "solc",
    "version": "0.4.24+commit.e67f0147.Emscripten.clang"
  },
  "schemaVersion": "2.0.1",
  "updatedAt": "2018-06-21T22:48:42.380Z"
}