{
  "contractName": "Registry",
  "abi": [
    {
      "constant": true,
      "inputs": [],
      "name": "name",
      "outputs": [
        {
          "name": "",
          "type": "string"
        }
      ],
      "payable": false,
      "stateMutability": "view",
      "type": "function"
    },
    {
      "constant": true,
      "inputs": [
        {
          "name": "",
          "type": "uint256"
        }
      ],
      "name": "challenges",
      "outputs": [
        {
          "name": "rewardPool",
          "type": "uint256"
        },
        {
          "name": "challenger",
          "type": "address"
        },
        {
          "name": "resolved",
          "type": "bool"
        },
        {
          "name": "stake",
          "type": "uint256"
        },
        {
          "name": "totalTokens",
          "type": "uint256"
        }
      ],
      "payable": false,
      "stateMutability": "view",
      "type": "function"
    },
    {
      "constant": true,
      "inputs": [
        {
          "name": "",
          "type": "bytes32"
        }
      ],
      "name": "listings",
      "outputs": [
        {
          "name": "applicationExpiry",
          "type": "uint256"
        },
        {
          "name": "whitelisted",
          "type": "bool"
        },
        {
          "name": "owner",
          "type": "address"
        },
        {
          "name": "unstakedDeposit",
          "type": "uint256"
        },
        {
          "name": "challengeID",
          "type": "uint256"
        }
      ],
      "payable": false,
      "stateMutability": "view",
      "type": "function"
    },
    {
      "constant": true,
      "inputs": [],
      "name": "parameterizer",
      "outputs": [
        {
          "name": "",
          "type": "address"
        }
      ],
      "payable": false,
      "stateMutability": "view",
      "type": "function"
    },
    {
      "constant": true,
      "inputs": [],
      "name": "token",
      "outputs": [
        {
          "name": "",
          "type": "address"
        }
      ],
      "payable": false,
      "stateMutability": "view",
      "type": "function"
    },
    {
      "constant": true,
      "inputs": [],
      "name": "voting",
      "outputs": [
        {
          "name": "",
          "type": "address"
        }
      ],
      "payable": false,
      "stateMutability": "view",
      "type": "function"
    },
    {
      "inputs": [
        {
          "name": "_tokenAddr",
          "type": "address"
        },
        {
          "name": "_plcrAddr",
          "type": "address"
        },
        {
          "name": "_paramsAddr",
          "type": "address"
        },
        {
          "name": "_name",
          "type": "string"
        }
      ],
      "payable": false,
      "stateMutability": "nonpayable",
      "type": "constructor"
    },
    {
      "anonymous": false,
      "inputs": [
        {
          "indexed": true,
          "name": "listingHash",
          "type": "bytes32"
        },
        {
          "indexed": false,
          "name": "deposit",
          "type": "uint256"
        },
        {
          "indexed": false,
          "name": "appEndDate",
          "type": "uint256"
        },
        {
          "indexed": false,
          "name": "data",
          "type": "string"
        },
        {
          "indexed": true,
          "name": "applicant",
          "type": "address"
        }
      ],
      "name": "_Application",
      "type": "event"
    },
    {
      "anonymous": false,
      "inputs": [
        {
          "indexed": true,
          "name": "listingHash",
          "type": "bytes32"
        },
        {
          "indexed": false,
          "name": "challengeID",
          "type": "uint256"
        },
        {
          "indexed": false,
          "name": "data",
          "type": "string"
        },
        {
          "indexed": false,
          "name": "commitEndDate",
          "type": "uint256"
        },
        {
          "indexed": false,
          "name": "revealEndDate",
          "type": "uint256"
        },
        {
          "indexed": true,
          "name": "challenger",
          "type": "address"
        }
      ],
      "name": "_Challenge",
      "type": "event"
    },
    {
      "anonymous": false,
      "inputs": [
        {
          "indexed": true,
          "name": "listingHash",
          "type": "bytes32"
        },
        {
          "indexed": false,
          "name": "added",
          "type": "uint256"
        },
        {
          "indexed": false,
          "name": "newTotal",
          "type": "uint256"
        },
        {
          "indexed": true,
          "name": "owner",
          "type": "address"
        }
      ],
      "name": "_Deposit",
      "type": "event"
    },
    {
      "anonymous": false,
      "inputs": [
        {
          "indexed": true,
          "name": "listingHash",
          "type": "bytes32"
        },
        {
          "indexed": false,
          "name": "withdrew",
          "type": "uint256"
        },
        {
          "indexed": false,
          "name": "newTotal",
          "type": "uint256"
        },
        {
          "indexed": true,
          "name": "owner",
          "type": "address"
        }
      ],
      "name": "_Withdrawal",
      "type": "event"
    },
    {
      "anonymous": false,
      "inputs": [
        {
          "indexed": true,
          "name": "listingHash",
          "type": "bytes32"
        }
      ],
      "name": "_ApplicationWhitelisted",
      "type": "event"
    },
    {
      "anonymous": false,
      "inputs": [
        {
          "indexed": true,
          "name": "listingHash",
          "type": "bytes32"
        }
      ],
      "name": "_ApplicationRemoved",
      "type": "event"
    },
    {
      "anonymous": false,
      "inputs": [
        {
          "indexed": true,
          "name": "listingHash",
          "type": "bytes32"
        }
      ],
      "name": "_ListingRemoved",
      "type": "event"
    },
    {
      "anonymous": false,
      "inputs": [
        {
          "indexed": true,
          "name": "listingHash",
          "type": "bytes32"
        }
      ],
      "name": "_ListingWithdrawn",
      "type": "event"
    },
    {
      "anonymous": false,
      "inputs": [
        {
          "indexed": true,
          "name": "listingHash",
          "type": "bytes32"
        }
      ],
      "name": "_TouchAndRemoved",
      "type": "event"
    },
    {
      "anonymous": false,
      "inputs": [
        {
          "indexed": true,
          "name": "listingHash",
          "type": "bytes32"
        },
        {
          "indexed": true,
          "name": "challengeID",
          "type": "uint256"
        },
        {
          "indexed": false,
          "name": "rewardPool",
          "type": "uint256"
        },
        {
          "indexed": false,
          "name": "totalTokens",
          "type": "uint256"
        }
      ],
      "name": "_ChallengeFailed",
      "type": "event"
    },
    {
      "anonymous": false,
      "inputs": [
        {
          "indexed": true,
          "name": "listingHash",
          "type": "bytes32"
        },
        {
          "indexed": true,
          "name": "challengeID",
          "type": "uint256"
        },
        {
          "indexed": false,
          "name": "rewardPool",
          "type": "uint256"
        },
        {
          "indexed": false,
          "name": "totalTokens",
          "type": "uint256"
        }
      ],
      "name": "_ChallengeSucceeded",
      "type": "event"
    },
    {
      "anonymous": false,
      "inputs": [
        {
          "indexed": true,
          "name": "challengeID",
          "type": "uint256"
        },
        {
          "indexed": false,
          "name": "reward",
          "type": "uint256"
        },
        {
          "indexed": true,
          "name": "voter",
          "type": "address"
        }
      ],
      "name": "_RewardClaimed",
      "type": "event"
    },
    {
      "constant": false,
      "inputs": [
        {
          "name": "_listingHash",
          "type": "bytes32"
        },
        {
          "name": "_amount",
          "type": "uint256"
        },
        {
          "name": "_data",
          "type": "string"
        }
      ],
      "name": "apply",
      "outputs": [],
      "payable": false,
      "stateMutability": "nonpayable",
      "type": "function"
    },
    {
      "constant": false,
      "inputs": [
        {
          "name": "_listingHash",
          "type": "bytes32"
        },
        {
          "name": "_amount",
          "type": "uint256"
        }
      ],
      "name": "deposit",
      "outputs": [],
      "payable": false,
      "stateMutability": "nonpayable",
      "type": "function"
    },
    {
      "constant": false,
      "inputs": [
        {
          "name": "_listingHash",
          "type": "bytes32"
        },
        {
          "name": "_amount",
          "type": "uint256"
        }
      ],
      "name": "withdraw",
      "outputs": [],
      "payable": false,
      "stateMutability": "nonpayable",
      "type": "function"
    },
    {
      "constant": false,
      "inputs": [
        {
          "name": "_listingHash",
          "type": "bytes32"
        }
      ],
      "name": "exit",
      "outputs": [],
      "payable": false,
      "stateMutability": "nonpayable",
      "type": "function"
    },
    {
      "constant": false,
      "inputs": [
        {
          "name": "_listingHash",
          "type": "bytes32"
        },
        {
          "name": "_data",
          "type": "string"
        }
      ],
      "name": "challenge",
      "outputs": [
        {
          "name": "challengeID",
          "type": "uint256"
        }
      ],
      "payable": false,
      "stateMutability": "nonpayable",
      "type": "function"
    },
    {
      "constant": false,
      "inputs": [
        {
          "name": "_listingHash",
          "type": "bytes32"
        }
      ],
      "name": "updateStatus",
      "outputs": [],
      "payable": false,
      "stateMutability": "nonpayable",
      "type": "function"
    },
    {
      "constant": false,
      "inputs": [
        {
          "name": "_challengeID",
          "type": "uint256"
        },
        {
          "name": "_salt",
          "type": "uint256"
        }
      ],
      "name": "claimReward",
      "outputs": [],
      "payable": false,
      "stateMutability": "nonpayable",
      "type": "function"
    },
    {
      "constant": true,
      "inputs": [
        {
          "name": "_voter",
          "type": "address"
        },
        {
          "name": "_challengeID",
          "type": "uint256"
        },
        {
          "name": "_salt",
          "type": "uint256"
        }
      ],
      "name": "voterReward",
      "outputs": [
        {
          "name": "",
          "type": "uint256"
        }
      ],
      "payable": false,
      "stateMutability": "view",
      "type": "function"
    },
    {
      "constant": true,
      "inputs": [
        {
          "name": "_listingHash",
          "type": "bytes32"
        }
      ],
      "name": "canBeWhitelisted",
      "outputs": [
        {
          "name": "",
          "type": "bool"
        }
      ],
      "payable": false,
      "stateMutability": "view",
      "type": "function"
    },
    {
      "constant": true,
      "inputs": [
        {
          "name": "_listingHash",
          "type": "bytes32"
        }
      ],
      "name": "isWhitelisted",
      "outputs": [
        {
          "name": "whitelisted",
          "type": "bool"
        }
      ],
      "payable": false,
      "stateMutability": "view",
      "type": "function"
    },
    {
      "constant": true,
      "inputs": [
        {
          "name": "_listingHash",
          "type": "bytes32"
        }
      ],
      "name": "appWasMade",
      "outputs": [
        {
          "name": "exists",
          "type": "bool"
        }
      ],
      "payable": false,
      "stateMutability": "view",
      "type": "function"
    },
    {
      "constant": true,
      "inputs": [
        {
          "name": "_listingHash",
          "type": "bytes32"
        }
      ],
      "name": "challengeExists",
      "outputs": [
        {
          "name": "",
          "type": "bool"
        }
      ],
      "payable": false,
      "stateMutability": "view",
      "type": "function"
    },
    {
      "constant": true,
      "inputs": [
        {
          "name": "_listingHash",
          "type": "bytes32"
        }
      ],
      "name": "challengeCanBeResolved",
      "outputs": [
        {
          "name": "",
          "type": "bool"
        }
      ],
      "payable": false,
      "stateMutability": "view",
      "type": "function"
    },
    {
      "constant": true,
      "inputs": [
        {
          "name": "_challengeID",
          "type": "uint256"
        }
      ],
      "name": "determineReward",
      "outputs": [
        {
          "name": "",
          "type": "uint256"
        }
      ],
      "payable": false,
      "stateMutability": "view",
      "type": "function"
    },
    {
      "constant": true,
      "inputs": [
        {
          "name": "_challengeID",
          "type": "uint256"
        },
        {
          "name": "_voter",
          "type": "address"
        }
      ],
      "name": "tokenClaims",
      "outputs": [
        {
          "name": "",
          "type": "bool"
        }
      ],
      "payable": false,
      "stateMutability": "view",
      "type": "function"
    }
  ],
  "bytecode": "0x606060405234156200001057600080fd5b60405162002f8138038062002f818339810160405280805190602001909190805190602001909190805190602001909190805182019190505083600260006101000a81548173ffffffffffffffffffffffffffffffffffffffff021916908373ffffffffffffffffffffffffffffffffffffffff16021790555082600360006101000a81548173ffffffffffffffffffffffffffffffffffffffff021916908373ffffffffffffffffffffffffffffffffffffffff16021790555081600460006101000a81548173ffffffffffffffffffffffffffffffffffffffff021916908373ffffffffffffffffffffffffffffffffffffffff1602179055508060059080519060200190620001249291906200012f565b5050505050620001de565b828054600181600116156101000203166002900490600052602060002090601f016020900481019282601f106200017257805160ff1916838001178555620001a3565b82800160010185558215620001a3579182015b82811115620001a257825182559160200191906001019062000185565b5b509050620001b29190620001b6565b5090565b620001db91905b80821115620001d7576000816000905550600101620001bd565b5090565b90565b612d9380620001ee6000396000f30060606040526004361061011d576000357c0100000000000000000000000000000000000000000000000000000000900463ffffffff16806301a5e3fe14610122578063040cf0201461016157806306fdde03146101915780630ca362631461021f5780631b7bbecb146102465780631de26e161461028557806343cffefe146102b5578063691a38ab1461030457806377609a411461034357806386bb8f371461038257806389bb55c7146103ae5780638a59eb56146103f25780638cf8151f146104195780638f1d377614610458578063a5ba3b1e146104db578063a7aad3db14610535578063c18b8db414610594578063c8187cf11461061b578063e1e3f91514610652578063fc0c546a146106a7578063fce1ccca146106fc575b600080fd5b341561012d57600080fd5b610147600480803560001916906020019091905050610751565b604051808215151515815260200191505060405180910390f35b341561016c57600080fd5b61018f600480803560001916906020019091908035906020019091905050610786565b005b341561019c57600080fd5b6101a4610a5e565b6040518080602001828103825283818151815260200191508051906020019080838360005b838110156101e45780820151818401526020810190506101c9565b50505050905090810190601f1680156102115780820380516001836020036101000a031916815260200191505b509250505060405180910390f35b341561022a57600080fd5b610244600480803560001916906020019091905050610afc565b005b341561025157600080fd5b61026b600480803560001916906020019091905050610c0c565b604051808215151515815260200191505060405180910390f35b341561029057600080fd5b6102b3600480803560001916906020019091908035906020019091905050610c86565b005b34156102c057600080fd5b6102ee6004808035600019169060200190919080359060200190820180359060200191909192905050610e93565b6040518082815260200191505060405180910390f35b341561030f57600080fd5b6103296004808035600019169060200190919050506117e2565b604051808215151515815260200191505060405180910390f35b341561034e57600080fd5b6103686004808035600019169060200190919050506118a0565b604051808215151515815260200191505060405180910390f35b341561038d57600080fd5b6103ac6004808035906020019091908035906020019091905050611987565b005b34156103b957600080fd5b6103f06004808035600019169060200190919080359060200190919080359060200190820180359060200191909192905050611d0f565b005b34156103fd57600080fd5b610417600480803560001916906020019091905050612142565b005b341561042457600080fd5b61043e600480803560001916906020019091905050612183565b604051808215151515815260200191505060405180910390f35b341561046357600080fd5b61047960048080359060200190919050506121ad565b604051808681526020018573ffffffffffffffffffffffffffffffffffffffff1673ffffffffffffffffffffffffffffffffffffffff168152602001841515151581526020018381526020018281526020019550505050505060405180910390f35b34156104e657600080fd5b61051b600480803590602001909190803573ffffffffffffffffffffffffffffffffffffffff16906020019091905050612210565b604051808215151515815260200191505060405180910390f35b341561054057600080fd5b61057e600480803573ffffffffffffffffffffffffffffffffffffffff1690602001909190803590602001909190803590602001909190505061227a565b6040518082815260200191505060405180910390f35b341561059f57600080fd5b6105b96004808035600019169060200190919050506123af565b60405180868152602001851515151581526020018473ffffffffffffffffffffffffffffffffffffffff1673ffffffffffffffffffffffffffffffffffffffff1681526020018381526020018281526020019550505050505060405180910390f35b341561062657600080fd5b61063c6004808035906020019091905050612412565b6040518082815260200191505060405180910390f35b341561065d57600080fd5b6106656125f9565b604051808273ffffffffffffffffffffffffffffffffffffffff1673ffffffffffffffffffffffffffffffffffffffff16815260200191505060405180910390f35b34156106b257600080fd5b6106ba61261f565b604051808273ffffffffffffffffffffffffffffffffffffffff1673ffffffffffffffffffffffffffffffffffffffff16815260200191505060405180910390f35b341561070757600080fd5b61070f612645565b604051808273ffffffffffffffffffffffffffffffffffffffff1673ffffffffffffffffffffffffffffffffffffffff16815260200191505060405180910390f35b600060016000836000191660001916815260200190815260200160002060010160009054906101000a900460ff169050919050565b600060016000846000191660001916815260200190815260200160002090503373ffffffffffffffffffffffffffffffffffffffff168160010160019054906101000a900473ffffffffffffffffffffffffffffffffffffffff1673ffffffffffffffffffffffffffffffffffffffff1614151561080357600080fd5b8060020154821115151561081657600080fd5b600460009054906101000a900473ffffffffffffffffffffffffffffffffffffffff1673ffffffffffffffffffffffffffffffffffffffff1663693ec85e6040518163ffffffff167c010000000000000000000000000000000000000000000000000000000002815260040180806020018281038252600a8152602001807f6d696e4465706f73697400000000000000000000000000000000000000000000815250602001915050602060405180830381600087803b15156108d757600080fd5b5af115156108e457600080fd5b50505060405180519050828260020154031015151561090257600080fd5b818160020160008282540392505081905550600260009054906101000a900473ffffffffffffffffffffffffffffffffffffffff1673ffffffffffffffffffffffffffffffffffffffff1663a9059cbb33846040518363ffffffff167c0100000000000000000000000000000000000000000000000000000000028152600401808373ffffffffffffffffffffffffffffffffffffffff1673ffffffffffffffffffffffffffffffffffffffff16815260200182815260200192505050602060405180830381600087803b15156109d857600080fd5b5af115156109e557600080fd5b5050506040518051905015156109fa57600080fd5b3373ffffffffffffffffffffffffffffffffffffffff1683600019167f9d9ed58779badf90c56d72f3b54def9f73dc875d8f86416c8334b55328c6c106848460020154604051808381526020018281526020019250505060405180910390a3505050565b60058054600181600116156101000203166002900480601f016020809104026020016040519081016040528092919081815260200182805460018160011615610100020316600290048015610af45780601f10610ac957610100808354040283529160200191610af4565b820191906000526020600020905b815481529060010190602001808311610ad757829003601f168201915b505050505081565b600060016000836000191660001916815260200190815260200160002090508060010160019054906101000a900473ffffffffffffffffffffffffffffffffffffffff1673ffffffffffffffffffffffffffffffffffffffff163373ffffffffffffffffffffffffffffffffffffffff16141515610b7957600080fd5b610b8282610751565b1515610b8d57600080fd5b600081600301541480610bc357506000808260030154815260200190815260200160002060010160149054906101000a900460ff165b1515610bce57600080fd5b610bd78261266b565b81600019167f8a51904a50ce4451be09dc08242bd2d5565b05cf0f4f5aa88c77f96fdf538b4260405160405180910390a25050565b600080600160008460001916600019168152602001908152602001600020600301549050600060016000856000191660001916815260200190815260200160002060030154118015610c7e575060008082815260200190815260200160002060010160149054906101000a900460ff16155b915050919050565b600060016000846000191660001916815260200190815260200160002090503373ffffffffffffffffffffffffffffffffffffffff168160010160019054906101000a900473ffffffffffffffffffffffffffffffffffffffff1673ffffffffffffffffffffffffffffffffffffffff16141515610d0357600080fd5b818160020160008282540192505081905550600260009054906101000a900473ffffffffffffffffffffffffffffffffffffffff1673ffffffffffffffffffffffffffffffffffffffff166323b872dd3330856040518463ffffffff167c0100000000000000000000000000000000000000000000000000000000028152600401808473ffffffffffffffffffffffffffffffffffffffff1673ffffffffffffffffffffffffffffffffffffffff1681526020018373ffffffffffffffffffffffffffffffffffffffff1673ffffffffffffffffffffffffffffffffffffffff1681526020018281526020019350505050602060405180830381600087803b1515610e0d57600080fd5b5af11515610e1a57600080fd5b505050604051805190501515610e2f57600080fd5b3373ffffffffffffffffffffffffffffffffffffffff1683600019167ff63fcfb210c709154f0260502b2586fcee5550d17dc828be3127ccdedec620ab848460020154604051808381526020018281526020019250505060405180910390a3505050565b600080600080600080600160008a600019166000191681526020019081526020016000209450600460009054906101000a900473ffffffffffffffffffffffffffffffffffffffff1673ffffffffffffffffffffffffffffffffffffffff1663693ec85e6040518163ffffffff167c010000000000000000000000000000000000000000000000000000000002815260040180806020018281038252600a8152602001807f6d696e4465706f73697400000000000000000000000000000000000000000000815250602001915050602060405180830381600087803b1515610f7a57600080fd5b5af11515610f8757600080fd5b505050604051805190509350610f9c89612183565b80610fb557508460010160009054906101000a900460ff165b1515610fc057600080fd5b600085600301541480610ff657506000808660030154815260200190815260200160002060010160149054906101000a900460ff165b151561100157600080fd5b8385600201541015611050576110168961266b565b88600019167f4a9ee335af9e32f32f2229943dc7a0d3b5adf7e4c5c4062b372eae8c476d928660405160405180910390a2600095506117d6565b600360009054906101000a900473ffffffffffffffffffffffffffffffffffffffff1673ffffffffffffffffffffffffffffffffffffffff166332ed3d60600460009054906101000a900473ffffffffffffffffffffffffffffffffffffffff1673ffffffffffffffffffffffffffffffffffffffff1663693ec85e6040518163ffffffff167c010000000000000000000000000000000000000000000000000000000002815260040180806020018281038252600a8152602001807f766f746551756f72756d00000000000000000000000000000000000000000000815250602001915050602060405180830381600087803b151561114f57600080fd5b5af1151561115c57600080fd5b50505060405180519050600460009054906101000a900473ffffffffffffffffffffffffffffffffffffffff1673ffffffffffffffffffffffffffffffffffffffff1663693ec85e6040518163ffffffff167c010000000000000000000000000000000000000000000000000000000002815260040180806020018281038252600e8152602001807f636f6d6d697453746167654c656e000000000000000000000000000000000000815250602001915050602060405180830381600087803b151561122757600080fd5b5af1151561123457600080fd5b50505060405180519050600460009054906101000a900473ffffffffffffffffffffffffffffffffffffffff1673ffffffffffffffffffffffffffffffffffffffff1663693ec85e6040518163ffffffff167c010000000000000000000000000000000000000000000000000000000002815260040180806020018281038252600e8152602001807f72657665616c53746167654c656e000000000000000000000000000000000000815250602001915050602060405180830381600087803b15156112ff57600080fd5b5af1151561130c57600080fd5b505050604051805190506040518463ffffffff167c0100000000000000000000000000000000000000000000000000000000028152600401808481526020018381526020018281526020019350505050602060405180830381600087803b151561137557600080fd5b5af1151561138257600080fd5b50505060405180519050925060a060405190810160405280606486600460009054906101000a900473ffffffffffffffffffffffffffffffffffffffff1673ffffffffffffffffffffffffffffffffffffffff1663693ec85e6040518163ffffffff167c010000000000000000000000000000000000000000000000000000000002815260040180806020018281038252600f8152602001807f64697370656e736174696f6e5063740000000000000000000000000000000000815250602001915050602060405180830381600087803b151561145e57600080fd5b5af1151561146b57600080fd5b505050604051805190506064030281151561148257fe5b0481526020013373ffffffffffffffffffffffffffffffffffffffff16815260200160001515815260200185815260200160008152506000808581526020019081526020016000206000820151816000015560208201518160010160006101000a81548173ffffffffffffffffffffffffffffffffffffffff021916908373ffffffffffffffffffffffffffffffffffffffff16021790555060408201518160010160146101000a81548160ff0219169083151502179055506060820151816002015560808201518160030155905050828560030181905550838560020160008282540392505081905550600260009054906101000a900473ffffffffffffffffffffffffffffffffffffffff1673ffffffffffffffffffffffffffffffffffffffff166323b872dd3330876040518463ffffffff167c0100000000000000000000000000000000000000000000000000000000028152600401808473ffffffffffffffffffffffffffffffffffffffff1673ffffffffffffffffffffffffffffffffffffffff1681526020018373ffffffffffffffffffffffffffffffffffffffff1673ffffffffffffffffffffffffffffffffffffffff1681526020018281526020019350505050602060405180830381600087803b151561166557600080fd5b5af1151561167257600080fd5b50505060405180519050151561168757600080fd5b600360009054906101000a900473ffffffffffffffffffffffffffffffffffffffff1673ffffffffffffffffffffffffffffffffffffffff16636148fed5846040518263ffffffff167c01000000000000000000000000000000000000000000000000000000000281526004018082815260200191505060a060405180830381600087803b151561171757600080fd5b5af1151561172457600080fd5b50505060405180519060200180519060200180519060200180519060200180519050505050915091503373ffffffffffffffffffffffffffffffffffffffff1689600019167ff98a08756a3603420a080d66764f73deb1e30896c315cfed03e17f88f5eb30f7858b8b8787604051808681526020018060200184815260200183815260200182810382528686828181526020019250808284378201915050965050505050505060405180910390a38295505b50505050509392505050565b60008060016000846000191660001916815260200190815260200160002060030154905061180f83612183565b801561183857504260016000856000191660001916815260200190815260200160002060000154105b801561184a575061184883610751565b155b80156118875750600081148061188657506001151560008083815260200190815260200160002060010160149054906101000a900460ff161515145b5b15611895576001915061189a565b600091505b50919050565b6000806001600084600019166000191681526020019081526020016000206003015490506118cd83610c0c565b15156118d857600080fd5b600360009054906101000a900473ffffffffffffffffffffffffffffffffffffffff1673ffffffffffffffffffffffffffffffffffffffff1663ee684830826040518263ffffffff167c010000000000000000000000000000000000000000000000000000000002815260040180828152602001915050602060405180830381600087803b151561196857600080fd5b5af1151561197557600080fd5b50505060405180519050915050919050565b6000806000151560008086815260200190815260200160002060040160003373ffffffffffffffffffffffffffffffffffffffff1673ffffffffffffffffffffffffffffffffffffffff16815260200190815260200160002060009054906101000a900460ff1615151415156119fc57600080fd5b6001151560008086815260200190815260200160002060010160149054906101000a900460ff161515141515611a3157600080fd5b600360009054906101000a900473ffffffffffffffffffffffffffffffffffffffff1673ffffffffffffffffffffffffffffffffffffffff1663b43bd0693386866040518463ffffffff167c0100000000000000000000000000000000000000000000000000000000028152600401808473ffffffffffffffffffffffffffffffffffffffff1673ffffffffffffffffffffffffffffffffffffffff1681526020018381526020018281526020019350505050602060405180830381600087803b1515611afd57600080fd5b5af11515611b0a57600080fd5b505050604051805190509150611b2133858561227a565b905081600080868152602001908152602001600020600301600082825403925050819055508060008086815260200190815260200160002060000160008282540392505081905550600160008086815260200190815260200160002060040160003373ffffffffffffffffffffffffffffffffffffffff1673ffffffffffffffffffffffffffffffffffffffff16815260200190815260200160002060006101000a81548160ff021916908315150217905550600260009054906101000a900473ffffffffffffffffffffffffffffffffffffffff1673ffffffffffffffffffffffffffffffffffffffff1663a9059cbb33836040518363ffffffff167c0100000000000000000000000000000000000000000000000000000000028152600401808373ffffffffffffffffffffffffffffffffffffffff1673ffffffffffffffffffffffffffffffffffffffff16815260200182815260200192505050602060405180830381600087803b1515611c9857600080fd5b5af11515611ca557600080fd5b505050604051805190501515611cba57600080fd5b3373ffffffffffffffffffffffffffffffffffffffff16847f6f4c982acc31b0af2cf1dc1556f21c0325d893782d65e83c68a5534a33f59957836040518082815260200191505060405180910390a350505050565b6000611d1a85610751565b151515611d2657600080fd5b611d2f85612183565b151515611d3b57600080fd5b600460009054906101000a900473ffffffffffffffffffffffffffffffffffffffff1673ffffffffffffffffffffffffffffffffffffffff1663693ec85e6040518163ffffffff167c010000000000000000000000000000000000000000000000000000000002815260040180806020018281038252600a8152602001807f6d696e4465706f73697400000000000000000000000000000000000000000000815250602001915050602060405180830381600087803b1515611dfc57600080fd5b5af11515611e0957600080fd5b505050604051805190508410151515611e2157600080fd5b6001600086600019166000191681526020019081526020016000209050338160010160016101000a81548173ffffffffffffffffffffffffffffffffffffffff021916908373ffffffffffffffffffffffffffffffffffffffff160217905550611f6b600460009054906101000a900473ffffffffffffffffffffffffffffffffffffffff1673ffffffffffffffffffffffffffffffffffffffff1663693ec85e6040518163ffffffff167c010000000000000000000000000000000000000000000000000000000002815260040180806020018281038252600d8152602001807f6170706c7953746167654c656e00000000000000000000000000000000000000815250602001915050602060405180830381600087803b1515611f4557600080fd5b5af11515611f5257600080fd5b50505060405180519050426128a190919063ffffffff16565b8160000181905550838160020181905550600260009054906101000a900473ffffffffffffffffffffffffffffffffffffffff1673ffffffffffffffffffffffffffffffffffffffff166323b872dd8260010160019054906101000a900473ffffffffffffffffffffffffffffffffffffffff1630876040518463ffffffff167c0100000000000000000000000000000000000000000000000000000000028152600401808473ffffffffffffffffffffffffffffffffffffffff1673ffffffffffffffffffffffffffffffffffffffff1681526020018373ffffffffffffffffffffffffffffffffffffffff1673ffffffffffffffffffffffffffffffffffffffff1681526020018281526020019350505050602060405180830381600087803b151561209857600080fd5b5af115156120a557600080fd5b5050506040518051905015156120ba57600080fd5b3373ffffffffffffffffffffffffffffffffffffffff1685600019167fa27f550c3c7a7c6d8369e5383fdc7a3b4850d8ce9e20066f9d496f6989f0086486846000015487876040518085815260200184815260200180602001828103825284848281815260200192508082843782019150509550505050505060405180910390a35050505050565b61214b816117e2565b1561215e57612159816128bf565b612180565b612167816118a0565b1561217a576121758161295c565b61217f565b600080fd5b5b50565b60008060016000846000191660001916815260200190815260200160002060000154119050919050565b60006020528060005260406000206000915090508060000154908060010160009054906101000a900473ffffffffffffffffffffffffffffffffffffffff16908060010160149054906101000a900460ff16908060020154908060030154905085565b600080600084815260200190815260200160002060040160008373ffffffffffffffffffffffffffffffffffffffff1673ffffffffffffffffffffffffffffffffffffffff16815260200190815260200160002060009054906101000a900460ff16905092915050565b600080600080600080878152602001908152602001600020600301549250600080878152602001908152602001600020600001549150600360009054906101000a900473ffffffffffffffffffffffffffffffffffffffff1673ffffffffffffffffffffffffffffffffffffffff1663b43bd0698888886040518463ffffffff167c0100000000000000000000000000000000000000000000000000000000028152600401808473ffffffffffffffffffffffffffffffffffffffff1673ffffffffffffffffffffffffffffffffffffffff1681526020018381526020018281526020019350505050602060405180830381600087803b151561237c57600080fd5b5af1151561238957600080fd5b505050604051805190509050828282028115156123a257fe5b0493505050509392505050565b60016020528060005260406000206000915090508060000154908060010160009054906101000a900460ff16908060010160019054906101000a900473ffffffffffffffffffffffffffffffffffffffff16908060020154908060030154905085565b600080600083815260200190815260200160002060010160149054906101000a900460ff161580156124e75750600360009054906101000a900473ffffffffffffffffffffffffffffffffffffffff1673ffffffffffffffffffffffffffffffffffffffff1663ee684830836040518263ffffffff167c010000000000000000000000000000000000000000000000000000000002815260040180828152602001915050602060405180830381600087803b15156124cf57600080fd5b5af115156124dc57600080fd5b505050604051805190505b15156124f257600080fd5b6000600360009054906101000a900473ffffffffffffffffffffffffffffffffffffffff1673ffffffffffffffffffffffffffffffffffffffff1663053e71a6846040518263ffffffff167c010000000000000000000000000000000000000000000000000000000002815260040180828152602001915050602060405180830381600087803b151561258457600080fd5b5af1151561259157600080fd5b5050506040518051905014156125c1576000808381526020019081526020016000206002015460020290506125f4565b60008083815260200190815260200160002060000154600080848152602001908152602001600020600201546002020390505b919050565b600460009054906101000a900473ffffffffffffffffffffffffffffffffffffffff1681565b600260009054906101000a900473ffffffffffffffffffffffffffffffffffffffff1681565b600360009054906101000a900473ffffffffffffffffffffffffffffffffffffffff1681565b600080600060016000856000191660001916815260200190815260200160002092508260010160009054906101000a900460ff16156126da5783600019167fd1ffb796b7108387b2f02adf47b4b81a1690cf2a190422c87a4f670780103e6360405160405180910390a261270c565b83600019167f2e5ec035f6eac8ff1cf7cdf36cfeca7c85413f9f67652dc2c13d20f337204a2660405160405180910390a25b8260010160019054906101000a900473ffffffffffffffffffffffffffffffffffffffff169150826002015490506001600085600019166000191681526020019081526020016000206000808201600090556001820160006101000a81549060ff02191690556001820160016101000a81549073ffffffffffffffffffffffffffffffffffffffff0219169055600282016000905560038201600090555050600081111561289b57600260009054906101000a900473ffffffffffffffffffffffffffffffffffffffff1673ffffffffffffffffffffffffffffffffffffffff1663a9059cbb83836040518363ffffffff167c0100000000000000000000000000000000000000000000000000000000028152600401808373ffffffffffffffffffffffffffffffffffffffff1673ffffffffffffffffffffffffffffffffffffffff16815260200182815260200192505050602060405180830381600087803b151561287857600080fd5b5af1151561288557600080fd5b50505060405180519050151561289a57600080fd5b5b50505050565b60008082840190508381101515156128b557fe5b8091505092915050565b60016000826000191660001916815260200190815260200160002060010160009054906101000a900460ff1615156129235780600019167fa7bc1d57d9006d9d248707c7b6828c1bab8c51719cc06d78c82a3ee891ef967c60405160405180910390a25b6001806000836000191660001916815260200190815260200160002060010160006101000a81548160ff02191690831515021790555050565b60008060016000846000191660001916815260200190815260200160002060030154915061298982612412565b9050600160008084815260200190815260200160002060010160146101000a81548160ff021916908315150217905550600360009054906101000a900473ffffffffffffffffffffffffffffffffffffffff1673ffffffffffffffffffffffffffffffffffffffff1663053e71a6836040518263ffffffff167c010000000000000000000000000000000000000000000000000000000002815260040180828152602001915050602060405180830381600087803b1515612a4957600080fd5b5af11515612a5657600080fd5b5050506040518051905060008084815260200190815260200160002060030181905550600360009054906101000a900473ffffffffffffffffffffffffffffffffffffffff1673ffffffffffffffffffffffffffffffffffffffff166349403183836040518263ffffffff167c010000000000000000000000000000000000000000000000000000000002815260040180828152602001915050602060405180830381600087803b1515612b0957600080fd5b5af11515612b1657600080fd5b5050506040518051905015612bce57612b2e836128bf565b80600160008560001916600019168152602001908152602001600020600201600082825401925050819055508183600019167fc4497224aa78dd50c9b3e344aab02596201ca1e6dca4057a91a6c02f83f4f6c16000808681526020019081526020016000206000015460008087815260200190815260200160002060030154604051808381526020018281526020019250505060405180910390a3612d62565b612bd78361266b565b600260009054906101000a900473ffffffffffffffffffffffffffffffffffffffff1673ffffffffffffffffffffffffffffffffffffffff1663a9059cbb60008085815260200190815260200160002060010160009054906101000a900473ffffffffffffffffffffffffffffffffffffffff16836040518363ffffffff167c0100000000000000000000000000000000000000000000000000000000028152600401808373ffffffffffffffffffffffffffffffffffffffff1673ffffffffffffffffffffffffffffffffffffffff16815260200182815260200192505050602060405180830381600087803b1515612cd057600080fd5b5af11515612cdd57600080fd5b505050604051805190501515612cf257600080fd5b8183600019167f362a12431f779a2baff4f77f75ba7960ae993a5c41b425df11f7fd0af2b9cbe66000808681526020019081526020016000206000015460008087815260200190815260200160002060030154604051808381526020018281526020019250505060405180910390a35b5050505600a165627a7a72305820fa64c663fa50fc92408a2a892a305ac7654386bf92c48e2203e5e21bb61b25780029",
  "source": "pragma solidity ^0.4.11;\n\nimport \"tokens/eip20/EIP20Interface.sol\";\nimport \"./Parameterizer.sol\";\nimport \"plcrvoting/PLCRVoting.sol\";\nimport \"zeppelin/math/SafeMath.sol\";\n\ncontract Registry {\n\n  // ------\n  // EVENTS\n  // ------\n\n  event _Application(bytes32 indexed listingHash, uint deposit, uint appEndDate, string data, address indexed applicant);\n  event _Challenge(bytes32 indexed listingHash, uint challengeID, string data, uint commitEndDate, uint revealEndDate, address indexed challenger);\n  event _Deposit(bytes32 indexed listingHash, uint added, uint newTotal, address indexed owner);\n  event _Withdrawal(bytes32 indexed listingHash, uint withdrew, uint newTotal, address indexed owner);\n  event _ApplicationWhitelisted(bytes32 indexed listingHash);\n  event _ApplicationRemoved(bytes32 indexed listingHash);\n  event _ListingRemoved(bytes32 indexed listingHash);\n  event _ListingWithdrawn(bytes32 indexed listingHash);\n  event _TouchAndRemoved(bytes32 indexed listingHash);\n  event _ChallengeFailed(bytes32 indexed listingHash, uint indexed challengeID, uint rewardPool, uint totalTokens);\n  event _ChallengeSucceeded(bytes32 indexed listingHash, uint indexed challengeID, uint rewardPool, uint totalTokens);\n  event _RewardClaimed(uint indexed challengeID, uint reward, address indexed voter);\n\n  using SafeMath for uint;\n\n  struct Listing {\n    uint applicationExpiry; // Expiration date of apply stage\n    bool whitelisted;       // Indicates registry status\n    address owner;          // Owner of Listing\n    uint unstakedDeposit;   // Number of tokens in the listing not locked in a challenge\n    uint challengeID;       // Corresponds to a PollID in PLCRVoting\n  }\n\n  struct Challenge {\n    uint rewardPool;        // (remaining) Pool of tokens to be distributed to winning voters\n    address challenger;     // Owner of Challenge\n    bool resolved;          // Indication of if challenge is resolved\n    uint stake;             // Number of tokens at stake for either party during challenge\n    uint totalTokens;       // (remaining) Number of tokens used in voting by the winning side\n    mapping(address => bool) tokenClaims; // Indicates whether a voter has claimed a reward yet\n  }\n\n  // Maps challengeIDs to associated challenge data\n  mapping(uint => Challenge) public challenges;\n\n  // Maps listingHashes to associated listingHash data\n  mapping(bytes32 => Listing) public listings;\n\n  // Global Variables\n  EIP20Interface public token;\n  PLCRVoting public voting;\n  Parameterizer public parameterizer;\n  string public name;\n\n  // ------------\n  // CONSTRUCTOR:\n  // ------------\n\n  /**\n  @dev Contructor         Sets the addresses for token, voting, and parameterizer\n  @param _tokenAddr       Address of the TCR's intrinsic ERC20 token\n  @param _plcrAddr        Address of a PLCR voting contract for the provided token\n  @param _paramsAddr      Address of a Parameterizer contract\n  */\n  function Registry(\n    address _tokenAddr,\n    address _plcrAddr,\n    address _paramsAddr,\n    string _name\n  ) public\n  {\n    token = EIP20Interface(_tokenAddr);\n    voting = PLCRVoting(_plcrAddr);\n    parameterizer = Parameterizer(_paramsAddr);\n    name = _name;\n  }\n\n  // --------------------\n  // PUBLISHER INTERFACE:\n  // --------------------\n\n  /**\n  @dev                Allows a user to start an application. Takes tokens from user and sets\n                      apply stage end time.\n  @param _listingHash The hash of a potential listing a user is applying to add to the registry\n  @param _amount      The number of ERC20 tokens a user is willing to potentially stake\n  @param _data        Extra data relevant to the application. Think IPFS hashes.\n  */\n  function apply(bytes32 _listingHash, uint _amount, string _data) external {\n    require(!isWhitelisted(_listingHash));\n    require(!appWasMade(_listingHash));\n    require(_amount >= parameterizer.get(\"minDeposit\"));\n\n    // Sets owner\n    Listing storage listing = listings[_listingHash];\n    listing.owner = msg.sender;\n\n    // Sets apply stage end time\n    listing.applicationExpiry = block.timestamp.add(parameterizer.get(\"applyStageLen\"));\n    listing.unstakedDeposit = _amount;\n\n    // Transfers tokens from user to Registry contract\n    require(token.transferFrom(listing.owner, this, _amount));\n\n    _Application(_listingHash, _amount, listing.applicationExpiry, _data, msg.sender);\n  }\n\n  /**\n  @dev                Allows the owner of a listingHash to increase their unstaked deposit.\n  @param _listingHash A listingHash msg.sender is the owner of\n  @param _amount      The number of ERC20 tokens to increase a user's unstaked deposit\n  */\n  function deposit(bytes32 _listingHash, uint _amount) external {\n    Listing storage listing = listings[_listingHash];\n\n    require(listing.owner == msg.sender);\n\n    listing.unstakedDeposit += _amount;\n    require(token.transferFrom(msg.sender, this, _amount));\n\n    _Deposit(_listingHash, _amount, listing.unstakedDeposit, msg.sender);\n  }\n\n  /**\n  @dev                Allows the owner of a listingHash to decrease their unstaked deposit.\n  @param _listingHash A listingHash msg.sender is the owner of.\n  @param _amount      The number of ERC20 tokens to withdraw from the unstaked deposit.\n  */\n  function withdraw(bytes32 _listingHash, uint _amount) external {\n    Listing storage listing = listings[_listingHash];\n\n    require(listing.owner == msg.sender);\n    require(_amount <= listing.unstakedDeposit);\n    require(listing.unstakedDeposit - _amount >= parameterizer.get(\"minDeposit\"));\n\n    listing.unstakedDeposit -= _amount;\n    require(token.transfer(msg.sender, _amount));\n\n    _Withdrawal(_listingHash, _amount, listing.unstakedDeposit, msg.sender);\n  }\n\n  /**\n  @dev                Allows the owner of a listingHash to remove the listingHash from the whitelist\n                      Returns all tokens to the owner of the listingHash\n  @param _listingHash A listingHash msg.sender is the owner of.\n  */\n  function exit(bytes32 _listingHash) external {\n    Listing storage listing = listings[_listingHash];\n\n    require(msg.sender == listing.owner);\n    require(isWhitelisted(_listingHash));\n\n    // Cannot exit during ongoing challenge\n    require(listing.challengeID == 0 || challenges[listing.challengeID].resolved);\n\n    // Remove listingHash & return tokens\n    resetListing(_listingHash);\n    _ListingWithdrawn(_listingHash);\n  }\n\n  // -----------------------\n  // TOKEN HOLDER INTERFACE:\n  // -----------------------\n\n  /**\n  @dev                Starts a poll for a listingHash which is either in the apply stage or\n                      already in the whitelist. Tokens are taken from the challenger and the\n                      applicant's deposits are locked.\n  @param _listingHash The listingHash being challenged, whether listed or in application\n  @param _data        Extra data relevant to the challenge. Think IPFS hashes.\n  */\n  function challenge(bytes32 _listingHash, string _data) external returns (uint challengeID) {\n    Listing storage listing = listings[_listingHash];\n    uint deposit = parameterizer.get(\"minDeposit\");\n\n    // Listing must be in apply stage or already on the whitelist\n    require(appWasMade(_listingHash) || listing.whitelisted);\n    // Prevent multiple challenges\n    require(listing.challengeID == 0 || challenges[listing.challengeID].resolved);\n\n    if (listing.unstakedDeposit < deposit) {\n      // Not enough tokens, listingHash auto-delisted\n      resetListing(_listingHash);\n      _TouchAndRemoved(_listingHash);\n      return 0;\n    }\n\n    // Starts poll\n    uint pollID = voting.startPoll(\n        parameterizer.get(\"voteQuorum\"),\n        parameterizer.get(\"commitStageLen\"),\n        parameterizer.get(\"revealStageLen\")\n    );\n\n    challenges[pollID] = Challenge({\n      challenger: msg.sender,\n      rewardPool: ((100 - parameterizer.get(\"dispensationPct\")) * deposit) / 100,\n      stake: deposit,\n      resolved: false,\n      totalTokens: 0\n    });\n\n    // Updates listingHash to store most recent challenge\n    listing.challengeID = pollID;\n\n    // Locks tokens for listingHash during challenge\n    listing.unstakedDeposit -= deposit;\n\n    // Takes tokens from challenger\n    require(token.transferFrom(msg.sender, this, deposit));\n\n    var (commitEndDate, revealEndDate,) = voting.pollMap(pollID);\n\n    _Challenge(_listingHash, pollID, _data, commitEndDate, revealEndDate, msg.sender);\n    return pollID;\n  }\n\n  /**\n  @dev                Updates a listingHash's status from 'application' to 'listing' or resolves\n                      a challenge if one exists.\n  @param _listingHash The listingHash whose status is being updated\n  */\n  function updateStatus(bytes32 _listingHash) public {\n    if (canBeWhitelisted(_listingHash)) {\n      whitelistApplication(_listingHash);\n    } else if (challengeCanBeResolved(_listingHash)) {\n      resolveChallenge(_listingHash);\n    } else {\n      revert();\n    }\n  }\n\n  // ----------------\n  // TOKEN FUNCTIONS:\n  // ----------------\n\n  /**\n  @dev                Called by a voter to claim their reward for each completed vote. Someone\n                      must call updateStatus() before this can be called.\n  @param _challengeID The PLCR pollID of the challenge a reward is being claimed for\n  @param _salt        The salt of a voter's commit hash in the given poll\n  */\n  function claimReward(uint _challengeID, uint _salt) public {\n    // Ensures the voter has not already claimed tokens and challenge results have been processed\n    require(challenges[_challengeID].tokenClaims[msg.sender] == false);\n    require(challenges[_challengeID].resolved == true);\n\n    uint voterTokens = voting.getNumPassingTokens(msg.sender, _challengeID, _salt);\n    uint reward = voterReward(msg.sender, _challengeID, _salt);\n\n    // Subtracts the voter's information to preserve the participation ratios\n    // of other voters compared to the remaining pool of rewards\n    challenges[_challengeID].totalTokens -= voterTokens;\n    challenges[_challengeID].rewardPool -= reward;\n\n    // Ensures a voter cannot claim tokens again\n    challenges[_challengeID].tokenClaims[msg.sender] = true;\n\n    require(token.transfer(msg.sender, reward));\n\n    _RewardClaimed(_challengeID, reward, msg.sender);\n  }\n\n  // --------\n  // GETTERS:\n  // --------\n\n  /**\n  @dev                Calculates the provided voter's token reward for the given poll.\n  @param _voter       The address of the voter whose reward balance is to be returned\n  @param _challengeID The pollID of the challenge a reward balance is being queried for\n  @param _salt        The salt of the voter's commit hash in the given poll\n  @return             The uint indicating the voter's reward\n  */\n  function voterReward(address _voter, uint _challengeID, uint _salt)\n  public view returns (uint)\n  {\n    uint totalTokens = challenges[_challengeID].totalTokens;\n    uint rewardPool = challenges[_challengeID].rewardPool;\n    uint voterTokens = voting.getNumPassingTokens(_voter, _challengeID, _salt);\n    return (voterTokens * rewardPool) / totalTokens;\n  }\n\n  /**\n  @dev                Determines whether the given listingHash be whitelisted.\n  @param _listingHash The listingHash whose status is to be examined\n  */\n  function canBeWhitelisted(bytes32 _listingHash) view public returns (bool) {\n    uint challengeID = listings[_listingHash].challengeID;\n\n    // Ensures that the application was made,\n    // the application period has ended,\n    // the listingHash can be whitelisted,\n    // and either: the challengeID == 0, or the challenge has been resolved.\n    if (\n      /* solium-disable-next-line */\n      appWasMade(_listingHash) &&\n      /* solium-disable-next-line */\n      listings[_listingHash].applicationExpiry < now &&\n      /* solium-disable-next-line */\n      !isWhitelisted(_listingHash) &&\n      (challengeID == 0 || challenges[challengeID].resolved == true)\n    ) { return true; }\n\n    return false;\n  }\n\n  /**\n  @dev                Returns true if the provided listingHash is whitelisted\n  @param _listingHash The listingHash whose status is to be examined\n  */\n  function isWhitelisted(bytes32 _listingHash) view public returns (bool whitelisted) {\n    return listings[_listingHash].whitelisted;\n  }\n\n  /**\n  @dev                Returns true if apply was called for this listingHash\n  @param _listingHash The listingHash whose status is to be examined\n  */\n  function appWasMade(bytes32 _listingHash) view public returns (bool exists) {\n    return listings[_listingHash].applicationExpiry > 0;\n  }\n\n  /**\n  @dev                Returns true if the application/listingHash has an unresolved challenge\n  @param _listingHash The listingHash whose status is to be examined\n  */\n  function challengeExists(bytes32 _listingHash) view public returns (bool) {\n    uint challengeID = listings[_listingHash].challengeID;\n\n    return (listings[_listingHash].challengeID > 0 && !challenges[challengeID].resolved);\n  }\n\n  /**\n  @dev                Determines whether voting has concluded in a challenge for a given\n                      listingHash. Throws if no challenge exists.\n  @param _listingHash A listingHash with an unresolved challenge\n  */\n  function challengeCanBeResolved(bytes32 _listingHash) view public returns (bool) {\n    uint challengeID = listings[_listingHash].challengeID;\n\n    require(challengeExists(_listingHash));\n\n    return voting.pollEnded(challengeID);\n  }\n\n  /**\n  @dev                Determines the number of tokens awarded to the winning party in a challenge.\n  @param _challengeID The challengeID to determine a reward for\n  */\n  function determineReward(uint _challengeID) public view returns (uint) {\n    require(!challenges[_challengeID].resolved && voting.pollEnded(_challengeID));\n\n    // Edge case, nobody voted, give all tokens to the challenger.\n    if (voting.getTotalNumberOfTokensForWinningOption(_challengeID) == 0) {\n      return 2 * challenges[_challengeID].stake;\n    }\n\n    return (2 * challenges[_challengeID].stake) - challenges[_challengeID].rewardPool;\n  }\n\n  /**\n  @dev                Getter for Challenge tokenClaims mappings\n  @param _challengeID The challengeID to query\n  @param _voter       The voter whose claim status to query for the provided challengeID\n  */\n  function tokenClaims(uint _challengeID, address _voter) public view returns (bool) {\n    return challenges[_challengeID].tokenClaims[_voter];\n  }\n\n  // ----------------\n  // PRIVATE FUNCTIONS:\n  // ----------------\n\n  /**\n  @dev                Determines the winner in a challenge. Rewards the winner tokens and\n                      either whitelists or de-whitelists the listingHash.\n  @param _listingHash A listingHash with a challenge that is to be resolved\n  */\n  function resolveChallenge(bytes32 _listingHash) private {\n    uint challengeID = listings[_listingHash].challengeID;\n\n    // Calculates the winner's reward,\n    // which is: (winner's full stake) + (dispensationPct * loser's stake)\n    uint reward = determineReward(challengeID);\n\n    // Sets flag on challenge being processed\n    challenges[challengeID].resolved = true;\n\n    // Stores the total tokens used for voting by the winning side for reward purposes\n    challenges[challengeID].totalTokens = voting.getTotalNumberOfTokensForWinningOption(challengeID);\n\n    // Case: challenge failed\n    if (voting.isPassed(challengeID)) {\n      whitelistApplication(_listingHash);\n      // Unlock stake so that it can be retrieved by the applicant\n      listings[_listingHash].unstakedDeposit += reward;\n\n      _ChallengeFailed(_listingHash, challengeID, challenges[challengeID].rewardPool, challenges[challengeID].totalTokens);\n    } else { // Case: challenge succeeded or nobody voted\n      resetListing(_listingHash);\n      // Transfer the reward to the challenger\n      require(token.transfer(challenges[challengeID].challenger, reward));\n\n      _ChallengeSucceeded(_listingHash, challengeID, challenges[challengeID].rewardPool, challenges[challengeID].totalTokens);\n    }\n  }\n\n  /**\n  @dev                Called by updateStatus() if the applicationExpiry date passed without a\n                      challenge being made. Called by resolveChallenge() if an\n                      application/listing beat a challenge.\n  @param _listingHash The listingHash of an application/listingHash to be whitelisted\n  */\n  function whitelistApplication(bytes32 _listingHash) private {\n    if (!listings[_listingHash].whitelisted) { _ApplicationWhitelisted(_listingHash); }\n    listings[_listingHash].whitelisted = true;\n  }\n\n  /**\n  @dev                Deletes a listingHash from the whitelist and transfers tokens back to owner\n  @param _listingHash The listing hash to delete\n  */\n  function resetListing(bytes32 _listingHash) private {\n    Listing storage listing = listings[_listingHash];\n\n    // Emit events before deleting listing to check whether is whitelisted\n    if (listing.whitelisted) {\n      _ListingRemoved(_listingHash);\n    } else {\n      _ApplicationRemoved(_listingHash);\n    }\n\n    // Deleting listing to prevent reentry\n    address owner = listing.owner;\n    uint unstakedDeposit = listing.unstakedDeposit;\n    delete listings[_listingHash];\n\n    // Transfers any remaining balance back to the owner\n    if (unstakedDeposit > 0) {\n      require(token.transfer(owner, unstakedDeposit));\n    }\n  }\n}\n",
  "sourcePath": "/Users/rrobbins/Github/computable/contracts/registry.sol",
  "compiler": {
    "name": "solc",
    "version": "0.4.21+commit.dfe3193c.Emscripten.clang"
  },
  "schemaVersion": "2.0.0",
  "updatedAt": "2018-04-20T18:25:50.620Z"
}